{
  "transactions": [
    {
      "hash": "0x3641346833603a62c9f2b1246974f3d569f2a651037d7bcb2d30b1fe7e100b2b",
      "transactionType": "CALL",
      "contractName": null,
      "contractAddress": "0x6f7d033f046ee9c41a73713fe5620d8f64c3bbad",
      "function": "facetAddress(bytes4)",
      "arguments": [
        "0xc87b56dd"
      ],
      "transaction": {
        "from": "0x7bc9427c8730b87ab3fad10da63f0c4b9e9e0a5f",
        "to": "0x6f7d033f046ee9c41a73713fe5620d8f64c3bbad",
        "gas": "0xa3ad",
        "value": "0x0",
        "input": "0xcdffacc6c87b56dd00000000000000000000000000000000000000000000000000000000",
        "nonce": "0x2f9",
        "chainId": "0x2b03"
      },
      "additionalContracts": [],
      "isFixedGasLimit": false
    },
    {
      "hash": "0x8722c59753803684af446b168979600b3831cbd15d684ce6abae29471e0c53bd",
      "transactionType": "CALL",
      "contractName": null,
      "contractAddress": "0x6f7d033f046ee9c41a73713fe5620d8f64c3bbad",
      "function": "diamondCut((address,uint8,bytes4[])[],address,bytes)",
      "arguments": [
        "[(0xd1613A029d68a79E1a8CFd45F78f2C52124E33ef, 0, [0x70a08231, 0x6352211e, 0x42842e0e, 0x23b872dd, 0x095ea7b3, 0xa22cb465, 0x081812fc, 0xe985e9c5, 0x06fdde03, 0x95d89b41, 0x18160ddd, 0xb88d4fde])]",
        "0x0000000000000000000000000000000000000000",
        "0x"
      ],
      "transaction": {
        "from": "0x7bc9427c8730b87ab3fad10da63f0c4b9e9e0a5f",
        "to": "0x6f7d033f046ee9c41a73713fe5620d8f64c3bbad",
        "gas": "0x89e0f",
        "value": "0x0",
        "input": "0x1f931c1c0000000000000000000000000000000000000000000000000000000000000060000000000000000000000000000000000000000000000000000000000000000000000000000000000000000000000000000000000000000000000000000002a000000000000000000000000000000000000000000000000000000000000000010000000000000000000000000000000000000000000000000000000000000020000000000000000000000000d1613a029d68a79e1a8cfd45f78f2c52124e33ef00000000000000000000000000000000000000000000000000000000000000000000000000000000000000000000000000000000000000000000000000000060000000000000000000000000000000000000000000000000000000000000000c70a08231000000000000000000000000000000000000000000000000000000006352211e0000000000000000000000000000000000000000000000000000000042842e0e0000000000000000000000000000000000000000000000000000000023b872dd00000000000000000000000000000000000000000000000000000000095ea7b300000000000000000000000000000000000000000000000000000000a22cb46500000000000000000000000000000000000000000000000000000000081812fc00000000000000000000000000000000000000000000000000000000e985e9c50000000000000000000000000000000000000000000000000000000006fdde030000000000000000000000000000000000000000000000000000000095d89b410000000000000000000000000000000000000000000000000000000018160ddd00000000000000000000000000000000000000000000000000000000b88d4fde000000000000000000000000000000000000000000000000000000000000000000000000000000000000000000000000000000000000000000000000",
        "nonce": "0x2fa",
        "chainId": "0x2b03"
      },
      "additionalContracts": [],
      "isFixedGasLimit": false
    }
  ],
  "receipts": [
    {
      "status": "0x1",
      "cumulativeGasUsed": "0x11afa",
      "logs": [],
      "logsBloom": "0x00000000000000000000000000000000000000000000000000000000000000000000000000000000000000000000000000000000000000000000000000000000000000000000000000000000000000000000000000000000000000000000000000000000000000000000000000000000000000000000000000000000000000000000000000000000000000000000000000000000000000000000000000000000000000000000000000000000000000000000000000000000000000000000000000000000000000000000000000000000000000000000000000000000000000000000000000000000000000000000000000000000000000000000000000000000",
      "type": "0x2",
      "transactionHash": "0x3641346833603a62c9f2b1246974f3d569f2a651037d7bcb2d30b1fe7e100b2b",
      "transactionIndex": "0x1",
      "blockHash": "0x6899328239d3d9ddc2dbe8fee4b8b1a1d7ae912dd4200e766b6d1720018478f7",
      "blockNumber": "0x1318abd",
      "gasUsed": "0x6feb",
      "effectiveGasPrice": "0xfd",
      "from": "0x7bc9427c8730b87ab3fad10da63f0c4b9e9e0a5f",
      "to": "0x6f7d033f046ee9c41a73713fe5620d8f64c3bbad",
      "contractAddress": null,
      "l1BaseFeeScalar": "0x558",
      "l1BlobBaseFee": "0x1",
      "l1BlobBaseFeeScalar": "0xc5fc5",
      "l1Fee": "0x6b",
      "l1GasPrice": "0xc",
      "l1GasUsed": "0x640"
    },
    {
      "status": "0x1",
      "cumulativeGasUsed": "0x6ff65",
      "logs": [
        {
          "address": "0x6f7d033f046ee9c41a73713fe5620d8f64c3bbad",
          "topics": [
            "0x8faa70878671ccd212d20771b795c50af8fd3ff6cf27f4bde57e5d4de0aeb673"
          ],
          "data": "0x0000000000000000000000000000000000000000000000000000000000000060000000000000000000000000000000000000000000000000000000000000000000000000000000000000000000000000000000000000000000000000000002a000000000000000000000000000000000000000000000000000000000000000010000000000000000000000000000000000000000000000000000000000000020000000000000000000000000d1613a029d68a79e1a8cfd45f78f2c52124e33ef00000000000000000000000000000000000000000000000000000000000000000000000000000000000000000000000000000000000000000000000000000060000000000000000000000000000000000000000000000000000000000000000c70a08231000000000000000000000000000000000000000000000000000000006352211e0000000000000000000000000000000000000000000000000000000042842e0e0000000000000000000000000000000000000000000000000000000023b872dd00000000000000000000000000000000000000000000000000000000095ea7b300000000000000000000000000000000000000000000000000000000a22cb46500000000000000000000000000000000000000000000000000000000081812fc00000000000000000000000000000000000000000000000000000000e985e9c50000000000000000000000000000000000000000000000000000000006fdde030000000000000000000000000000000000000000000000000000000095d89b410000000000000000000000000000000000000000000000000000000018160ddd00000000000000000000000000000000000000000000000000000000b88d4fde000000000000000000000000000000000000000000000000000000000000000000000000000000000000000000000000000000000000000000000000",
          "blockHash": "0x6899328239d3d9ddc2dbe8fee4b8b1a1d7ae912dd4200e766b6d1720018478f7",
          "blockNumber": "0x1318abd",
          "transactionHash": "0x8722c59753803684af446b168979600b3831cbd15d684ce6abae29471e0c53bd",
          "transactionIndex": "0x2",
          "logIndex": "0x0",
          "removed": false
        }
      ],
      "logsBloom": "0x00008000000000000000000000000000000000000000000000000000000000000000000000000000000000000000000000000000000000000000000000000000000000000000000000000000000000000000000001000000000800000000000000000000000000000000000000000000000000000000000000000000000000000020000000000000000000000000000000000000000000000000000000000000000000000000000000000000000000000000000000000000000000000040000000000000000000000000000000000000000000000000000008000000000000000000000000000000000000000000000000000000000000000000000000000000",
      "type": "0x2",
      "transactionHash": "0x8722c59753803684af446b168979600b3831cbd15d684ce6abae29471e0c53bd",
      "transactionIndex": "0x2",
      "blockHash": "0x6899328239d3d9ddc2dbe8fee4b8b1a1d7ae912dd4200e766b6d1720018478f7",
      "blockNumber": "0x1318abd",
      "gasUsed": "0x5e46b",
      "effectiveGasPrice": "0xfd",
      "from": "0x7bc9427c8730b87ab3fad10da63f0c4b9e9e0a5f",
      "to": "0x6f7d033f046ee9c41a73713fe5620d8f64c3bbad",
      "contractAddress": null,
      "l1BaseFeeScalar": "0x558",
      "l1BlobBaseFee": "0x1",
      "l1BlobBaseFeeScalar": "0xc5fc5",
      "l1Fee": "0xcb",
      "l1GasPrice": "0xc",
      "l1GasUsed": "0xbd1"
    }
  ],
  "libraries": [],
  "pending": [],
  "returns": {},
  "timestamp": 1758984156007,
  "chain": 11011,
  "commit": "fc34780"
}