{
  "transactions": [
    {
      "hash": "0xd363e3736aa140c9badf8b72dc421d44683c27eff9bfb28e6082320daa22b858",
      "transactionType": "CALL",
      "contractName": null,
      "contractAddress": "0x6f7d033f046ee9c41a73713fe5620d8f64c3bbad",
      "function": "diamondCut((address,uint8,bytes4[])[],address,bytes)",
      "arguments": [
        "[(0xD18073114c88D206762c08B6B2C666E723b0F8e9, 0, [0x89d929be, 0xf4fbfba0, 0x6c3075f2])]",
        "0x0000000000000000000000000000000000000000",
        "0x"
      ],
      "transaction": {
        "from": "0x7bc9427c8730b87ab3fad10da63f0c4b9e9e0a5f",
        "to": "0x6f7d033f046ee9c41a73713fe5620d8f64c3bbad",
        "gas": "0x2fe92",
        "value": "0x0",
        "input": "0x1f931c1c00000000000000000000000000000000000000000000000000000000000000600000000000000000000000000000000000000000000000000000000000000000000000000000000000000000000000000000000000000000000000000000018000000000000000000000000000000000000000000000000000000000000000010000000000000000000000000000000000000000000000000000000000000020000000000000000000000000d18073114c88d206762c08b6b2c666e723b0f8e900000000000000000000000000000000000000000000000000000000000000000000000000000000000000000000000000000000000000000000000000000060000000000000000000000000000000000000000000000000000000000000000389d929be00000000000000000000000000000000000000000000000000000000f4fbfba0000000000000000000000000000000000000000000000000000000006c3075f2000000000000000000000000000000000000000000000000000000000000000000000000000000000000000000000000000000000000000000000000",
        "nonce": "0x33d",
        "chainId": "0x2b03"
      },
      "additionalContracts": [],
      "isFixedGasLimit": false
    }
  ],
  "receipts": [
    {
      "status": "0x1",
      "cumulativeGasUsed": "0x32820",
      "logs": [
        {
          "address": "0x6f7d033f046ee9c41a73713fe5620d8f64c3bbad",
          "topics": [
            "0x8faa70878671ccd212d20771b795c50af8fd3ff6cf27f4bde57e5d4de0aeb673"
          ],
          "data": "0x00000000000000000000000000000000000000000000000000000000000000600000000000000000000000000000000000000000000000000000000000000000000000000000000000000000000000000000000000000000000000000000018000000000000000000000000000000000000000000000000000000000000000010000000000000000000000000000000000000000000000000000000000000020000000000000000000000000d18073114c88d206762c08b6b2c666e723b0f8e900000000000000000000000000000000000000000000000000000000000000000000000000000000000000000000000000000000000000000000000000000060000000000000000000000000000000000000000000000000000000000000000389d929be00000000000000000000000000000000000000000000000000000000f4fbfba0000000000000000000000000000000000000000000000000000000006c3075f2000000000000000000000000000000000000000000000000000000000000000000000000000000000000000000000000000000000000000000000000",
          "blockHash": "0xde616125f443a84061b06088eb5f752b2eb3630867277afb235df8af7dde680c",
          "blockNumber": "0x1330641",
          "transactionHash": "0xd363e3736aa140c9badf8b72dc421d44683c27eff9bfb28e6082320daa22b858",
          "transactionIndex": "0x2",
          "logIndex": "0x0",
          "removed": false
        }
      ],
      "logsBloom": "0x00008000000000000000000000000000000000000000000000000000000000000000000000000000000000000000000000000000000000000000000000000000000000000000000000000000000000000000000001000000000800000000000000000000000000000000000000000000000000000000000000000000000000000020000000000000000000000000000000000000000000000000000000000000000000000000000000000000000000000000000000000000000000000040000000000000000000000000000000000000000000000000000008000000000000000000000000000000000000000000000000000000000000000000000000000000",
      "type": "0x2",
      "transactionHash": "0xd363e3736aa140c9badf8b72dc421d44683c27eff9bfb28e6082320daa22b858",
      "transactionIndex": "0x2",
      "blockHash": "0xde616125f443a84061b06088eb5f752b2eb3630867277afb235df8af7dde680c",
      "blockNumber": "0x1330641",
      "gasUsed": "0x22afd",
      "effectiveGasPrice": "0xfd",
      "from": "0x7bc9427c8730b87ab3fad10da63f0c4b9e9e0a5f",
      "to": "0x6f7d033f046ee9c41a73713fe5620d8f64c3bbad",
      "contractAddress": null,
      "l1BaseFeeScalar": "0x558",
      "l1BlobBaseFee": "0x1",
      "l1BlobBaseFeeScalar": "0xc5fc5",
      "l1Fee": "0x28ee",
      "l1GasPrice": "0xe45",
      "l1GasUsed": "0x81b"
    }
  ],
  "libraries": [],
  "pending": [],
  "returns": {},
  "timestamp": 1759178466555,
  "chain": 11011,
  "commit": "9d17f55"
}