{
  "transactions": [
    {
      "hash": "0x3dd0a3bc5485c61a0721daa22a730a1ecde0f8da95c00a17ff083f439bb3e5e5",
      "transactionType": "CALL",
      "contractName": null,
      "contractAddress": "0x6f7d033f046ee9c41a73713fe5620d8f64c3bbad",
      "function": "cleanRug(uint256)",
      "arguments": [
        "1"
      ],
      "transaction": {
        "from": "0x7bc9427c8730b87ab3fad10da63f0c4b9e9e0a5f",
        "to": "0x6f7d033f046ee9c41a73713fe5620d8f64c3bbad",
        "gas": "0x299d2",
        "value": "0x0",
        "input": "0x4f44b1880000000000000000000000000000000000000000000000000000000000000001",
        "nonce": "0x311",
        "chainId": "0x2b03"
      },
      "additionalContracts": [],
      "isFixedGasLimit": false
    }
  ],
  "receipts": [
    {
      "status": "0x1",
      "cumulativeGasUsed": "0x28d0f",
      "logs": [
        {
          "address": "0x6f7d033f046ee9c41a73713fe5620d8f64c3bbad",
          "topics": [
            "0x9109d2f42c9f2d12b44440741333bee1ea4f3187810758de04c8a618e96f74ce",
            "0x0000000000000000000000000000000000000000000000000000000000000001",
            "0x0000000000000000000000007bc9427c8730b87ab3fad10da63f0c4b9e9e0a5f"
          ],
          "data": "0x00000000000000000000000000000000000000000000000000000000000000000000000000000000000000000000000000000000000000000000000000000000",
          "blockHash": "0x92c8e2def8cf46f49a2a18974b335604f347bb143412df10eec9c7c97b778215",
          "blockNumber": "0x132a671",
          "transactionHash": "0x3dd0a3bc5485c61a0721daa22a730a1ecde0f8da95c00a17ff083f439bb3e5e5",
          "transactionIndex": "0x1",
          "logIndex": "0x0",
          "removed": false
        }
      ],
      "logsBloom": "0x00008000000000000000000000000000000000000000000000000000000000000000000000000000000000000000000000000000000000000002000000040000000000000000000000000000000000000001000000040000000002000000040000000000000000000000000000000000000100000000000000000000000000000000000100000000000000000000000000000000000000000000000000000000000000000000000000000000000000000000000000000000000000000040000000000000000000000000000000000000000000000000000008000000000040000000000000000000000000000000000000000000000000000000000000000000",
      "type": "0x2",
      "transactionHash": "0x3dd0a3bc5485c61a0721daa22a730a1ecde0f8da95c00a17ff083f439bb3e5e5",
      "transactionIndex": "0x1",
      "blockHash": "0x92c8e2def8cf46f49a2a18974b335604f347bb143412df10eec9c7c97b778215",
      "blockNumber": "0x132a671",
      "gasUsed": "0x1e20c",
      "effectiveGasPrice": "0xfd",
      "from": "0x7bc9427c8730b87ab3fad10da63f0c4b9e9e0a5f",
      "to": "0x6f7d033f046ee9c41a73713fe5620d8f64c3bbad",
      "contractAddress": null,
      "l1BaseFeeScalar": "0x558",
      "l1BlobBaseFee": "0x1",
      "l1BlobBaseFeeScalar": "0xc5fc5",
      "l1Fee": "0x66",
      "l1GasPrice": "0xa",
      "l1GasUsed": "0x640"
    }
  ],
  "libraries": [],
  "pending": [],
  "returns": {},
  "timestamp": 1759129411008,
  "chain": 11011,
  "commit": "8381511"
}