{
  "transactions": [
    {
      "hash": "0x282ed3749c91f3bb4e19eb3b2a13ffa8457002f38fe1936bfc65de38585c83fa",
      "transactionType": "CALL",
      "contractName": null,
      "contractAddress": "0x3d6670ac0a881dcc742c17d687f5dfe05af81cff",
      "function": "diamondCut((address,uint8,bytes4[])[],address,bytes)",
      "arguments": [
        "[(0x01CdCD6B500531CC8330696B7b82c4bBF469eFAd, 0, [0x43e8a466])]",
        "0x0000000000000000000000000000000000000000",
        "0x"
      ],
      "transaction": {
        "from": "0x7bc9427c8730b87ab3fad10da63f0c4b9e9e0a5f",
        "to": "0x3d6670ac0a881dcc742c17d687f5dfe05af81cff",
        "gas": "0x1f73f",
        "value": "0x0",
        "input": "0x1f931c1c0000000000000000000000000000000000000000000000000000000000000060000000000000000000000000000000000000000000000000000000000000000000000000000000000000000000000000000000000000000000000000000001400000000000000000000000000000000000000000000000000000000000000001000000000000000000000000000000000000000000000000000000000000002000000000000000000000000001cdcd6b500531cc8330696b7b82c4bbf469efad00000000000000000000000000000000000000000000000000000000000000000000000000000000000000000000000000000000000000000000000000000060000000000000000000000000000000000000000000000000000000000000000143e8a466000000000000000000000000000000000000000000000000000000000000000000000000000000000000000000000000000000000000000000000000",
        "nonce": "0x34a",
        "chainId": "0x14a34"
      },
      "additionalContracts": [],
      "isFixedGasLimit": false
    }
  ],
  "receipts": [
    {
      "status": "0x1",
      "cumulativeGasUsed": "0x508da1",
      "logs": [
        {
          "address": "0x3d6670ac0a881dcc742c17d687f5dfe05af81cff",
          "topics": [
            "0x8faa70878671ccd212d20771b795c50af8fd3ff6cf27f4bde57e5d4de0aeb673"
          ],
          "data": "0x0000000000000000000000000000000000000000000000000000000000000060000000000000000000000000000000000000000000000000000000000000000000000000000000000000000000000000000000000000000000000000000001400000000000000000000000000000000000000000000000000000000000000001000000000000000000000000000000000000000000000000000000000000002000000000000000000000000001cdcd6b500531cc8330696b7b82c4bbf469efad00000000000000000000000000000000000000000000000000000000000000000000000000000000000000000000000000000000000000000000000000000060000000000000000000000000000000000000000000000000000000000000000143e8a466000000000000000000000000000000000000000000000000000000000000000000000000000000000000000000000000000000000000000000000000",
          "blockHash": "0x22028d7f6fd18ec85e875f4715b74cd34fc311a1ed46f65375bf43646aa61c7b",
          "blockNumber": "0x230a16c",
          "blockTimestamp": "0x6974a1b8",
          "transactionHash": "0x282ed3749c91f3bb4e19eb3b2a13ffa8457002f38fe1936bfc65de38585c83fa",
          "transactionIndex": "0x9",
          "logIndex": "0x1f",
          "removed": false
        }
      ],
      "logsBloom": "0x00000000000000000000000000000000000000000000000000000000000000000000000000000000000000000000000000000000000000000000000000000000000000000000000000000000000000000000000001000000000800000000000000000000000000000000000000000000000040000000000000000000000000000020000000000000000000000000000000000000000000000000000000000000000000000000000000000000000000000000000000000000000000000000000010000000040000000000000000000000000000000000000000000000000000000000000000000000000000000000000000000000000000000000000000000000",
      "type": "0x2",
      "transactionHash": "0x282ed3749c91f3bb4e19eb3b2a13ffa8457002f38fe1936bfc65de38585c83fa",
      "transactionIndex": "0x9",
      "blockHash": "0x22028d7f6fd18ec85e875f4715b74cd34fc311a1ed46f65375bf43646aa61c7b",
      "blockNumber": "0x230a16c",
      "gasUsed": "0x1581a",
      "effectiveGasPrice": "0x124f80",
      "blobGasUsed": "0x9240",
      "from": "0x7bc9427c8730b87ab3fad10da63f0c4b9e9e0a5f",
      "to": "0x3d6670ac0a881dcc742c17d687f5dfe05af81cff",
      "contractAddress": null,
      "daFootprintGasScalar": "0x138",
      "l1BaseFeeScalar": "0x44d",
      "l1BlobBaseFee": "0x384c87b",
      "l1BlobBaseFeeScalar": "0xa118b",
      "l1Fee": "0x1591e5862",
      "l1GasPrice": "0x401c65ec",
      "l1GasUsed": "0x788"
    }
  ],
  "libraries": [],
  "pending": [],
  "returns": {},
  "timestamp": 1769251256277,
  "chain": 84532,
  "commit": "8ce8a13"
}