{
  "transactions": [
    {
      "hash": "0x1c2728e037f45324eb6a3d7e2992d94451a4fcca24c90082a45586a658e7cd31",
      "transactionType": "CALL",
      "contractName": null,
      "contractAddress": "0x5419436b1e97063b636c70ba2e829ed26336aa0d",
      "function": "setLaunderingEnabled(bool)",
      "arguments": [
        "true"
      ],
      "transaction": {
        "from": "0x7bc9427c8730b87ab3fad10da63f0c4b9e9e0a5f",
        "to": "0x5419436b1e97063b636c70ba2e829ed26336aa0d",
        "gas": "0xaba7",
        "value": "0x0",
        "input": "0x04122aa40000000000000000000000000000000000000000000000000000000000000001",
        "nonce": "0xb3d",
        "chainId": "0x2b03"
      },
      "additionalContracts": [],
      "isFixedGasLimit": false
    }
  ],
  "receipts": [
    {
      "status": "0x1",
      "cumulativeGasUsed": "0x12756",
      "logs": [
        {
          "address": "0x5419436b1e97063b636c70ba2e829ed26336aa0d",
          "topics": [
            "0x81fa903ba9d0e035f1b5c01a0d477c6af509eaf8a6436cc07c40ca8ca922fbaf"
          ],
          "data": "0x0000000000000000000000000000000000000000000000000000000000000001",
          "blockHash": "0x09c3b670751e6edfa593f259d24b698026484474cc1308abf50c519ade860190",
          "blockNumber": "0x1469f35",
          "blockTimestamp": "0x690220ca",
          "transactionHash": "0x1c2728e037f45324eb6a3d7e2992d94451a4fcca24c90082a45586a658e7cd31",
          "transactionIndex": "0x1",
          "logIndex": "0x0",
          "removed": false
        }
      ],
      "logsBloom": "0x00000000000000000000000000000000000000000000000000000000000000000000000000000000002000000020000000000000000000000000000000000000000000000000000000000000000000000000000000000000000000000000000000000000000000000000000000000000000000000008000000000000000000000000000000000000000000000000000000000000000000000000000000000000000000000001000004000000000000000000000000000000000000000000000000000000000000000000000000000000000000000000000040000000000000000000000000000000000000000000000000000000000000000000000000000000",
      "type": "0x2",
      "transactionHash": "0x1c2728e037f45324eb6a3d7e2992d94451a4fcca24c90082a45586a658e7cd31",
      "transactionIndex": "0x1",
      "blockHash": "0x09c3b670751e6edfa593f259d24b698026484474cc1308abf50c519ade860190",
      "blockNumber": "0x1469f35",
      "gasUsed": "0x7c47",
      "effectiveGasPrice": "0xfd",
      "from": "0x7bc9427c8730b87ab3fad10da63f0c4b9e9e0a5f",
      "to": "0x5419436b1e97063b636c70ba2e829ed26336aa0d",
      "contractAddress": null,
      "l1BaseFeeScalar": "0x558",
      "l1BlobBaseFee": "0x1",
      "l1BlobBaseFeeScalar": "0xc5fc5",
      "l1Fee": "0x64",
      "l1GasPrice": "0x9",
      "l1GasUsed": "0x640"
    }
  ],
  "libraries": [],
  "pending": [],
  "returns": {},
  "timestamp": 1761747146501,
  "chain": 11011,
  "commit": "1b04690"
}