{
  "transactions": [
    {
      "hash": "0xacf45c71ea95527cd9cc348f1e280ccce1f0b6352133ebf47c33bb207b5121db",
      "transactionType": "CALL",
      "contractName": null,
      "contractAddress": "0x5419436b1e97063b636c70ba2e829ed26336aa0d",
      "function": "setLaunderingEnabled(bool)",
      "arguments": [
        "true"
      ],
      "transaction": {
        "from": "0x7bc9427c8730b87ab3fad10da63f0c4b9e9e0a5f",
        "to": "0x5419436b1e97063b636c70ba2e829ed26336aa0d",
        "gas": "0x12770",
        "value": "0x0",
        "input": "0x04122aa40000000000000000000000000000000000000000000000000000000000000001",
        "nonce": "0xb3c",
        "chainId": "0x2b03"
      },
      "additionalContracts": [],
      "isFixedGasLimit": false
    }
  ],
  "receipts": [
    {
      "status": "0x1",
      "cumulativeGasUsed": "0x18ae6",
      "logs": [
        {
          "address": "0x5419436b1e97063b636c70ba2e829ed26336aa0d",
          "topics": [
            "0x81fa903ba9d0e035f1b5c01a0d477c6af509eaf8a6436cc07c40ca8ca922fbaf"
          ],
          "data": "0x0000000000000000000000000000000000000000000000000000000000000001",
          "blockHash": "0x868fde5c9290493967b6dfaa23c2d8dd5952bb2ff9ad4a94e2a24ba516c00693",
          "blockNumber": "0x1469e6a",
          "blockTimestamp": "0x69021f34",
          "transactionHash": "0xacf45c71ea95527cd9cc348f1e280ccce1f0b6352133ebf47c33bb207b5121db",
          "transactionIndex": "0x1",
          "logIndex": "0x0",
          "removed": false
        }
      ],
      "logsBloom": "0x00000000000000000000000000000000000000000000000000000000000000000000000000000000002000000020000000000000000000000000000000000000000000000000000000000000000000000000000000000000000000000000000000000000000000000000000000000000000000000008000000000000000000000000000000000000000000000000000000000000000000000000000000000000000000000001000004000000000000000000000000000000000000000000000000000000000000000000000000000000000000000000000040000000000000000000000000000000000000000000000000000000000000000000000000000000",
      "type": "0x2",
      "transactionHash": "0xacf45c71ea95527cd9cc348f1e280ccce1f0b6352133ebf47c33bb207b5121db",
      "transactionIndex": "0x1",
      "blockHash": "0x868fde5c9290493967b6dfaa23c2d8dd5952bb2ff9ad4a94e2a24ba516c00693",
      "blockNumber": "0x1469e6a",
      "gasUsed": "0xca03",
      "effectiveGasPrice": "0xfd",
      "from": "0x7bc9427c8730b87ab3fad10da63f0c4b9e9e0a5f",
      "to": "0x5419436b1e97063b636c70ba2e829ed26336aa0d",
      "contractAddress": null,
      "l1BaseFeeScalar": "0x558",
      "l1BlobBaseFee": "0x1",
      "l1BlobBaseFeeScalar": "0xc5fc5",
      "l1Fee": "0x66",
      "l1GasPrice": "0xa",
      "l1GasUsed": "0x640"
    }
  ],
  "libraries": [],
  "pending": [],
  "returns": {},
  "timestamp": 1761746740942,
  "chain": 11011,
  "commit": "f454428"
}