{
  "transactions": [
    {
      "hash": "0xa3a46114e67eeeadf7515c77bdc5b922bbed2745739ecbf4a91ee714c78b7d31",
      "transactionType": "CALL",
      "contractName": null,
      "contractAddress": "0x3d6670ac0a881dcc742c17d687f5dfe05af81cff",
      "function": "updateWalletLimit(uint256)",
      "arguments": [
        "10"
      ],
      "transaction": {
        "from": "0x7bc9427c8730b87ab3fad10da63f0c4b9e9e0a5f",
        "to": "0x3d6670ac0a881dcc742c17d687f5dfe05af81cff",
        "gas": "0xbcde",
        "value": "0x0",
        "input": "0x4f7fbdde000000000000000000000000000000000000000000000000000000000000000a",
        "nonce": "0x301",
        "chainId": "0x14a34"
      },
      "additionalContracts": [],
      "isFixedGasLimit": false
    },
    {
      "hash": "0x602d464528c8c504b77804fdcbfa0913472153988efb10f533aff49bf3ab049f",
      "transactionType": "CALL",
      "contractName": null,
      "contractAddress": "0x3d6670ac0a881dcc742c17d687f5dfe05af81cff",
      "function": "addToExceptionList(address)",
      "arguments": [
        "0x7Bc9427C8730b87Ab3faD10DA63F0C4b9e9E0A5F"
      ],
      "transaction": {
        "from": "0x7bc9427c8730b87ab3fad10da63f0c4b9e9e0a5f",
        "to": "0x3d6670ac0a881dcc742c17d687f5dfe05af81cff",
        "gas": "0x22a70",
        "value": "0x0",
        "input": "0x020372810000000000000000000000007bc9427c8730b87ab3fad10da63f0c4b9e9e0a5f",
        "nonce": "0x302",
        "chainId": "0x14a34"
      },
      "additionalContracts": [],
      "isFixedGasLimit": false
    }
  ],
  "receipts": [
    {
      "status": "0x1",
      "cumulativeGasUsed": "0x345cb7",
      "logs": [
        {
          "address": "0x3d6670ac0a881dcc742c17d687f5dfe05af81cff",
          "topics": [
            "0xc9aa851a9e693d868d2f64d4eda0e3480830af4a05b796fcbf27f8e8b58c18bc"
          ],
          "data": "0x0000000000000000000000000000000000000000000000000000000000000007000000000000000000000000000000000000000000000000000000000000000a",
          "blockHash": "0xd2ef30f0a66d10f8b9f310be7404fd0f8817b146718933a3f4c49bdff34e5c49",
          "blockNumber": "0x217a277",
          "blockTimestamp": "0x6942a3ce",
          "transactionHash": "0x602d464528c8c504b77804fdcbfa0913472153988efb10f533aff49bf3ab049f",
          "transactionIndex": "0x10",
          "logIndex": "0x27",
          "removed": false
        }
      ],
      "logsBloom": "0x00000000000000000000000000000000000000000000000000000000000000000000000000000000000000000000000000000000000000000000000000000000000000000000000000000000000000000000000000800000000000000000000000000000000000000000000000000000000040000000000000000000000000000000000000000000000000000000000000000000000000000000000000000000000000000000000000000000000000000000080000200000000000000000000010000000040000000000000000000000000000000000000000000000000000000000000000000000000000000000000000000000000000000000000000000000",
      "type": "0x2",
      "transactionHash": "0x602d464528c8c504b77804fdcbfa0913472153988efb10f533aff49bf3ab049f",
      "transactionIndex": "0x10",
      "blockHash": "0xd2ef30f0a66d10f8b9f310be7404fd0f8817b146718933a3f4c49bdff34e5c49",
      "blockNumber": "0x217a277",
      "gasUsed": "0x88be",
      "effectiveGasPrice": "0x124f80",
      "blobGasUsed": "0x79e0",
      "from": "0x7bc9427c8730b87ab3fad10da63f0c4b9e9e0a5f",
      "to": "0x3d6670ac0a881dcc742c17d687f5dfe05af81cff",
      "contractAddress": null,
      "daFootprintGasScalar": "0x138",
      "l1BaseFeeScalar": "0x44d",
      "l1BlobBaseFee": "0x10c2e23a",
      "l1BlobBaseFeeScalar": "0xa118b",
      "l1Fee": "0xf5c8ac7df",
      "l1GasPrice": "0x12dbb98a6",
      "l1GasUsed": "0x640"
    },
    {
      "status": "0x1",
      "cumulativeGasUsed": "0x35d7d2",
      "logs": [
        {
          "address": "0x3d6670ac0a881dcc742c17d687f5dfe05af81cff",
          "topics": [
            "0xae4a7f93fe3c7f72f7dc327c4a8dc32aa858c74e337aa8d5b9679c8608e1c018",
            "0x0000000000000000000000007bc9427c8730b87ab3fad10da63f0c4b9e9e0a5f"
          ],
          "data": "0x",
          "blockHash": "0xd2ef30f0a66d10f8b9f310be7404fd0f8817b146718933a3f4c49bdff34e5c49",
          "blockNumber": "0x217a277",
          "blockTimestamp": "0x6942a3ce",
          "transactionHash": "0xa3a46114e67eeeadf7515c77bdc5b922bbed2745739ecbf4a91ee714c78b7d31",
          "transactionIndex": "0x11",
          "logIndex": "0x28",
          "removed": false
        }
      ],
      "logsBloom": "0x00000000000000000000000000000000000000000000000000000000000000000000000000000000000000000000000000000000000000000000000000000000000000000000000000000000000000000001000001000000000002000000000000200000000000000000000000000000080040000000000000000000000000000000000100000000000000000000000000000000000000000000000000000000000000000000000000000000000000000000000000000000000000000000000010000000040000000000000000000000000000000000000000000000000000000000000000000000000000000000000000000000000000000000000000000000",
      "type": "0x2",
      "transactionHash": "0xa3a46114e67eeeadf7515c77bdc5b922bbed2745739ecbf4a91ee714c78b7d31",
      "transactionIndex": "0x11",
      "blockHash": "0xd2ef30f0a66d10f8b9f310be7404fd0f8817b146718933a3f4c49bdff34e5c49",
      "blockNumber": "0x217a277",
      "gasUsed": "0x17b1b",
      "effectiveGasPrice": "0x124f80",
      "blobGasUsed": "0x79e0",
      "from": "0x7bc9427c8730b87ab3fad10da63f0c4b9e9e0a5f",
      "to": "0x3d6670ac0a881dcc742c17d687f5dfe05af81cff",
      "contractAddress": null,
      "daFootprintGasScalar": "0x138",
      "l1BaseFeeScalar": "0x44d",
      "l1BlobBaseFee": "0x10c2e23a",
      "l1BlobBaseFeeScalar": "0xa118b",
      "l1Fee": "0xf5c8ac7df",
      "l1GasPrice": "0x12dbb98a6",
      "l1GasUsed": "0x640"
    }
  ],
  "libraries": [],
  "pending": [],
  "returns": {},
  "timestamp": 1765974989530,
  "chain": 84532,
  "commit": "00b6a22"
}