{
  "transactions": [
    {
      "hash": null,
      "transactionType": "CALL",
      "contractName": null,
      "contractAddress": "0x46270eb2bb5ce81ea29106514679e67d9fa9ad27",
      "function": "mintWithText(string[],uint256,string,string,string,uint256,bool,uint8,bool,uint8)",
      "arguments": [
        "[OINON]",
        "12345",
        "{\\\"name\\\":\\\"Indian Peacock\\\",\\\"colors\\\":[\\\"#000080\\\",\\\"#191970\\\",\\\"#4169E1\\\",\\\"#4682B4\\\",\\\"#00CED1\\\",\\\"#40E0D0\\\",\\\"#48D1CC\\\",\\\"#20B2AA\\\"]}",
        "[{\\\"y\\\":0,\\\"height\\\":79.21721367165446,\\\"primaryColor\\\":\\\"#48D1CC\\\",\\\"secondaryColor\\\":\\\"#48D1CC\\\",\\\"weaveType\\\":\\\"solid\\\",\\\"warpVariation\\\":0.38434289479628203},{\\\"y\\\":79.21721367165446,\\\"height\\\":85.13879705220461,\\\"primaryColor\\\":\\\"#4682B4\\\",\\\"secondaryColor\\\":null,\\\"weaveType\\\":\\\"solid\\\",\\\"warpVariation\\\":0.33504934683442117},{\\\"y\\\":164.35601072385907,\\\"height\\\":50.84667540155351,\\\"primaryColor\\\":\\\"#000080\\\",\\\"secondaryColor\\\":null,\\\"weaveType\\\":\\\"textured\\\",\\\"warpVariation\\\":0.2733596692793071}]",
        "{\\\"O\\\":[\\\"01110\\\",\\\"10001\\\",\\\"10001\\\",\\\"10001\\\",\\\"10001\\\",\\\"10001\\\",\\\"01110\\\"],\\\"I\\\":[\\\"11111\\\",\\\"00100\\\",\\\"00100\\\",\\\"00100\\\",\\\"00100\\\",\\\"00100\\\",\\\"11111\\\"],\\\"N\\\":[\\\"10001\\\",\\\"11001\\\",\\\"10101\\\",\\\"10011\\\",\\\"10001\\\",\\\"10001\\\",\\\"10001\\\"],\\\" \\\":[\\\"00000\\\",\\\"00000\\\",\\\"00000\\\",\\\"00000\\\",\\\"00000\\\",\\\"00000\\\",\\\"00000\\\"]}",
        "3",
        "false",
        "0",
        "false",
        "0"
      ],
      "transaction": {
        "from": "0x7bc9427c8730b87ab3fad10da63f0c4b9e9e0a5f",
        "to": "0x46270eb2bb5ce81ea29106514679e67d9fa9ad27",
        "gas": "0x141287",
        "value": "0x5af3107a4000",
        "input": "0xe2dde7ed0000000000000000000000000000000000000000000000000000000000000140000000000000000000000000000000000000000000000000000000000000303900000000000000000000000000000000000000000000000000000000000001c000000000000000000000000000000000000000000000000000000000000002600000000000000000000000000000000000000000000000000000000000000460000000000000000000000000000000000000000000000000000000000000000300000000000000000000000000000000000000000000000000000000000000000000000000000000000000000000000000000000000000000000000000000000000000000000000000000000000000000000000000000000000000000000000000000000000000000000000000000000000000000000000000000000000000000000000000000000000000000000000000000000000000000000000000000001000000000000000000000000000000000000000000000000000000000000002000000000000000000000000000000000000000000000000000000000000000054f494e4f4e00000000000000000000000000000000000000000000000000000000000000000000000000000000000000000000000000000000000000000000747b226e616d65223a22496e6469616e20506561636f636b222c22636f6c6f7273223a5b2223303030303830222c2223313931393730222c2223343136394531222c2223343638324234222c2223303043454431222c2223343045304430222c2223343844314343222c2223323042324141225d7d00000000000000000000000000000000000000000000000000000000000000000000000000000000000001c75b7b2279223a302c22686569676874223a37392e32313732313336373136353434362c227072696d617279436f6c6f72223a2223343844314343222c227365636f6e64617279436f6c6f72223a2223343844314343222c22776561766554797065223a22736f6c6964222c2277617270566172696174696f6e223a302e33383433343238393437393632383230337d2c7b2279223a37392e32313732313336373136353434362c22686569676874223a38352e31333837393730353232303436312c227072696d617279436f6c6f72223a2223343638324234222c227365636f6e64617279436f6c6f72223a6e756c6c2c22776561766554797065223a22736f6c6964222c2277617270566172696174696f6e223a302e33333530343933343638333434323131377d2c7b2279223a3136342e33353630313037323338353930372c22686569676874223a35302e38343636373534303135353335312c227072696d617279436f6c6f72223a2223303030303830222c227365636f6e64617279436f6c6f72223a6e756c6c2c22776561766554797065223a227465787475726564222c2277617270566172696174696f6e223a302e323733333539363639323739333037317d5d0000000000000000000000000000000000000000000000000000000000000000000000000000000000000000000000000000000000000000f97b224f223a5b223031313130222c223130303031222c223130303031222c223130303031222c223130303031222c223130303031222c223031313130225d2c2249223a5b223131313131222c223030313030222c223030313030222c223030313030222c223030313030222c223030313030222c223131313131225d2c224e223a5b223130303031222c223131303031222c223130313031222c223130303131222c223130303031222c223130303031222c223130303031225d2c2220223a5b223030303030222c223030303030222c223030303030222c223030303030222c223030303030222c223030303030222c223030303030225d7d00000000000000",
        "nonce": "0x4",
        "chainId": "0x2b03"
      },
      "additionalContracts": [],
      "isFixedGasLimit": false
    }
  ],
  "receipts": [],
  "libraries": [],
  "pending": [],
  "returns": {},
  "timestamp": 1757537198586,
  "chain": 11011,
  "commit": "fc553ea"
}