{
  "transactions": [
    {
      "hash": "0xf5743ac7138e9dc3405d161ab9bf2ca1ec3ca4c11698948b5ca01925d6fced01",
      "transactionType": "CALL",
      "contractName": null,
      "contractAddress": "0xa43532205fc90b286da98389a9883347cc4064a8",
      "function": "setLaunderingEnabled(bool)",
      "arguments": [
        "true"
      ],
      "transaction": {
        "from": "0x7bc9427c8730b87ab3fad10da63f0c4b9e9e0a5f",
        "to": "0xa43532205fc90b286da98389a9883347cc4064a8",
        "gas": "0x12770",
        "value": "0x0",
        "input": "0x04122aa40000000000000000000000000000000000000000000000000000000000000001",
        "nonce": "0x5f",
        "chainId": "0x14a34"
      },
      "additionalContracts": [],
      "isFixedGasLimit": false
    }
  ],
  "receipts": [
    {
      "status": "0x1",
      "cumulativeGasUsed": "0x3aba24",
      "logs": [
        {
          "address": "0xa43532205fc90b286da98389a9883347cc4064a8",
          "topics": [
            "0x81fa903ba9d0e035f1b5c01a0d477c6af509eaf8a6436cc07c40ca8ca922fbaf"
          ],
          "data": "0x0000000000000000000000000000000000000000000000000000000000000001",
          "blockHash": "0x60bcde09253da6243433ce735c9e6327aa7fea080267b9c1a6943f1d14fe7dd8",
          "blockNumber": "0x1f6cc69",
          "blockTimestamp": "0x6900f7b2",
          "transactionHash": "0xf5743ac7138e9dc3405d161ab9bf2ca1ec3ca4c11698948b5ca01925d6fced01",
          "transactionIndex": "0xf",
          "logIndex": "0x6d",
          "removed": false
        }
      ],
      "logsBloom": "0x00000000000000000000000400000000000000000000000000000000000000000000000000002000002000000000000000000000000040000000000000000000000000000000000000000000000000000000000000000000000000000000000000000000000000000000000000000000000000000008000000000000000000000000000000000000000000000000000000000000000000000000000000000000000000000001000000000000000000000000000000000000000000000000000000000000000000000000000000000000000000000000000000000000000000000000000000000000000000000000000000000000000000000000000000000000",
      "type": "0x2",
      "transactionHash": "0xf5743ac7138e9dc3405d161ab9bf2ca1ec3ca4c11698948b5ca01925d6fced01",
      "transactionIndex": "0xf",
      "blockHash": "0x60bcde09253da6243433ce735c9e6327aa7fea080267b9c1a6943f1d14fe7dd8",
      "blockNumber": "0x1f6cc69",
      "gasUsed": "0xca03",
      "effectiveGasPrice": "0xf427f",
      "from": "0x7bc9427c8730b87ab3fad10da63f0c4b9e9e0a5f",
      "to": "0xa43532205fc90b286da98389a9883347cc4064a8",
      "contractAddress": null,
      "l1BaseFeeScalar": "0x44d",
      "l1BlobBaseFee": "0x89d",
      "l1BlobBaseFeeScalar": "0xa118b",
      "l1Fee": "0x2df4b",
      "l1GasPrice": "0x5ec5",
      "l1GasUsed": "0x640"
    }
  ],
  "libraries": [],
  "pending": [],
  "returns": {},
  "timestamp": 1761671092620,
  "chain": 84532,
  "commit": "1a2b5e4"
}