{
  "transactions": [
    {
      "hash": "0x2e720402cb3661f98d229b284d34a7e18face63cf623654e08c07c9a26519757",
      "transactionType": "CALL",
      "contractName": null,
      "contractAddress": "0xa43ebb099aa98bdf4d2e3c0172cafd600e113249",
      "function": "updatePricing(uint256,uint256,uint256,uint256)",
      "arguments": [
        "200000000000000",
        "2000000000000000",
        "4000000000000000",
        "1000000000000000"
      ],
      "transaction": {
        "from": "0x7bc9427c8730b87ab3fad10da63f0c4b9e9e0a5f",
        "to": "0xa43ebb099aa98bdf4d2e3c0172cafd600e113249",
        "gas": "0xfaff",
        "value": "0x0",
        "input": "0x75fd52890000000000000000000000000000000000000000000000000000b5e620f4800000000000000000000000000000000000000000000000000000071afd498d0000000000000000000000000000000000000000000000000000000e35fa931a000000000000000000000000000000000000000000000000000000038d7ea4c68000",
        "nonce": "0xf",
        "chainId": "0x2b03"
      },
      "additionalContracts": [],
      "isFixedGasLimit": false
    },
    {
      "hash": "0x942a9980d1c2889e3dbdff887830dd55adc1aac2f5045326c47f8a45e8a97183",
      "transactionType": "CALL",
      "contractName": null,
      "contractAddress": "0xa43ebb099aa98bdf4d2e3c0172cafd600e113249",
      "function": "updateAging(uint256,uint256,uint256)",
      "arguments": [
        "3888000",
        "3888000",
        "10368000"
      ],
      "transaction": {
        "from": "0x7bc9427c8730b87ab3fad10da63f0c4b9e9e0a5f",
        "to": "0xa43ebb099aa98bdf4d2e3c0172cafd600e113249",
        "gas": "0xead6",
        "value": "0x0",
        "input": "0x9a093e0c00000000000000000000000000000000000000000000000000000000003b538000000000000000000000000000000000000000000000000000000000003b538000000000000000000000000000000000000000000000000000000000009e3400",
        "nonce": "0x10",
        "chainId": "0x2b03"
      },
      "additionalContracts": [],
      "isFixedGasLimit": false
    },
    {
      "hash": "0xad72b33da24f8ba55ba617d71712a5cd33af841d5310c869198082504f299c62",
      "transactionType": "CALL",
      "contractName": null,
      "contractAddress": "0xa43ebb099aa98bdf4d2e3c0172cafd600e113249",
      "function": "updateRoyalties(uint256,address)",
      "arguments": [
        "500",
        "0x1234567890123456789012345678901234567890"
      ],
      "transaction": {
        "from": "0x7bc9427c8730b87ab3fad10da63f0c4b9e9e0a5f",
        "to": "0xa43ebb099aa98bdf4d2e3c0172cafd600e113249",
        "gas": "0xc0b7",
        "value": "0x0",
        "input": "0x5c8565fd00000000000000000000000000000000000000000000000000000000000001f40000000000000000000000001234567890123456789012345678901234567890",
        "nonce": "0x11",
        "chainId": "0x2b03"
      },
      "additionalContracts": [],
      "isFixedGasLimit": false
    },
    {
      "hash": "0x18c21527f10d29a111639f264702c17026995a79d5b92e8c6dfe50edf88250e8",
      "transactionType": "CALL",
      "contractName": null,
      "contractAddress": "0xa43ebb099aa98bdf4d2e3c0172cafd600e113249",
      "function": "pause()",
      "arguments": [],
      "transaction": {
        "from": "0x7bc9427c8730b87ab3fad10da63f0c4b9e9e0a5f",
        "to": "0xa43ebb099aa98bdf4d2e3c0172cafd600e113249",
        "gas": "0xfc30",
        "value": "0x0",
        "input": "0x8456cb59",
        "nonce": "0x12",
        "chainId": "0x2b03"
      },
      "additionalContracts": [],
      "isFixedGasLimit": false
    },
    {
      "hash": "0xb43e354b3f1583f1915684cbbd3b5c2263689422b51c99ef02eab9d314b0f986",
      "transactionType": "CALL",
      "contractName": null,
      "contractAddress": "0xa43ebb099aa98bdf4d2e3c0172cafd600e113249",
      "function": "unpause()",
      "arguments": [],
      "transaction": {
        "from": "0x7bc9427c8730b87ab3fad10da63f0c4b9e9e0a5f",
        "to": "0xa43ebb099aa98bdf4d2e3c0172cafd600e113249",
        "gas": "0x8454",
        "value": "0x0",
        "input": "0x3f4ba83a",
        "nonce": "0x13",
        "chainId": "0x2b03"
      },
      "additionalContracts": [],
      "isFixedGasLimit": false
    },
    {
      "hash": "0xf3fd3aaa516b5c75cea439994bbc7e9bb21f5fe0b8c248ac620ee7e529158150",
      "transactionType": "CALL",
      "contractName": null,
      "contractAddress": "0xa43ebb099aa98bdf4d2e3c0172cafd600e113249",
      "function": "updatePricing(uint256,uint256,uint256,uint256)",
      "arguments": [
        "100000000000000",
        "1110000000000000",
        "2220000000000000",
        "900000000000000"
      ],
      "transaction": {
        "from": "0x7bc9427c8730b87ab3fad10da63f0c4b9e9e0a5f",
        "to": "0xa43ebb099aa98bdf4d2e3c0172cafd600e113249",
        "gas": "0xfb20",
        "value": "0x0",
        "input": "0x75fd528900000000000000000000000000000000000000000000000000005af3107a40000000000000000000000000000000000000000000000000000003f18a03b360000000000000000000000000000000000000000000000000000007e3140766c0000000000000000000000000000000000000000000000000000003328b944c4000",
        "nonce": "0x14",
        "chainId": "0x2b03"
      },
      "additionalContracts": [],
      "isFixedGasLimit": false
    },
    {
      "hash": "0x406309f8e019c0f959cbf061b2fe025f16bb3aea798cebc0ff7a31ed7fe80842",
      "transactionType": "CALL",
      "contractName": null,
      "contractAddress": "0xa43ebb099aa98bdf4d2e3c0172cafd600e113249",
      "function": "updateAging(uint256,uint256,uint256)",
      "arguments": [
        "2592000",
        "2592000",
        "7776000"
      ],
      "transaction": {
        "from": "0x7bc9427c8730b87ab3fad10da63f0c4b9e9e0a5f",
        "to": "0xa43ebb099aa98bdf4d2e3c0172cafd600e113249",
        "gas": "0xeab3",
        "value": "0x0",
        "input": "0x9a093e0c0000000000000000000000000000000000000000000000000000000000278d000000000000000000000000000000000000000000000000000000000000278d00000000000000000000000000000000000000000000000000000000000076a700",
        "nonce": "0x15",
        "chainId": "0x2b03"
      },
      "additionalContracts": [],
      "isFixedGasLimit": false
    },
    {
      "hash": "0xf529b987646760d7632eae5e9f40927efdb0a4dd919ae7e7f0fda5e34c5ce3af",
      "transactionType": "CALL",
      "contractName": null,
      "contractAddress": "0xa43ebb099aa98bdf4d2e3c0172cafd600e113249",
      "function": "updateRoyalties(uint256,address)",
      "arguments": [
        "1000",
        "0x7Bc9427C8730b87Ab3faD10DA63F0C4b9e9E0A5F"
      ],
      "transaction": {
        "from": "0x7bc9427c8730b87ab3fad10da63f0c4b9e9e0a5f",
        "to": "0xa43ebb099aa98bdf4d2e3c0172cafd600e113249",
        "gas": "0xc0b7",
        "value": "0x0",
        "input": "0x5c8565fd00000000000000000000000000000000000000000000000000000000000003e80000000000000000000000007bc9427c8730b87ab3fad10da63f0c4b9e9e0a5f",
        "nonce": "0x16",
        "chainId": "0x2b03"
      },
      "additionalContracts": [],
      "isFixedGasLimit": false
    }
  ],
  "receipts": [
    {
      "status": "0x1",
      "cumulativeGasUsed": "0x160f7",
      "logs": [
        {
          "address": "0xa43ebb099aa98bdf4d2e3c0172cafd600e113249",
          "topics": [
            "0x10391582be13a09a314521d7735c10a4c30864aa5ae7191a62b6d443d723fd38"
          ],
          "data": "0x0000000000000000000000000000000000000000000000000000b5e620f4800000000000000000000000000000000000000000000000000000071afd498d0000000000000000000000000000000000000000000000000000000e35fa931a000000000000000000000000000000000000000000000000000000038d7ea4c68000",
          "blockHash": "0x8a4a0dd99f27342405583329a662db978197dc616d532dbdb0d60c76f11319dc",
          "blockNumber": "0x126d4a7",
          "transactionHash": "0x2e720402cb3661f98d229b284d34a7e18face63cf623654e08c07c9a26519757",
          "transactionIndex": "0x1",
          "logIndex": "0x0",
          "removed": false
        }
      ],
      "logsBloom": "0x00000080000000000000000000000000002000000000000000000000000000800000000000000000000000000000000000000000000000000000000000000000000000000000000000000000000000000000000000000000000000000000000000000000000000000000000000000000000000000000000000000000000000000000000000000040000000040000000000000000000000000000000000000000000000000000000000000000000000000000000000000000000000000000000000000000000800000000000000000000000000000000000000000000000000000000000000000000000000000000000000000000000000000000000000000000",
      "type": "0x2",
      "transactionHash": "0x2e720402cb3661f98d229b284d34a7e18face63cf623654e08c07c9a26519757",
      "transactionIndex": "0x1",
      "blockHash": "0x8a4a0dd99f27342405583329a662db978197dc616d532dbdb0d60c76f11319dc",
      "blockNumber": "0x126d4a7",
      "gasUsed": "0xb5b8",
      "effectiveGasPrice": "0xfd",
      "from": "0x7bc9427c8730b87ab3fad10da63f0c4b9e9e0a5f",
      "to": "0xa43ebb099aa98bdf4d2e3c0172cafd600e113249",
      "contractAddress": null,
      "l1BaseFeeScalar": "0x558",
      "l1BlobBaseFee": "0xa6831f16",
      "l1BlobBaseFeeScalar": "0xc5fc5",
      "l1Fee": "0x34bf4a80e7",
      "l1GasPrice": "0x2965",
      "l1GasUsed": "0x640"
    },
    {
      "status": "0x1",
      "cumulativeGasUsed": "0x2018a",
      "logs": [
        {
          "address": "0xa43ebb099aa98bdf4d2e3c0172cafd600e113249",
          "topics": [
            "0xb96d0ef91b0ebe242df43882ed82dae6a53582ec1de5a60656e91d564bd16a7d"
          ],
          "data": "0x00000000000000000000000000000000000000000000000000000000003b538000000000000000000000000000000000000000000000000000000000003b538000000000000000000000000000000000000000000000000000000000009e3400",
          "blockHash": "0x8a4a0dd99f27342405583329a662db978197dc616d532dbdb0d60c76f11319dc",
          "blockNumber": "0x126d4a7",
          "transactionHash": "0x942a9980d1c2889e3dbdff887830dd55adc1aac2f5045326c47f8a45e8a97183",
          "transactionIndex": "0x2",
          "logIndex": "0x1",
          "removed": false
        }
      ],
      "logsBloom": "0x00000080000000000000000000000000000000000000000000000000000000000000000000000000000000000000000000000000000000000000000000000000000000000000000000000004000000000000000000000000000000000000000000000000000000000000000000000000040000000000000000000000000000000000000000000040000000000000000000000000001000000000000000000000000000000000000000000000000000000000000000000000000000000000000000000000000800000000000000000000000000000000000000000000000000000000000000000000000000000000000000000000000000000000000000000000",
      "type": "0x2",
      "transactionHash": "0x942a9980d1c2889e3dbdff887830dd55adc1aac2f5045326c47f8a45e8a97183",
      "transactionIndex": "0x2",
      "blockHash": "0x8a4a0dd99f27342405583329a662db978197dc616d532dbdb0d60c76f11319dc",
      "blockNumber": "0x126d4a7",
      "gasUsed": "0xa093",
      "effectiveGasPrice": "0xfd",
      "from": "0x7bc9427c8730b87ab3fad10da63f0c4b9e9e0a5f",
      "to": "0xa43ebb099aa98bdf4d2e3c0172cafd600e113249",
      "contractAddress": null,
      "l1BaseFeeScalar": "0x558",
      "l1BlobBaseFee": "0xa6831f16",
      "l1BlobBaseFeeScalar": "0xc5fc5",
      "l1Fee": "0x34bf4a80e7",
      "l1GasPrice": "0x2965",
      "l1GasUsed": "0x640"
    },
    {
      "status": "0x1",
      "cumulativeGasUsed": "0x28d10",
      "logs": [
        {
          "address": "0xa43ebb099aa98bdf4d2e3c0172cafd600e113249",
          "topics": [
            "0x13ceafb5e8ec39102bd452913a5c00a05f3b060d636d3a567c1c80e8b4321fe7"
          ],
          "data": "0x00000000000000000000000000000000000000000000000000000000000001f40000000000000000000000001234567890123456789012345678901234567890",
          "blockHash": "0x8a4a0dd99f27342405583329a662db978197dc616d532dbdb0d60c76f11319dc",
          "blockNumber": "0x126d4a7",
          "transactionHash": "0xad72b33da24f8ba55ba617d71712a5cd33af841d5310c869198082504f299c62",
          "transactionIndex": "0x3",
          "logIndex": "0x2",
          "removed": false
        }
      ],
      "logsBloom": "0x00000080000000000000000000000000000000000000000000000000000000000000000000000000000000000000000000000000000000000000000000000000000000000000000000000000000000000000000000000000000000000000000000000000000000000000000000000000000010000000000000000000000000000000000000000040000000000000000000000000000000000000000000000000000000000000000000000000000000000000000000000000000000000000000000000000800800000000000000000000000000000000000000000000000000000000000000000000000000000100000000000000000000000000000000000000",
      "type": "0x2",
      "transactionHash": "0xad72b33da24f8ba55ba617d71712a5cd33af841d5310c869198082504f299c62",
      "transactionIndex": "0x3",
      "blockHash": "0x8a4a0dd99f27342405583329a662db978197dc616d532dbdb0d60c76f11319dc",
      "blockNumber": "0x126d4a7",
      "gasUsed": "0x8b86",
      "effectiveGasPrice": "0xfd",
      "from": "0x7bc9427c8730b87ab3fad10da63f0c4b9e9e0a5f",
      "to": "0xa43ebb099aa98bdf4d2e3c0172cafd600e113249",
      "contractAddress": null,
      "l1BaseFeeScalar": "0x558",
      "l1BlobBaseFee": "0xa6831f16",
      "l1BlobBaseFeeScalar": "0xc5fc5",
      "l1Fee": "0x34bf4a80e7",
      "l1GasPrice": "0x2965",
      "l1GasUsed": "0x640"
    },
    {
      "status": "0x1",
      "cumulativeGasUsed": "0x343a5",
      "logs": [
        {
          "address": "0xa43ebb099aa98bdf4d2e3c0172cafd600e113249",
          "topics": [
            "0xab35696f06e428ebc5ceba8cd17f8fed287baf43440206d1943af1ee53e6d267"
          ],
          "data": "0x",
          "blockHash": "0x8a4a0dd99f27342405583329a662db978197dc616d532dbdb0d60c76f11319dc",
          "blockNumber": "0x126d4a7",
          "transactionHash": "0x18c21527f10d29a111639f264702c17026995a79d5b92e8c6dfe50edf88250e8",
          "transactionIndex": "0x4",
          "logIndex": "0x3",
          "removed": false
        }
      ],
      "logsBloom": "0x00000080000000000000000000000000000000000000000000000000000000000000000000000000000000000081000000000000000000000000000000000000000000000000000000000000000000000000000000000000000000000000008000000000000000000000000000000000000000000000000000000000000000000000000000000040000000000000000000000000000000000000000000000000000000000000000000000000000000000000000000000000000000000000000000000000000800000000000000000000000000000000000000000000000000000000000000000000000000000000000000000000000000000000000000000000",
      "type": "0x2",
      "transactionHash": "0x18c21527f10d29a111639f264702c17026995a79d5b92e8c6dfe50edf88250e8",
      "transactionIndex": "0x4",
      "blockHash": "0x8a4a0dd99f27342405583329a662db978197dc616d532dbdb0d60c76f11319dc",
      "blockNumber": "0x126d4a7",
      "gasUsed": "0xb695",
      "effectiveGasPrice": "0xfd",
      "from": "0x7bc9427c8730b87ab3fad10da63f0c4b9e9e0a5f",
      "to": "0xa43ebb099aa98bdf4d2e3c0172cafd600e113249",
      "contractAddress": null,
      "l1BaseFeeScalar": "0x558",
      "l1BlobBaseFee": "0xa6831f16",
      "l1BlobBaseFeeScalar": "0xc5fc5",
      "l1Fee": "0x34bf4a80e7",
      "l1GasPrice": "0x2965",
      "l1GasUsed": "0x640"
    },
    {
      "status": "0x1",
      "cumulativeGasUsed": "0x3a374",
      "logs": [
        {
          "address": "0xa43ebb099aa98bdf4d2e3c0172cafd600e113249",
          "topics": [
            "0x0e5e3b3fb504c22cf5c42fa07d521225937514c654007e1f12646f89768d6f94"
          ],
          "data": "0x",
          "blockHash": "0x8a4a0dd99f27342405583329a662db978197dc616d532dbdb0d60c76f11319dc",
          "blockNumber": "0x126d4a7",
          "transactionHash": "0xb43e354b3f1583f1915684cbbd3b5c2263689422b51c99ef02eab9d314b0f986",
          "transactionIndex": "0x5",
          "logIndex": "0x4",
          "removed": false
        }
      ],
      "logsBloom": "0x00000080000000000000000000000000000000000000000000000000000000000000000000000000000000000000000000000000000000000400000000000000000000000000000000000000000000000000000000000000000000000400000000000000000000000000000000000000000000000000000000000000000000000000000000000040000000000000000000000000000000000000000000000000000000000000000000000000000000000000000000000000000000000000000000000000000800000000000000000000000000000000000000000000000000000000000000000000000000000000000000000000000000000000000000004000",
      "type": "0x2",
      "transactionHash": "0xb43e354b3f1583f1915684cbbd3b5c2263689422b51c99ef02eab9d314b0f986",
      "transactionIndex": "0x5",
      "blockHash": "0x8a4a0dd99f27342405583329a662db978197dc616d532dbdb0d60c76f11319dc",
      "blockNumber": "0x126d4a7",
      "gasUsed": "0x5fcf",
      "effectiveGasPrice": "0xfd",
      "from": "0x7bc9427c8730b87ab3fad10da63f0c4b9e9e0a5f",
      "to": "0xa43ebb099aa98bdf4d2e3c0172cafd600e113249",
      "contractAddress": null,
      "l1BaseFeeScalar": "0x558",
      "l1BlobBaseFee": "0xa6831f16",
      "l1BlobBaseFeeScalar": "0xc5fc5",
      "l1Fee": "0x34bf4a80e7",
      "l1GasPrice": "0x2965",
      "l1GasUsed": "0x640"
    },
    {
      "status": "0x1",
      "cumulativeGasUsed": "0x45944",
      "logs": [
        {
          "address": "0xa43ebb099aa98bdf4d2e3c0172cafd600e113249",
          "topics": [
            "0x10391582be13a09a314521d7735c10a4c30864aa5ae7191a62b6d443d723fd38"
          ],
          "data": "0x00000000000000000000000000000000000000000000000000005af3107a40000000000000000000000000000000000000000000000000000003f18a03b360000000000000000000000000000000000000000000000000000007e3140766c0000000000000000000000000000000000000000000000000000003328b944c4000",
          "blockHash": "0x8a4a0dd99f27342405583329a662db978197dc616d532dbdb0d60c76f11319dc",
          "blockNumber": "0x126d4a7",
          "transactionHash": "0xf3fd3aaa516b5c75cea439994bbc7e9bb21f5fe0b8c248ac620ee7e529158150",
          "transactionIndex": "0x6",
          "logIndex": "0x5",
          "removed": false
        }
      ],
      "logsBloom": "0x00000080000000000000000000000000002000000000000000000000000000800000000000000000000000000000000000000000000000000000000000000000000000000000000000000000000000000000000000000000000000000000000000000000000000000000000000000000000000000000000000000000000000000000000000000040000000040000000000000000000000000000000000000000000000000000000000000000000000000000000000000000000000000000000000000000000800000000000000000000000000000000000000000000000000000000000000000000000000000000000000000000000000000000000000000000",
      "type": "0x2",
      "transactionHash": "0xf3fd3aaa516b5c75cea439994bbc7e9bb21f5fe0b8c248ac620ee7e529158150",
      "transactionIndex": "0x6",
      "blockHash": "0x8a4a0dd99f27342405583329a662db978197dc616d532dbdb0d60c76f11319dc",
      "blockNumber": "0x126d4a7",
      "gasUsed": "0xb5d0",
      "effectiveGasPrice": "0xfd",
      "from": "0x7bc9427c8730b87ab3fad10da63f0c4b9e9e0a5f",
      "to": "0xa43ebb099aa98bdf4d2e3c0172cafd600e113249",
      "contractAddress": null,
      "l1BaseFeeScalar": "0x558",
      "l1BlobBaseFee": "0xa6831f16",
      "l1BlobBaseFeeScalar": "0xc5fc5",
      "l1Fee": "0x34bf4a80e7",
      "l1GasPrice": "0x2965",
      "l1GasUsed": "0x640"
    },
    {
      "status": "0x1",
      "cumulativeGasUsed": "0x4f9bf",
      "logs": [
        {
          "address": "0xa43ebb099aa98bdf4d2e3c0172cafd600e113249",
          "topics": [
            "0xb96d0ef91b0ebe242df43882ed82dae6a53582ec1de5a60656e91d564bd16a7d"
          ],
          "data": "0x0000000000000000000000000000000000000000000000000000000000278d000000000000000000000000000000000000000000000000000000000000278d00000000000000000000000000000000000000000000000000000000000076a700",
          "blockHash": "0x8a4a0dd99f27342405583329a662db978197dc616d532dbdb0d60c76f11319dc",
          "blockNumber": "0x126d4a7",
          "transactionHash": "0x406309f8e019c0f959cbf061b2fe025f16bb3aea798cebc0ff7a31ed7fe80842",
          "transactionIndex": "0x7",
          "logIndex": "0x6",
          "removed": false
        }
      ],
      "logsBloom": "0x00000080000000000000000000000000000000000000000000000000000000000000000000000000000000000000000000000000000000000000000000000000000000000000000000000004000000000000000000000000000000000000000000000000000000000000000000000000040000000000000000000000000000000000000000000040000000000000000000000000001000000000000000000000000000000000000000000000000000000000000000000000000000000000000000000000000800000000000000000000000000000000000000000000000000000000000000000000000000000000000000000000000000000000000000000000",
      "type": "0x2",
      "transactionHash": "0x406309f8e019c0f959cbf061b2fe025f16bb3aea798cebc0ff7a31ed7fe80842",
      "transactionIndex": "0x7",
      "blockHash": "0x8a4a0dd99f27342405583329a662db978197dc616d532dbdb0d60c76f11319dc",
      "blockNumber": "0x126d4a7",
      "gasUsed": "0xa07b",
      "effectiveGasPrice": "0xfd",
      "from": "0x7bc9427c8730b87ab3fad10da63f0c4b9e9e0a5f",
      "to": "0xa43ebb099aa98bdf4d2e3c0172cafd600e113249",
      "contractAddress": null,
      "l1BaseFeeScalar": "0x558",
      "l1BlobBaseFee": "0xa6831f16",
      "l1BlobBaseFeeScalar": "0xc5fc5",
      "l1Fee": "0x34bf4a80e7",
      "l1GasPrice": "0x2965",
      "l1GasUsed": "0x640"
    },
    {
      "status": "0x1",
      "cumulativeGasUsed": "0x58545",
      "logs": [
        {
          "address": "0xa43ebb099aa98bdf4d2e3c0172cafd600e113249",
          "topics": [
            "0x13ceafb5e8ec39102bd452913a5c00a05f3b060d636d3a567c1c80e8b4321fe7"
          ],
          "data": "0x00000000000000000000000000000000000000000000000000000000000003e80000000000000000000000007bc9427c8730b87ab3fad10da63f0c4b9e9e0a5f",
          "blockHash": "0x8a4a0dd99f27342405583329a662db978197dc616d532dbdb0d60c76f11319dc",
          "blockNumber": "0x126d4a7",
          "transactionHash": "0xf529b987646760d7632eae5e9f40927efdb0a4dd919ae7e7f0fda5e34c5ce3af",
          "transactionIndex": "0x8",
          "logIndex": "0x7",
          "removed": false
        }
      ],
      "logsBloom": "0x00000080000000000000000000000000000000000000000000000000000000000000000000000000000000000000000000000000000000000000000000000000000000000000000000000000000000000000000000000000000000000000000000000000000000000000000000000000000010000000000000000000000000000000000000000040000000000000000000000000000000000000000000000000000000000000000000000000000000000000000000000000000000000000000000000000800800000000000000000000000000000000000000000000000000000000000000000000000000000100000000000000000000000000000000000000",
      "type": "0x2",
      "transactionHash": "0xf529b987646760d7632eae5e9f40927efdb0a4dd919ae7e7f0fda5e34c5ce3af",
      "transactionIndex": "0x8",
      "blockHash": "0x8a4a0dd99f27342405583329a662db978197dc616d532dbdb0d60c76f11319dc",
      "blockNumber": "0x126d4a7",
      "gasUsed": "0x8b86",
      "effectiveGasPrice": "0xfd",
      "from": "0x7bc9427c8730b87ab3fad10da63f0c4b9e9e0a5f",
      "to": "0xa43ebb099aa98bdf4d2e3c0172cafd600e113249",
      "contractAddress": null,
      "l1BaseFeeScalar": "0x558",
      "l1BlobBaseFee": "0xa6831f16",
      "l1BlobBaseFeeScalar": "0xc5fc5",
      "l1Fee": "0x34bf4a80e7",
      "l1GasPrice": "0x2965",
      "l1GasUsed": "0x640"
    }
  ],
  "libraries": [],
  "pending": [],
  "returns": {},
  "timestamp": 1757580207262,
  "chain": 11011,
  "commit": "fee17fa"
}