{
  "transactions": [
    {
      "hash": "0xc5fd68afe34139ed4fc601062e162848de9abc910dbf5c2fbd1e3753e67d2460",
      "transactionType": "CALL",
      "contractName": null,
      "contractAddress": "0x71705fa2abe61f400f36a6092453a961ffbebe8f",
      "function": "setERC721Metadata(string,string)",
      "arguments": [
        "OnchainRugs",
        "RUGS"
      ],
      "transaction": {
        "from": "0x7bc9427c8730b87ab3fad10da63f0c4b9e9e0a5f",
        "to": "0x71705fa2abe61f400f36a6092453a961ffbebe8f",
        "gas": "0x1aa5e",
        "value": "0x0",
        "input": "0x455394ca00000000000000000000000000000000000000000000000000000000000000400000000000000000000000000000000000000000000000000000000000000080000000000000000000000000000000000000000000000000000000000000000b4f6e636861696e5275677300000000000000000000000000000000000000000000000000000000000000000000000000000000000000000000000000000000045255475300000000000000000000000000000000000000000000000000000000",
        "nonce": "0xa99",
        "chainId": "0x2b03"
      },
      "additionalContracts": [],
      "isFixedGasLimit": false
    }
  ],
  "receipts": [
    {
      "status": "0x1",
      "cumulativeGasUsed": "0x1ce8c",
      "logs": [],
      "logsBloom": "0x00000000000000000000000000000000000000000000000000000000000000000000000000000000000000000000000000000000000000000000000000000000000000000000000000000000000000000000000000000000000000000000000000000000000000000000000000000000000000000000000000000000000000000000000000000000000000000000000000000000000000000000000000000000000000000000000000000000000000000000000000000000000000000000000000000000000000000000000000000000000000000000000000000000000000000000000000000000000000000000000000000000000000000000000000000000",
      "type": "0x2",
      "transactionHash": "0xc5fd68afe34139ed4fc601062e162848de9abc910dbf5c2fbd1e3753e67d2460",
      "transactionIndex": "0x1",
      "blockHash": "0x745ca6f1143f58a2c639e39bdd2f6e4d22c0cd7581eaa9130ccc72d1be4107fa",
      "blockNumber": "0x145bbd1",
      "gasUsed": "0x12389",
      "effectiveGasPrice": "0xfd",
      "from": "0x7bc9427c8730b87ab3fad10da63f0c4b9e9e0a5f",
      "to": "0x71705fa2abe61f400f36a6092453a961ffbebe8f",
      "contractAddress": null,
      "l1BaseFeeScalar": "0x558",
      "l1BlobBaseFee": "0x1",
      "l1BlobBaseFeeScalar": "0xc5fc5",
      "l1Fee": "0x6b",
      "l1GasPrice": "0xc",
      "l1GasUsed": "0x640"
    }
  ],
  "libraries": [],
  "pending": [],
  "returns": {},
  "timestamp": 1761630722176,
  "chain": 11011,
  "commit": "01bbb41"
}