{
  "transactions": [
    {
      "hash": "0xc1764ec8c7425ff68a32f16f45c531ca3e90878df23a995d00b230758601ecf1",
      "transactionType": "CALL",
      "contractName": null,
      "contractAddress": "0x3d6670ac0a881dcc742c17d687f5dfe05af81cff",
      "function": "diamondCut((address,uint8,bytes4[])[],address,bytes)",
      "arguments": [
        "[(0x07fe1BeD8701CF67A84Fc8e5ce4A27a2BD839eaa, 0, [0x97474b4b])]",
        "0x0000000000000000000000000000000000000000",
        "0x"
      ],
      "transaction": {
        "from": "0x7bc9427c8730b87ab3fad10da63f0c4b9e9e0a5f",
        "to": "0x3d6670ac0a881dcc742c17d687f5dfe05af81cff",
        "gas": "0x17f05",
        "value": "0x0",
        "input": "0x1f931c1c0000000000000000000000000000000000000000000000000000000000000060000000000000000000000000000000000000000000000000000000000000000000000000000000000000000000000000000000000000000000000000000001400000000000000000000000000000000000000000000000000000000000000001000000000000000000000000000000000000000000000000000000000000002000000000000000000000000007fe1bed8701cf67a84fc8e5ce4a27a2bd839eaa00000000000000000000000000000000000000000000000000000000000000000000000000000000000000000000000000000000000000000000000000000060000000000000000000000000000000000000000000000000000000000000000197474b4b000000000000000000000000000000000000000000000000000000000000000000000000000000000000000000000000000000000000000000000000",
        "nonce": "0x346",
        "chainId": "0x14a34"
      },
      "additionalContracts": [],
      "isFixedGasLimit": false
    }
  ],
  "receipts": [
    {
      "status": "0x1",
      "cumulativeGasUsed": "0x93015",
      "logs": [
        {
          "address": "0x3d6670ac0a881dcc742c17d687f5dfe05af81cff",
          "topics": [
            "0x8faa70878671ccd212d20771b795c50af8fd3ff6cf27f4bde57e5d4de0aeb673"
          ],
          "data": "0x0000000000000000000000000000000000000000000000000000000000000060000000000000000000000000000000000000000000000000000000000000000000000000000000000000000000000000000000000000000000000000000001400000000000000000000000000000000000000000000000000000000000000001000000000000000000000000000000000000000000000000000000000000002000000000000000000000000007fe1bed8701cf67a84fc8e5ce4a27a2bd839eaa00000000000000000000000000000000000000000000000000000000000000000000000000000000000000000000000000000000000000000000000000000060000000000000000000000000000000000000000000000000000000000000000197474b4b000000000000000000000000000000000000000000000000000000000000000000000000000000000000000000000000000000000000000000000000",
          "blockHash": "0xce912fc6b074124e3a69bec16dc7b60f0000e94869ce962985c9877cee314305",
          "blockNumber": "0x2302a55",
          "blockTimestamp": "0x6973b38a",
          "transactionHash": "0xc1764ec8c7425ff68a32f16f45c531ca3e90878df23a995d00b230758601ecf1",
          "transactionIndex": "0x4",
          "logIndex": "0x12",
          "removed": false
        }
      ],
      "logsBloom": "0x00000000000000000000000000000000000000000000000000000000000000000000000000000000000000000000000000000000000000000000000000000000000000000000000000000000000000000000000001000000000800000000000000000000000000000000000000000000000040000000000000000000000000000020000000000000000000000000000000000000000000000000000000000000000000000000000000000000000000000000000000000000000000000000000010000000040000000000000000000000000000000000000000000000000000000000000000000000000000000000000000000000000000000000000000000000",
      "type": "0x2",
      "transactionHash": "0xc1764ec8c7425ff68a32f16f45c531ca3e90878df23a995d00b230758601ecf1",
      "transactionIndex": "0x4",
      "blockHash": "0xce912fc6b074124e3a69bec16dc7b60f0000e94869ce962985c9877cee314305",
      "blockNumber": "0x2302a55",
      "gasUsed": "0x1154e",
      "effectiveGasPrice": "0x124f80",
      "blobGasUsed": "0x9240",
      "from": "0x7bc9427c8730b87ab3fad10da63f0c4b9e9e0a5f",
      "to": "0x3d6670ac0a881dcc742c17d687f5dfe05af81cff",
      "contractAddress": null,
      "daFootprintGasScalar": "0x138",
      "l1BaseFeeScalar": "0x44d",
      "l1BlobBaseFee": "0x3b1bcf4",
      "l1BlobBaseFeeScalar": "0xa118b",
      "l1Fee": "0x168f55cb8",
      "l1GasPrice": "0x42866473",
      "l1GasUsed": "0x788"
    }
  ],
  "libraries": [],
  "pending": [],
  "returns": {},
  "timestamp": 1769190281384,
  "chain": 84532,
  "commit": "7d45f5e"
}