{
  "transactions": [
    {
      "hash": "0x9101fc21524da4ac00915112d292e64827df6575bf769209755575e6dcd43bfc",
      "transactionType": "CALL",
      "contractName": null,
      "contractAddress": "0x0627da3ff590e92ca249ce600548c25cf6efeb1f",
      "function": "mintRug(string[],uint256,(uint8,uint256),(string,string,string,string),uint8,uint256)",
      "arguments": [
        "[HELLO, WORLD]",
        "12345",
        "(3, 5)",
        "(TestPalette, palette_data, stripe_data, char_map)",
        "4",
        "10"
      ],
      "transaction": {
        "from": "0x7bc9427c8730b87ab3fad10da63f0c4b9e9e0a5f",
        "to": "0x0627da3ff590e92ca249ce600548c25cf6efeb1f",
        "gas": "0xbde5a",
        "value": "0x1b48eb57e000",
        "input": "0x91af315500000000000000000000000000000000000000000000000000000000000000e000000000000000000000000000000000000000000000000000000000000030390000000000000000000000000000000000000000000000000000000000000003000000000000000000000000000000000000000000000000000000000000000500000000000000000000000000000000000000000000000000000000000001c00000000000000000000000000000000000000000000000000000000000000004000000000000000000000000000000000000000000000000000000000000000a000000000000000000000000000000000000000000000000000000000000000200000000000000000000000000000000000000000000000000000000000000400000000000000000000000000000000000000000000000000000000000000080000000000000000000000000000000000000000000000000000000000000000548454c4c4f0000000000000000000000000000000000000000000000000000000000000000000000000000000000000000000000000000000000000000000005574f524c44000000000000000000000000000000000000000000000000000000000000000000000000000000000000000000000000000000000000000000008000000000000000000000000000000000000000000000000000000000000000c000000000000000000000000000000000000000000000000000000000000001000000000000000000000000000000000000000000000000000000000000000140000000000000000000000000000000000000000000000000000000000000000b5465737450616c65747465000000000000000000000000000000000000000000000000000000000000000000000000000000000000000000000000000000000c70616c657474655f646174610000000000000000000000000000000000000000000000000000000000000000000000000000000000000000000000000000000b7374726970655f646174610000000000000000000000000000000000000000000000000000000000000000000000000000000000000000000000000000000008636861725f6d6170000000000000000000000000000000000000000000000000",
        "nonce": "0x87b",
        "chainId": "0x2b03"
      },
      "additionalContracts": [],
      "isFixedGasLimit": false
    }
  ],
  "receipts": [
    {
      "status": "0x1",
      "cumulativeGasUsed": "0x8c891",
      "logs": [
        {
          "address": "0x0627da3ff590e92ca249ce600548c25cf6efeb1f",
          "topics": [
            "0xddf252ad1be2c89b69c2b068fc378daa952ba7f163c4a11628f55a4df523b3ef",
            "0x0000000000000000000000000000000000000000000000000000000000000000",
            "0x0000000000000000000000007bc9427c8730b87ab3fad10da63f0c4b9e9e0a5f",
            "0x0000000000000000000000000000000000000000000000000000000000000001"
          ],
          "data": "0x",
          "blockHash": "0x4fae667694fd45c7c25c7d216c110ebb62ac6d10a909e951628d7e394a3de9b6",
          "blockNumber": "0x13d6088",
          "blockTimestamp": "0x68efa370",
          "transactionHash": "0x9101fc21524da4ac00915112d292e64827df6575bf769209755575e6dcd43bfc",
          "transactionIndex": "0x1",
          "logIndex": "0x0",
          "removed": false
        },
        {
          "address": "0x0627da3ff590e92ca249ce600548c25cf6efeb1f",
          "topics": [
            "0x3180a95ebb1c45d97d28fabb74799fba191bba22c5303030187343603c821c9f",
            "0x0000000000000000000000000000000000000000000000000000000000000001",
            "0x0000000000000000000000007bc9427c8730b87ab3fad10da63f0c4b9e9e0a5f"
          ],
          "data": "0x00000000000000000000000000000000000000000000000000000000000000400000000000000000000000000000000000000000000000000000000000003039000000000000000000000000000000000000000000000000000000000000000200000000000000000000000000000000000000000000000000000000000000400000000000000000000000000000000000000000000000000000000000000080000000000000000000000000000000000000000000000000000000000000000548454c4c4f0000000000000000000000000000000000000000000000000000000000000000000000000000000000000000000000000000000000000000000005574f524c44000000000000000000000000000000000000000000000000000000",
          "blockHash": "0x4fae667694fd45c7c25c7d216c110ebb62ac6d10a909e951628d7e394a3de9b6",
          "blockNumber": "0x13d6088",
          "blockTimestamp": "0x68efa370",
          "transactionHash": "0x9101fc21524da4ac00915112d292e64827df6575bf769209755575e6dcd43bfc",
          "transactionIndex": "0x1",
          "logIndex": "0x1",
          "removed": false
        }
      ],
      "logsBloom": "0x00000000000020000000000000000000000000000000000000000000000000000000000000000000080000000000000000000000000000000000000000040000000000000000000000000008000000000001000000040000000002000000200002000000020000000000000000000800000000000000000000000010000000000000000100000000000000000000000000000000000000000000000000000000000000000000000000000000000000000000000000000000000000000000000000000002000000000000000000000000000000000000000000000000000060000000000000000000000000000800004000000000000000000000000000000000",
      "type": "0x2",
      "transactionHash": "0x9101fc21524da4ac00915112d292e64827df6575bf769209755575e6dcd43bfc",
      "transactionIndex": "0x1",
      "blockHash": "0x4fae667694fd45c7c25c7d216c110ebb62ac6d10a909e951628d7e394a3de9b6",
      "blockNumber": "0x13d6088",
      "gasUsed": "0x81d82",
      "effectiveGasPrice": "0xfd",
      "from": "0x7bc9427c8730b87ab3fad10da63f0c4b9e9e0a5f",
      "to": "0x0627da3ff590e92ca249ce600548c25cf6efeb1f",
      "contractAddress": null,
      "l1BaseFeeScalar": "0x558",
      "l1BlobBaseFee": "0x1",
      "l1BlobBaseFeeScalar": "0xc5fc5",
      "l1Fee": "0xd4",
      "l1GasPrice": "0x9",
      "l1GasUsed": "0xd2d"
    }
  ],
  "libraries": [],
  "pending": [],
  "returns": {},
  "timestamp": 1760535408657,
  "chain": 11011,
  "commit": "b387602"
}