{
  "transactions": [
    {
      "hash": "0x33a9e2bb3b39fd3548e2cceae24867f50f119af38417f80fc2a74d23580b9722",
      "transactionType": "CREATE",
      "contractName": "RugAdminFacet",
      "contractAddress": "0x86c9b29d64c03cd92e802f35a4a0247307fac8db",
      "function": null,
      "arguments": null,
      "transaction": {
        "from": "0x7bc9427c8730b87ab3fad10da63f0c4b9e9e0a5f",
        "gas": "0x1c7241",
        "value": "0x0",
        "input": "0x60808060405234610016576118f1908161001b8239f35b5f80fdfe604060808152600480361015610013575f80fd5b5f3560e01c806301778fc514611370578063020372811461134f57806304122aa4146112dc57806312ac7b10146112605780632a2bb13c1461121c578063455394ca14610ea25780634653cf9014610cda57806348b72f6a14610bdc5780634f7fbdde14610b335780635cdf76f814610adb5780637bf4abe614610a335780637e01f35b14610959578063c135cc5c146108ec578063c3f909d414610886578063d3a057c81461083a578063d5a6861e1461075f578063db2308bd146106f7578063e74b981b14610642578063eceb538814610515578063f16cb6ba1461037b5763f9e8b79c14610102575f80fd5b346103775760c0366003190112610377573660c41161037757610123611578565b5f8051602061177c8339815191528054913591828103610332575b50505f8051602061161c833981519152805460243592508281036102ec575b50505f8051602061165c833981519152805460443592508281036102a6575b50505f805160206117dc83398151915280546064359250828103610260575b50505f8051602061173c8339815191528054608435925082810361021a575b5050505f805160206117fc833981519152805460a435928382036101da57005b5f8051602061181c83398151915291848260a093519260608452600a6060850152696c696e6550726963653560b01b60808501526020840152820152a155005b60a05f8051602061181c8339815191529185519060608252600a6060830152691b1a5b99541c9a58d94d60b21b608083015260208201528486820152a1555f80806101ba565b60a05f8051602061181c8339815191529185519060608252600a6060830152696c696e6550726963653360b01b608083015260208201528486820152a1555f808061019b565b60a05f8051602061181c8339815191529185519060608252600a6060830152693634b732a83934b1b29960b11b608083015260208201528486820152a1555f808061017c565b60a05f8051602061181c8339815191529185519060608252600a6060830152696c696e6550726963653160b01b608083015260208201528486820152a1555f808061015d565b60a05f8051602061181c8339815191529185519060608252600960608301526862617365507269636560b81b608083015260208201528486820152a1555f808061013e565b5f80fd5b503461037757606036600319011261037757610395611410565b906024356001600160a01b0381811692918390036103775760443593818516809503610377576103c3611578565b169384156104d957821561049e5783156104625750507f8f5a116301edd1975711ce935db3e1e526451b44bc48b78da001755c263a68b880546001600160a01b031990811690941790557f8f5a116301edd1975711ce935db3e1e526451b44bc48b78da001755c263a68b98054841690911790557f8f5a116301edd1975711ce935db3e1e526451b44bc48b78da001755c263a68ba8054909216179055005b906020606492519162461bcd60e51b8352820152601660248201527524b73b30b634b210242a26a61033b2b732b930ba37b960511b6044820152fd5b906020606492519162461bcd60e51b83528201526015602482015274496e76616c69642045746846532073746f7261676560581b6044820152fd5b906020606492519162461bcd60e51b8352820152601660248201527524b73b30b634b21029b1b934b83a3ca13ab4b63232b960511b6044820152fd5b50346103775760203660031901126103775761052f611410565b90610538611578565b6001600160a01b03918216915f5b5f8051602061175c833981519152805490818310156106405783918661056b85611453565b949054600395861b1c161461058557505050600101610546565b91949093925f199283810190811161062d57906105b5856105a86105d394611453565b9054908a1b1c1691611453565b90919060018060a01b038084549260031b9316831b921b1916179055565b835490811561061a575001926105e884611453565b81939154921b1b19169055557fa62e9879a770645f925998eef22768903e34a55f063f5d3b23677d12dc94ab575f80a2005b603190634e487b7160e01b5f525260245ffd5b601183634e487b7160e01b5f525260245ffd5b005b50346103775760203660031901126103775761065c611410565b90610665611578565b6001600160a01b039182169283156106c05750505f8051602061185c83398151915280546001600160a01b031981168417909155167faaebcf1bfa00580e41d966056b48521fa9f202645c86d4ddf28113e617c1b1d35f80a3005b906020606492519162461bcd60e51b83528201526011602482015270125b9d985b1a59081c9958da5c1a595b9d607a1b6044820152fd5b8234610377575f366003190112610377576080905f8051602061163c83398151915254905f8051602061183c83398151915254905f805160206117bc83398151915254905f8051602061167c8339815191525492815194855260208501528301526060820152f35b509034610377575f366003190112610377578051805f8051602061175c83398151915292835480835260208093019081955f52835f20905f5b8582821061081d5750505050839003601f01601f19168301946001600160401b0386118487101761080a57508481528185529151818501819052849392840192915f5b8281106107ea57505050500390f35b83516001600160a01b0316855286955093810193928101926001016107db565b604190634e487b7160e01b5f525260245ffd5b83546001600160a01b031685529093019260019283019201610798565b8234610377575f366003190112610377576020905f8051602061171c833981519152541515908161086e575b519015158152f35b5f805160206115fc8339815191525415159150610866565b8234610377575f3660031901126103775760809060ff5f8051602061171c83398151915254915f805160206115fc83398151915254905f8051602061179c83398151915254918151948552602085015282821615159084015260081c1615156060820152f35b5034610377576020366003190112610377573590811515809203610377577f280dc579522a38eb8785f2f885bb5db4dc1b021b81783484c837592e027557fe91602091610937611578565b5f8051602061179c83398151915260ff1981541660ff841617905551908152a1005b503461037757608036600319011261037757366084116103775761097b611578565b357f8f5a116301edd1975711ce935db3e1e526451b44bc48b78da001755c263a68ca556024357f8f5a116301edd1975711ce935db3e1e526451b44bc48b78da001755c263a68cb556044357f8f5a116301edd1975711ce935db3e1e526451b44bc48b78da001755c263a68cc556064357f8f5a116301edd1975711ce935db3e1e526451b44bc48b78da001755c263a68cd557fded6be5fa89020ff6d4b79ba45ae1933e4ed5bb7db99022a4f14cc039dc5112e5f80a1005b509034610377576020366003190112610377578135610a50611578565b6127108111610a9d577ff4f950196dd4d99d6d92f3490a40c0e537d25771a011b2ce4958092c8c5466df92505f8051602061171c83398151915290808254925582519182526020820152a1005b815162461bcd60e51b8152602081850152601860248201527704361702063616e6e6f74206578636565642031302c3030360441b6044820152606490fd5b5034610377576020366003190112610377577fcb6d7cd9a715c819bc5a96c171f645b81d4d65b57cfe7d6b5e8a12f78022995d916020913590610b1c611578565b815f8051602061187c8339815191525551908152a1005b509034610377576020366003190112610377578135610b50611578565b8015610b9a577fc9aa851a9e693d868d2f64d4eda0e3480830af4a05b796fcbf27f8e8b58c18bc92505f805160206115fc83398151915290808254925582519182526020820152a1005b815162461bcd60e51b8152602081850152601c60248201527b04c696d6974206d7573742062652067726561746572207468616e20360241b6044820152606490fd5b5034610377575f3660031901126103775781516001600160401b03929060a0810184811182821017610cc757825260a0903690375f8051602061177c833981519152549281519260a08401918483109083111761080a575081525f8051602061161c8339815191525482525f8051602061165c833981519152549060209160208401525f805160206117dc83398151915254818401525f8051602061173c8339815191525460608401525f805160206117fc83398151915254608084015251928352602083015f905b60058210610cb25760c085f35b82806001928651815201940191019092610ca5565b604184634e487b7160e01b5f525260245ffd5b5034610377576080366003190112610377573660841161037757610cfc611578565b5f8051602061163c8339815191528054913591828103610e5a575b50505f8051602061183c83398151915280546024359250828103610e0f575b50505f805160206117bc83398151915280546044359250828103610dbe575b5050505f8051602061167c833981519152805460643592838203610d7557005b5f8051602061181c83398151915291848260a09351926060845260136060850152721b185d5b99195c9a5b99d51a1c995cda1bdb19606a1b60808501526020840152820152a155005b60a05f8051602061181c833981519152918551906060825260156060830152741b585cdd195c94995cdd1bdc985d1a5bdb90dbdcdd605a1b608083015260208201528486820152a1555f8080610d55565b60a05f8051602061181c8339815191529185519060608252600f60608301526e1c995cdd1bdc985d1a5bdb90dbdcdd608a1b608083015260208201528486820152a1555f8080610d36565b60a05f8051602061181c8339815191529185519060608252600c60608301526b18db19585b9a5b99d0dbdcdd60a21b608083015260208201528486820152a1555f8080610d17565b50346103775781600319360112610377576001600160401b0390803582811161037757610ed29036908301611426565b929093602494853583811161037757610eee9036908601611426565b949092610ef9611578565b86156111e35785156111a857508386116110c2577f0f993fbd7cbe1650ef54bb59ebb4578ae409c16fa9286dc63c53ecf083c70c0b938454946001978887811c971694851561119e575b6020958689101461118c578190601f9889811161113e575b505f908983116001146110df575f926110d4575b50505f19600383901b1c191690891b1790555b85116110c2577f0f993fbd7cbe1650ef54bb59ebb4578ae409c16fa9286dc63c53ecf083c70c0c968754918783811c931680156110b8575b848410146110a7575050838111611064575b505f92841160011461100557509282939183925f94610ffa575b50501b915f199060031b1c19161790555f80f35b013592505f80610fe6565b9183601f198116875f52845f20945f905b8883831061104a5750505010611031575b505050811b019055005b01355f19600384901b60f8161c191690555f8080611027565b868601358855909601959384019387935090810190611016565b865f52815f208480870160051c82019284881061109e575b0160051c019086905b828110611093575050610fcc565b5f8155018690611085565b9250819261107c565b602290634e487b7160e01b5f52525ffd5b92607f1692610fba565b60418791634e487b7160e01b5f52525ffd5b013590505f80610f6f565b8b9350601f19831691855f52885f20925f5b8a828210611128575050841161110f575b505050811b019055610f82565b01355f19600384901b60f8161c191690555f8080611102565b8385013586558f979095019492830192016110f1565b909150835f52865f208980850160051c820192898610611183575b918d91869594930160051c01915b828110611175575050610f5b565b5f81558594508d9101611167565b92508192611159565b8a602286634e487b7160e01b5f52525ffd5b96607f1696610f43565b906016886020606494519362461bcd60e51b85528401528201527553796d626f6c2063616e6e6f7420626520656d70747960501b6044820152fd5b906014886020606494519362461bcd60e51b8552840152820152734e616d652063616e6e6f7420626520656d70747960601b6044820152fd5b8234610377575f366003190112610377575f8051602061187c833981519152545f8051602061185c8339815191525482519182526001600160a01b03166020820152f35b8234610377575f3660031901126103775760a0905f8051602061169c83398151915254905f8051602061189c83398151915254905f805160206116bc833981519152545f805160206116fc83398151915254915f805160206116dc83398151915254938151958652602086015284015260608301526080820152f35b5034610377576020366003190112610377573590811515809203610377577f81fa903ba9d0e035f1b5c01a0d477c6af509eaf8a6436cc07c40ca8ca922fbaf91602091611327611578565b5f8051602061179c833981519152805461ff001916600884901b61ff001617905551908152a1005b346103775760203660031901126103775761064061136b611410565b61148a565b50346103775760a0366003190112610377573660a41161037757611392611578565b355f8051602061169c833981519152556024355f8051602061189c833981519152556044355f805160206116bc833981519152556064355f805160206116fc833981519152556084355f805160206116dc833981519152557f9766aa1854a184e3548baef2e807f178908a14c8ce5557f84bbae7e8b7b188105f80a1005b600435906001600160a01b038216820361037757565b9181601f84011215610377578235916001600160401b038311610377576020838186019501011161037757565b5f8051602061175c8339815191528054821015611476575f5260205f2001905f90565b634e487b7160e01b5f52603260045260245ffd5b611492611578565b6001600160a01b03818116918215611541575f8051602061175c8339815191528054925f5b848110611519575050600160401b83101561150557826105b59160016114df95019055611453565b7fae4a7f93fe3c7f72f7dc327c4a8dc32aa858c74e337aa8d5b9679c8608e1c0185f80a2565b634e487b7160e01b5f52604160045260245ffd5b858261152483611453565b90549060031b1c1614611539576001016114b7565b505050505050565b60405162461bcd60e51b815260206004820152600f60248201526e496e76616c6964206164647265737360881b6044820152606490fd5b7fc8fcad8db84d3cc18b4c41d551ea0ee66dd599cde068d998e57d5e09332c1320546001600160a01b031633036115ab57565b60405162461bcd60e51b815260206004820152602260248201527f4c69624469616d6f6e643a204d75737420626520636f6e7472616374206f776e60448201526132b960f11b6064820152608490fdfe8f5a116301edd1975711ce935db3e1e526451b44bc48b78da001755c263a68b48f5a116301edd1975711ce935db3e1e526451b44bc48b78da001755c263a68bc8f5a116301edd1975711ce935db3e1e526451b44bc48b78da001755c263a68c68f5a116301edd1975711ce935db3e1e526451b44bc48b78da001755c263a68bd8f5a116301edd1975711ce935db3e1e526451b44bc48b78da001755c263a68c98f5a116301edd1975711ce935db3e1e526451b44bc48b78da001755c263a68c18f5a116301edd1975711ce935db3e1e526451b44bc48b78da001755c263a68c38f5a116301edd1975711ce935db3e1e526451b44bc48b78da001755c263a68c58f5a116301edd1975711ce935db3e1e526451b44bc48b78da001755c263a68c48f5a116301edd1975711ce935db3e1e526451b44bc48b78da001755c263a68b38f5a116301edd1975711ce935db3e1e526451b44bc48b78da001755c263a68bf8f5a116301edd1975711ce935db3e1e526451b44bc48b78da001755c263a68b78f5a116301edd1975711ce935db3e1e526451b44bc48b78da001755c263a68bb8f5a116301edd1975711ce935db3e1e526451b44bc48b78da001755c263a68b68f5a116301edd1975711ce935db3e1e526451b44bc48b78da001755c263a68c88f5a116301edd1975711ce935db3e1e526451b44bc48b78da001755c263a68be8f5a116301edd1975711ce935db3e1e526451b44bc48b78da001755c263a68c0b6899173d39b2c8e29bc496fa4c56e9f1c68456555914f98be5c5da88d84a87b8f5a116301edd1975711ce935db3e1e526451b44bc48b78da001755c263a68c78f5a116301edd1975711ce935db3e1e526451b44bc48b78da001755c263a68d48f5a116301edd1975711ce935db3e1e526451b44bc48b78da001755c263a68d58f5a116301edd1975711ce935db3e1e526451b44bc48b78da001755c263a68c2a264697066735822122034090a0b39a3d3e244c12ff584063a476e942159fb500f70ed3b95ca148cfc3864736f6c63430008160033",
        "nonce": "0xb78",
        "chainId": "0x2b03"
      },
      "additionalContracts": [],
      "isFixedGasLimit": false
    },
    {
      "hash": "0x9630b5e5c41ea67e9d19ac87745519af7a2f979894e69152a40648d19cea06b9",
      "transactionType": "CALL",
      "contractName": null,
      "contractAddress": "0x5e63d07bda3987da3a0cacd69d829b9e11c1f325",
      "function": "diamondCut((address,uint8,bytes4[])[],address,bytes)",
      "arguments": [
        "[(0x0000000000000000000000000000000000000000, 2, [0xc996ccd6, 0xa8e8232c])]",
        "0x0000000000000000000000000000000000000000",
        "0x"
      ],
      "transaction": {
        "from": "0x7bc9427c8730b87ab3fad10da63f0c4b9e9e0a5f",
        "to": "0x5e63d07bda3987da3a0cacd69d829b9e11c1f325",
        "gas": "0x14f10",
        "value": "0x0",
        "input": "0x1f931c1c000000000000000000000000000000000000000000000000000000000000006000000000000000000000000000000000000000000000000000000000000000000000000000000000000000000000000000000000000000000000000000000160000000000000000000000000000000000000000000000000000000000000000100000000000000000000000000000000000000000000000000000000000000200000000000000000000000000000000000000000000000000000000000000000000000000000000000000000000000000000000000000000000000000000000200000000000000000000000000000000000000000000000000000000000000600000000000000000000000000000000000000000000000000000000000000002c996ccd600000000000000000000000000000000000000000000000000000000a8e8232c000000000000000000000000000000000000000000000000000000000000000000000000000000000000000000000000000000000000000000000000",
        "nonce": "0xb79",
        "chainId": "0x2b03"
      },
      "additionalContracts": [],
      "isFixedGasLimit": false
    },
    {
      "hash": "0x1246a9f014e9ea38125bdbdc21e75efd091397bbd41ebbc5a035ab833f35aebb",
      "transactionType": "CALL",
      "contractName": null,
      "contractAddress": "0x5e63d07bda3987da3a0cacd69d829b9e11c1f325",
      "function": "diamondCut((address,uint8,bytes4[])[],address,bytes)",
      "arguments": [
        "[(0x86c9b29D64c03cD92E802F35a4a0247307fAc8db, 0, [0x5cdf76f8, 0x2a2bb13c])]",
        "0x0000000000000000000000000000000000000000",
        "0x"
      ],
      "transaction": {
        "from": "0x7bc9427c8730b87ab3fad10da63f0c4b9e9e0a5f",
        "to": "0x5e63d07bda3987da3a0cacd69d829b9e11c1f325",
        "gas": "0x4125c",
        "value": "0x0",
        "input": "0x1f931c1c0000000000000000000000000000000000000000000000000000000000000060000000000000000000000000000000000000000000000000000000000000000000000000000000000000000000000000000000000000000000000000000001600000000000000000000000000000000000000000000000000000000000000001000000000000000000000000000000000000000000000000000000000000002000000000000000000000000086c9b29d64c03cd92e802f35a4a0247307fac8db0000000000000000000000000000000000000000000000000000000000000000000000000000000000000000000000000000000000000000000000000000006000000000000000000000000000000000000000000000000000000000000000025cdf76f8000000000000000000000000000000000000000000000000000000002a2bb13c000000000000000000000000000000000000000000000000000000000000000000000000000000000000000000000000000000000000000000000000",
        "nonce": "0xb7a",
        "chainId": "0x2b03"
      },
      "additionalContracts": [],
      "isFixedGasLimit": false
    },
    {
      "hash": "0xfd8a9813efb09ec8a0cec84f5a26a70f4486cdf4eea8c320e13a8050688d02e4",
      "transactionType": "CALL",
      "contractName": null,
      "contractAddress": "0x5e63d07bda3987da3a0cacd69d829b9e11c1f325",
      "function": "setServiceFee(uint256)",
      "arguments": [
        "420000000000000"
      ],
      "transaction": {
        "from": "0x7bc9427c8730b87ab3fad10da63f0c4b9e9e0a5f",
        "to": "0x5e63d07bda3987da3a0cacd69d829b9e11c1f325",
        "gas": "0xbb92",
        "value": "0x0",
        "input": "0x5cdf76f800000000000000000000000000000000000000000000000000017dfcdece4000",
        "nonce": "0xb7b",
        "chainId": "0x2b03"
      },
      "additionalContracts": [],
      "isFixedGasLimit": false
    }
  ],
  "receipts": [
    {
      "status": "0x1",
      "cumulativeGasUsed": "0x168ccb",
      "logs": [],
      "logsBloom": "0x00000000000000000000000000000000000000000000000000000000000000000000000000000000000000000000000000000000000000000000000000000000000000000000000000000000000000000000000000000000000000000000000000000000000000000000000000000000000000000000000000000000000000000000000000000000000000000000000000000000000000000000000000000000000000000000000000000000000000000000000000000000000000000000000000000000000000000000000000000000000000000000000000000000000000000000000000000000000000000000000000000000000000000000000000000000",
      "type": "0x2",
      "transactionHash": "0x33a9e2bb3b39fd3548e2cceae24867f50f119af38417f80fc2a74d23580b9722",
      "transactionIndex": "0x1",
      "blockHash": "0x58c3796ee17fe40c2bbee8902f4a0d14de61e92a372f0ee07d5ea9234333d0f4",
      "blockNumber": "0x14be5f6",
      "gasUsed": "0x15e1bc",
      "effectiveGasPrice": "0xfd",
      "from": "0x7bc9427c8730b87ab3fad10da63f0c4b9e9e0a5f",
      "to": null,
      "contractAddress": "0x86c9b29d64c03cd92e802f35a4a0247307fac8db",
      "l1BaseFeeScalar": "0x558",
      "l1BlobBaseFee": "0x1",
      "l1BlobBaseFeeScalar": "0xc5fc5",
      "l1Fee": "0xd86",
      "l1GasPrice": "0xb",
      "l1GasUsed": "0xcdc8"
    },
    {
      "status": "0x1",
      "cumulativeGasUsed": "0x1771e6",
      "logs": [
        {
          "address": "0x5e63d07bda3987da3a0cacd69d829b9e11c1f325",
          "topics": [
            "0x8faa70878671ccd212d20771b795c50af8fd3ff6cf27f4bde57e5d4de0aeb673"
          ],
          "data": "0x000000000000000000000000000000000000000000000000000000000000006000000000000000000000000000000000000000000000000000000000000000000000000000000000000000000000000000000000000000000000000000000160000000000000000000000000000000000000000000000000000000000000000100000000000000000000000000000000000000000000000000000000000000200000000000000000000000000000000000000000000000000000000000000000000000000000000000000000000000000000000000000000000000000000000200000000000000000000000000000000000000000000000000000000000000600000000000000000000000000000000000000000000000000000000000000002c996ccd600000000000000000000000000000000000000000000000000000000a8e8232c000000000000000000000000000000000000000000000000000000000000000000000000000000000000000000000000000000000000000000000000",
          "blockHash": "0x58c3796ee17fe40c2bbee8902f4a0d14de61e92a372f0ee07d5ea9234333d0f4",
          "blockNumber": "0x14be5f6",
          "blockTimestamp": "0x690cae4c",
          "transactionHash": "0x9630b5e5c41ea67e9d19ac87745519af7a2f979894e69152a40648d19cea06b9",
          "transactionIndex": "0x2",
          "logIndex": "0x0",
          "removed": false
        }
      ],
      "logsBloom": "0x00000000000000000000000000000000000000000000000000000000000000000000000000000000000000000000000000000000000000000000000000000000000000000000000000000000000000000000000001000000000800000000000000000000000000000000000000000000000000000000000000000000000000000020000000000000000000000800000000000000000000000000000000000000000000001000000000000000000000000000000000000000000000000000000000000000000000000000000000000000000000000000000000000000000000000000000000000000000000000000000000000000000000000000000008000000",
      "type": "0x2",
      "transactionHash": "0x9630b5e5c41ea67e9d19ac87745519af7a2f979894e69152a40648d19cea06b9",
      "transactionIndex": "0x2",
      "blockHash": "0x58c3796ee17fe40c2bbee8902f4a0d14de61e92a372f0ee07d5ea9234333d0f4",
      "blockNumber": "0x14be5f6",
      "gasUsed": "0xe51b",
      "effectiveGasPrice": "0xfd",
      "from": "0x7bc9427c8730b87ab3fad10da63f0c4b9e9e0a5f",
      "to": "0x5e63d07bda3987da3a0cacd69d829b9e11c1f325",
      "contractAddress": null,
      "l1BaseFeeScalar": "0x558",
      "l1BlobBaseFee": "0x1",
      "l1BlobBaseFeeScalar": "0xc5fc5",
      "l1Fee": "0x6f",
      "l1GasPrice": "0xb",
      "l1GasUsed": "0x6a4"
    },
    {
      "status": "0x1",
      "cumulativeGasUsed": "0x1a3aa0",
      "logs": [
        {
          "address": "0x5e63d07bda3987da3a0cacd69d829b9e11c1f325",
          "topics": [
            "0x8faa70878671ccd212d20771b795c50af8fd3ff6cf27f4bde57e5d4de0aeb673"
          ],
          "data": "0x0000000000000000000000000000000000000000000000000000000000000060000000000000000000000000000000000000000000000000000000000000000000000000000000000000000000000000000000000000000000000000000001600000000000000000000000000000000000000000000000000000000000000001000000000000000000000000000000000000000000000000000000000000002000000000000000000000000086c9b29d64c03cd92e802f35a4a0247307fac8db0000000000000000000000000000000000000000000000000000000000000000000000000000000000000000000000000000000000000000000000000000006000000000000000000000000000000000000000000000000000000000000000025cdf76f8000000000000000000000000000000000000000000000000000000002a2bb13c000000000000000000000000000000000000000000000000000000000000000000000000000000000000000000000000000000000000000000000000",
          "blockHash": "0x58c3796ee17fe40c2bbee8902f4a0d14de61e92a372f0ee07d5ea9234333d0f4",
          "blockNumber": "0x14be5f6",
          "blockTimestamp": "0x690cae4c",
          "transactionHash": "0x1246a9f014e9ea38125bdbdc21e75efd091397bbd41ebbc5a035ab833f35aebb",
          "transactionIndex": "0x3",
          "logIndex": "0x1",
          "removed": false
        }
      ],
      "logsBloom": "0x00000000000000000000000000000000000000000000000000000000000000000000000000000000000000000000000000000000000000000000000000000000000000000000000000000000000000000000000001000000000800000000000000000000000000000000000000000000000000000000000000000000000000000020000000000000000000000800000000000000000000000000000000000000000000001000000000000000000000000000000000000000000000000000000000000000000000000000000000000000000000000000000000000000000000000000000000000000000000000000000000000000000000000000000008000000",
      "type": "0x2",
      "transactionHash": "0x1246a9f014e9ea38125bdbdc21e75efd091397bbd41ebbc5a035ab833f35aebb",
      "transactionIndex": "0x3",
      "blockHash": "0x58c3796ee17fe40c2bbee8902f4a0d14de61e92a372f0ee07d5ea9234333d0f4",
      "blockNumber": "0x14be5f6",
      "gasUsed": "0x2c8ba",
      "effectiveGasPrice": "0xfd",
      "from": "0x7bc9427c8730b87ab3fad10da63f0c4b9e9e0a5f",
      "to": "0x5e63d07bda3987da3a0cacd69d829b9e11c1f325",
      "contractAddress": null,
      "l1BaseFeeScalar": "0x558",
      "l1BlobBaseFee": "0x1",
      "l1BlobBaseFeeScalar": "0xc5fc5",
      "l1Fee": "0x80",
      "l1GasPrice": "0xb",
      "l1GasUsed": "0x7a3"
    },
    {
      "status": "0x1",
      "cumulativeGasUsed": "0x1ac26d",
      "logs": [
        {
          "address": "0x5e63d07bda3987da3a0cacd69d829b9e11c1f325",
          "topics": [
            "0xcb6d7cd9a715c819bc5a96c171f645b81d4d65b57cfe7d6b5e8a12f78022995d"
          ],
          "data": "0x00000000000000000000000000000000000000000000000000017dfcdece4000",
          "blockHash": "0x58c3796ee17fe40c2bbee8902f4a0d14de61e92a372f0ee07d5ea9234333d0f4",
          "blockNumber": "0x14be5f6",
          "blockTimestamp": "0x690cae4c",
          "transactionHash": "0xfd8a9813efb09ec8a0cec84f5a26a70f4486cdf4eea8c320e13a8050688d02e4",
          "transactionIndex": "0x4",
          "logIndex": "0x2",
          "removed": false
        }
      ],
      "logsBloom": "0x00000000000000000000000000000000000000000000000000000000000000000000000000000000000000000000000000000000000000000000000000000000000000000001000000000000000000000000000000000000000000000000000000000000000000000000000000000000000000000000000000000000000000000000000000000000000000000800000000000000000000000000000000000000000000001000000000000000080000000000000000000000000000000000000000000000000000000000000000000000000000000000000000000000000000000000000000000000000000020000000000000000000000000000000008000000",
      "type": "0x2",
      "transactionHash": "0xfd8a9813efb09ec8a0cec84f5a26a70f4486cdf4eea8c320e13a8050688d02e4",
      "transactionIndex": "0x4",
      "blockHash": "0x58c3796ee17fe40c2bbee8902f4a0d14de61e92a372f0ee07d5ea9234333d0f4",
      "blockNumber": "0x14be5f6",
      "gasUsed": "0x87cd",
      "effectiveGasPrice": "0xfd",
      "from": "0x7bc9427c8730b87ab3fad10da63f0c4b9e9e0a5f",
      "to": "0x5e63d07bda3987da3a0cacd69d829b9e11c1f325",
      "contractAddress": null,
      "l1BaseFeeScalar": "0x558",
      "l1BlobBaseFee": "0x1",
      "l1BlobBaseFeeScalar": "0xc5fc5",
      "l1Fee": "0x69",
      "l1GasPrice": "0xb",
      "l1GasUsed": "0x640"
    }
  ],
  "libraries": [],
  "pending": [],
  "returns": {},
  "timestamp": 1762438733274,
  "chain": 11011,
  "commit": "59ee58f"
}