{
  "transactions": [
    {
      "hash": "0xa25be669b58cad06ac05ff02e16cbeed83cff43e72d93e685caac5cb47fa03d0",
      "transactionType": "CALL",
      "contractName": null,
      "contractAddress": "0x2ab6ad4761307cfaf229c75f6b4a909b73175146",
      "function": "diamondCut((address,uint8,bytes4[])[],address,bytes)",
      "arguments": [
        "[(0x9F9ddE433c7D6a15E16Ec102BDde8F0B97B61212, 0, [0xb3e50020])]",
        "0x0000000000000000000000000000000000000000",
        "0x"
      ],
      "transaction": {
        "from": "0x7bc9427c8730b87ab3fad10da63f0c4b9e9e0a5f",
        "to": "0x2ab6ad4761307cfaf229c75f6b4a909b73175146",
        "gas": "0x1db38",
        "value": "0x0",
        "input": "0x1f931c1c000000000000000000000000000000000000000000000000000000000000006000000000000000000000000000000000000000000000000000000000000000000000000000000000000000000000000000000000000000000000000000000140000000000000000000000000000000000000000000000000000000000000000100000000000000000000000000000000000000000000000000000000000000200000000000000000000000009f9dde433c7d6a15e16ec102bdde8f0b97b61212000000000000000000000000000000000000000000000000000000000000000000000000000000000000000000000000000000000000000000000000000000600000000000000000000000000000000000000000000000000000000000000001b3e50020000000000000000000000000000000000000000000000000000000000000000000000000000000000000000000000000000000000000000000000000",
        "nonce": "0x770",
        "chainId": "0x2b03"
      },
      "additionalContracts": [],
      "isFixedGasLimit": false
    },
    {
      "hash": "0x7ccbfd2a2204faf0776314a605cf73a8f7d684e8963c427deefb001628ce0285",
      "transactionType": "CALL",
      "contractName": null,
      "contractAddress": "0x2ab6ad4761307cfaf229c75f6b4a909b73175146",
      "function": "diamondCut((address,uint8,bytes4[])[],address,bytes)",
      "arguments": [
        "[(0xC14292529775cF995f19Ff874dCF46041C45F22A, 0, [0x65b79c85])]",
        "0x0000000000000000000000000000000000000000",
        "0x"
      ],
      "transaction": {
        "from": "0x7bc9427c8730b87ab3fad10da63f0c4b9e9e0a5f",
        "to": "0x2ab6ad4761307cfaf229c75f6b4a909b73175146",
        "gas": "0x17f05",
        "value": "0x0",
        "input": "0x1f931c1c00000000000000000000000000000000000000000000000000000000000000600000000000000000000000000000000000000000000000000000000000000000000000000000000000000000000000000000000000000000000000000000014000000000000000000000000000000000000000000000000000000000000000010000000000000000000000000000000000000000000000000000000000000020000000000000000000000000c14292529775cf995f19ff874dcf46041c45f22a00000000000000000000000000000000000000000000000000000000000000000000000000000000000000000000000000000000000000000000000000000060000000000000000000000000000000000000000000000000000000000000000165b79c85000000000000000000000000000000000000000000000000000000000000000000000000000000000000000000000000000000000000000000000000",
        "nonce": "0x771",
        "chainId": "0x2b03"
      },
      "additionalContracts": [],
      "isFixedGasLimit": false
    },
    {
      "hash": "0xcb89ada6af3fd2f7645d5afcfb6075656dad3e2da999ad44558241f11fc345f2",
      "transactionType": "CALL",
      "contractName": null,
      "contractAddress": "0x2ab6ad4761307cfaf229c75f6b4a909b73175146",
      "function": "diamondCut((address,uint8,bytes4[])[],address,bytes)",
      "arguments": [
        "[(0x971d7d371aD42C2f880e541ff91a36D6a2772372, 0, [0xe05d541d])]",
        "0x0000000000000000000000000000000000000000",
        "0x"
      ],
      "transaction": {
        "from": "0x7bc9427c8730b87ab3fad10da63f0c4b9e9e0a5f",
        "to": "0x2ab6ad4761307cfaf229c75f6b4a909b73175146",
        "gas": "0x17f05",
        "value": "0x0",
        "input": "0x1f931c1c00000000000000000000000000000000000000000000000000000000000000600000000000000000000000000000000000000000000000000000000000000000000000000000000000000000000000000000000000000000000000000000014000000000000000000000000000000000000000000000000000000000000000010000000000000000000000000000000000000000000000000000000000000020000000000000000000000000971d7d371ad42c2f880e541ff91a36d6a2772372000000000000000000000000000000000000000000000000000000000000000000000000000000000000000000000000000000000000000000000000000000600000000000000000000000000000000000000000000000000000000000000001e05d541d000000000000000000000000000000000000000000000000000000000000000000000000000000000000000000000000000000000000000000000000",
        "nonce": "0x772",
        "chainId": "0x2b03"
      },
      "additionalContracts": [],
      "isFixedGasLimit": false
    }
  ],
  "receipts": [
    {
      "status": "0x1",
      "cumulativeGasUsed": "0x2031d",
      "logs": [
        {
          "address": "0x2ab6ad4761307cfaf229c75f6b4a909b73175146",
          "topics": [
            "0x8faa70878671ccd212d20771b795c50af8fd3ff6cf27f4bde57e5d4de0aeb673"
          ],
          "data": "0x000000000000000000000000000000000000000000000000000000000000006000000000000000000000000000000000000000000000000000000000000000000000000000000000000000000000000000000000000000000000000000000140000000000000000000000000000000000000000000000000000000000000000100000000000000000000000000000000000000000000000000000000000000200000000000000000000000009f9dde433c7d6a15e16ec102bdde8f0b97b61212000000000000000000000000000000000000000000000000000000000000000000000000000000000000000000000000000000000000000000000000000000600000000000000000000000000000000000000000000000000000000000000001b3e50020000000000000000000000000000000000000000000000000000000000000000000000000000000000000000000000000000000000000000000000000",
          "blockHash": "0x364f11965311a790ddfb431aa6db9252c2d34db09858560f43824a3b5a2cbf99",
          "blockNumber": "0x13ce02d",
          "blockTimestamp": "0x68eea2ba",
          "transactionHash": "0xa25be669b58cad06ac05ff02e16cbeed83cff43e72d93e685caac5cb47fa03d0",
          "transactionIndex": "0x1",
          "logIndex": "0x0",
          "removed": false
        }
      ],
      "logsBloom": "0x00000000000000000000000000000000000000000000000000000000000000000000000000000000000000000000000000000000000000000000000000000000000000000000000000000000000000000000000001000000000800000000000000000000000000000000040200000000000000000000000000000000000000000020000000000000000000000000000000000000000000000000000000000000000000000000000000000000000000000000000000000000000000000000000000000000000000000000000000000000000000000000000000000000000000000000000000000000000000000000000000000000800000000000000000000000",
      "type": "0x2",
      "transactionHash": "0xa25be669b58cad06ac05ff02e16cbeed83cff43e72d93e685caac5cb47fa03d0",
      "transactionIndex": "0x1",
      "blockHash": "0x364f11965311a790ddfb431aa6db9252c2d34db09858560f43824a3b5a2cbf99",
      "blockNumber": "0x13ce02d",
      "gasUsed": "0x1580e",
      "effectiveGasPrice": "0xfd",
      "from": "0x7bc9427c8730b87ab3fad10da63f0c4b9e9e0a5f",
      "to": "0x2ab6ad4761307cfaf229c75f6b4a909b73175146",
      "contractAddress": null,
      "l1BaseFeeScalar": "0x558",
      "l1BlobBaseFee": "0x1",
      "l1BlobBaseFeeScalar": "0xc5fc5",
      "l1Fee": "0x73",
      "l1GasPrice": "0x9",
      "l1GasUsed": "0x72a"
    },
    {
      "status": "0x1",
      "cumulativeGasUsed": "0x3186b",
      "logs": [
        {
          "address": "0x2ab6ad4761307cfaf229c75f6b4a909b73175146",
          "topics": [
            "0x8faa70878671ccd212d20771b795c50af8fd3ff6cf27f4bde57e5d4de0aeb673"
          ],
          "data": "0x00000000000000000000000000000000000000000000000000000000000000600000000000000000000000000000000000000000000000000000000000000000000000000000000000000000000000000000000000000000000000000000014000000000000000000000000000000000000000000000000000000000000000010000000000000000000000000000000000000000000000000000000000000020000000000000000000000000c14292529775cf995f19ff874dcf46041c45f22a00000000000000000000000000000000000000000000000000000000000000000000000000000000000000000000000000000000000000000000000000000060000000000000000000000000000000000000000000000000000000000000000165b79c85000000000000000000000000000000000000000000000000000000000000000000000000000000000000000000000000000000000000000000000000",
          "blockHash": "0x364f11965311a790ddfb431aa6db9252c2d34db09858560f43824a3b5a2cbf99",
          "blockNumber": "0x13ce02d",
          "blockTimestamp": "0x68eea2ba",
          "transactionHash": "0x7ccbfd2a2204faf0776314a605cf73a8f7d684e8963c427deefb001628ce0285",
          "transactionIndex": "0x2",
          "logIndex": "0x1",
          "removed": false
        }
      ],
      "logsBloom": "0x00000000000000000000000000000000000000000000000000000000000000000000000000000000000000000000000000000000000000000000000000000000000000000000000000000000000000000000000001000000000800000000000000000000000000000000040200000000000000000000000000000000000000000020000000000000000000000000000000000000000000000000000000000000000000000000000000000000000000000000000000000000000000000000000000000000000000000000000000000000000000000000000000000000000000000000000000000000000000000000000000000000800000000000000000000000",
      "type": "0x2",
      "transactionHash": "0x7ccbfd2a2204faf0776314a605cf73a8f7d684e8963c427deefb001628ce0285",
      "transactionIndex": "0x2",
      "blockHash": "0x364f11965311a790ddfb431aa6db9252c2d34db09858560f43824a3b5a2cbf99",
      "blockNumber": "0x13ce02d",
      "gasUsed": "0x1154e",
      "effectiveGasPrice": "0xfd",
      "from": "0x7bc9427c8730b87ab3fad10da63f0c4b9e9e0a5f",
      "to": "0x2ab6ad4761307cfaf229c75f6b4a909b73175146",
      "contractAddress": null,
      "l1BaseFeeScalar": "0x558",
      "l1BlobBaseFee": "0x1",
      "l1BlobBaseFeeScalar": "0xc5fc5",
      "l1Fee": "0x75",
      "l1GasPrice": "0x9",
      "l1GasUsed": "0x745"
    },
    {
      "status": "0x1",
      "cumulativeGasUsed": "0x42db9",
      "logs": [
        {
          "address": "0x2ab6ad4761307cfaf229c75f6b4a909b73175146",
          "topics": [
            "0x8faa70878671ccd212d20771b795c50af8fd3ff6cf27f4bde57e5d4de0aeb673"
          ],
          "data": "0x00000000000000000000000000000000000000000000000000000000000000600000000000000000000000000000000000000000000000000000000000000000000000000000000000000000000000000000000000000000000000000000014000000000000000000000000000000000000000000000000000000000000000010000000000000000000000000000000000000000000000000000000000000020000000000000000000000000971d7d371ad42c2f880e541ff91a36d6a2772372000000000000000000000000000000000000000000000000000000000000000000000000000000000000000000000000000000000000000000000000000000600000000000000000000000000000000000000000000000000000000000000001e05d541d000000000000000000000000000000000000000000000000000000000000000000000000000000000000000000000000000000000000000000000000",
          "blockHash": "0x364f11965311a790ddfb431aa6db9252c2d34db09858560f43824a3b5a2cbf99",
          "blockNumber": "0x13ce02d",
          "blockTimestamp": "0x68eea2ba",
          "transactionHash": "0xcb89ada6af3fd2f7645d5afcfb6075656dad3e2da999ad44558241f11fc345f2",
          "transactionIndex": "0x3",
          "logIndex": "0x2",
          "removed": false
        }
      ],
      "logsBloom": "0x00000000000000000000000000000000000000000000000000000000000000000000000000000000000000000000000000000000000000000000000000000000000000000000000000000000000000000000000001000000000800000000000000000000000000000000040200000000000000000000000000000000000000000020000000000000000000000000000000000000000000000000000000000000000000000000000000000000000000000000000000000000000000000000000000000000000000000000000000000000000000000000000000000000000000000000000000000000000000000000000000000000800000000000000000000000",
      "type": "0x2",
      "transactionHash": "0xcb89ada6af3fd2f7645d5afcfb6075656dad3e2da999ad44558241f11fc345f2",
      "transactionIndex": "0x3",
      "blockHash": "0x364f11965311a790ddfb431aa6db9252c2d34db09858560f43824a3b5a2cbf99",
      "blockNumber": "0x13ce02d",
      "gasUsed": "0x1154e",
      "effectiveGasPrice": "0xfd",
      "from": "0x7bc9427c8730b87ab3fad10da63f0c4b9e9e0a5f",
      "to": "0x2ab6ad4761307cfaf229c75f6b4a909b73175146",
      "contractAddress": null,
      "l1BaseFeeScalar": "0x558",
      "l1BlobBaseFee": "0x1",
      "l1BlobBaseFeeScalar": "0xc5fc5",
      "l1Fee": "0x75",
      "l1GasPrice": "0x9",
      "l1GasUsed": "0x745"
    }
  ],
  "libraries": [],
  "pending": [],
  "returns": {},
  "timestamp": 1760469690488,
  "chain": 11011,
  "commit": "b387602"
}