{
  "transactions": [
    {
      "hash": null,
      "transactionType": "CALL",
      "contractName": null,
      "contractAddress": "0xb39093648309694438e2c3fdf4a8b952c13df070",
      "function": "updateAgingThresholds(uint256[6])",
      "arguments": [
        "[1, 2, 3, 5, 1, 1]"
      ],
      "transaction": {
        "from": "0x7bc9427c8730b87ab3fad10da63f0c4b9e9e0a5f",
        "to": "0xb39093648309694438e2c3fdf4a8b952c13df070",
        "gas": "0x15a71",
        "value": "0x0",
        "input": "0xf24be880000000000000000000000000000000000000000000000000000000000000000100000000000000000000000000000000000000000000000000000000000000020000000000000000000000000000000000000000000000000000000000000003000000000000000000000000000000000000000000000000000000000000000500000000000000000000000000000000000000000000000000000000000000010000000000000000000000000000000000000000000000000000000000000001",
        "nonce": "0x42d",
        "chainId": "0x2b03"
      },
      "additionalContracts": [],
      "isFixedGasLimit": false
    }
  ],
  "receipts": [],
  "libraries": [],
  "pending": [],
  "returns": {},
  "timestamp": 1759322048411,
  "chain": 11011,
  "commit": "d1f5baa"
}