{
  "transactions": [
    {
      "hash": "0xd7c615c11b6b4e652b812d1307e4dcd2cde3190a9cda965f4f6a86286c1a2474",
      "transactionType": "CALL",
      "contractName": null,
      "contractAddress": "0x892ef7a322c1aeec1325d24daad0c4ea4f941ae5",
      "function": "mintRug(string[],uint256,string,string,string,string,uint8,uint8,uint256,uint256)",
      "arguments": [
        "[TESTNET]",
        "690915066",
        "Minimalist",
        "[{\\\"y\\\":0,\\\"h\\\":56.393899684771895,\\\"pc\\\":\\\"#CCCCCC\\\",\\\"sc\\\":null,\\\"wt\\\":\\\"textured\\\",\\\"wv\\\":0.22104325396940114},{\\\"y\\\":56.393899684771895,\\\"h\\\":51.67406065389514,\\\"pc\\\":\\\"#F5F5F5\\\",\\\"sc\\\":null,\\\"wt\\\":\\\"mixed\\\",\\\"wv\\\":0.3131245376542211},{\\\"y\\\":108.06796033866704,\\\"h\\\":51.546608144417405,\\\"pc\\\":\\\"#CCCCCC\\\",\\\"sc\\\":null,\\\"wt\\\":\\\"solid\\\",\\\"wv\\\":0.31221992345526817},{\\\"y\\\":159.61456848308444,\\\"h\\\":76.25165693461895,\\\"pc\\\":\\\"#666666\\\",\\\"sc\\\":null,\\\"wt\\\":\\\"solid\\\",\\\"wv\\\":0.2919234674423933},{\\\"y\\\":235.8662254177034,\\\"h\\\":80.40717388503253,\\\"pc\\\":\\\"#333333\\\",\\\"sc\\\":null,\\\"wt\\\":\\\"mixed\\\",\\\"wv\\\":0.32633773079141976},{\\\"y\\\":316.2733993027359,\\\"h\\\":60.57727770879865,\\\"pc\\\":\\\"#333333\\\",\\\"sc\\\":null,\\\"wt\\\":\\\"mixed\\\",\\\"wv\\\":0.12729814406484366},{\\\"y\\\":376.8506770115346,\\\"h\\\":63.76767230220139,\\\"pc\\\":\\\"#FFFFFF\\\",\\\"sc\\\":null,\\\"wt\\\":\\\"solid\\\",\\\"wv\\\":0.4518931821919978},{\\\"y\\\":440.61834931373596,\\\"h\\\":79.35153242200613,\\\"pc\\\":\\\"#F5F5F5\\\",\\\"sc\\\":null,\\\"wt\\\":\\\"solid\\\",\\\"wv\\\":0.44769024699926374},{\\\"y\\\":519.9698817357421,\\\"h\\\":50.28136386536062,\\\"pc\\\":\\\"#666666\\\",\\\"sc\\\":null,\\\"wt\\\":\\\"textured\\\",\\\"wv\\\":0.12275641439482571},{\\\"y\\\":570.2512456011027,\\\"h\\\":81.50977363809943,\\\"pc\\\":\\\"#CCCCCC\\\",\\\"sc\\\":null,\\\"wt\\\":\\\"textured\\\",\\\"wv\\\":0.41085940692573786},{\\\"y\\\":651.7610192392021,\\\"h\\\":64.87402529455721,\\\"pc\\\":\\\"#000000\\\",\\\"sc\\\":null,\\\"wt\\\":\\\"solid\\\",\\\"wv\\\":0.38940608846023683},{\\\"y\\\":716.6350445337594,\\\"h\\\":66.38214647769928,\\\"pc\\\":\\\"#999999\\\",\\\"sc\\\":null,\\\"wt\\\":\\\"solid\\\",\\\"wv\\\":0.19279082901775837},{\\\"y\\\":783.0171910114586,\\\"h\\\":84.90979733876884,\\\"pc\\\":\\\"#000000\\\",\\\"sc\\\":null,\\\"wt\\\":\\\"solid\\\",\\\"wv\\\":0.44515085583552716},{\\\"y\\\":867.9269883502275,\\\"h\\\":82.27368200197816,\\\"pc\\\":\\\"#000000\\\",\\\"sc\\\":null,\\\"wt\\\":\\\"textured\\\",\\\"wv\\\":0.30285413693636654},{\\\"y\\\":950.2006703522056,\\\"h\\\":77.67111946828663,\\\"pc\\\":\\\"#000000\\\",\\\"sc\\\":null,\\\"wt\\\":\\\"solid\\\",\\\"wv\\\":0.15621434981003404},{\\\"y\\\":1027.8717898204923,\\\"h\\\":78.50447360426188,\\\"pc\\\":\\\"#CCCCCC\\\",\\\"sc\\\":null,\\\"wt\\\":\\\"solid\\\",\\\"wv\\\":0.17077007815241813},{\\\"y\\\":1106.3762634247541,\\\"h\\\":75.87638429366052,\\\"pc\\\":\\\"#CCCCCC\\\",\\\"sc\\\":null,\\\"wt\\\":\\\"solid\\\",\\\"wv\\\":0.13245128048583865},{\\\"y\\\":1182.2526477184147,\\\"h\\\":17.747352281585336,\\\"pc\\\":\\\"#666666\\\",\\\"sc\\\":null,\\\"wt\\\":\\\"solid\\\",\\\"wv\\\":0.2247698562219739}]",
        "{\\\"name\\\":\\\"Minimalist\\\",\\\"colors\\\":[\\\"#FFFFFF\\\",\\\"#F5F5F5\\\",\\\"#E0E0E0\\\",\\\"#CCCCCC\\\",\\\"#999999\\\",\\\"#666666\\\",\\\"#333333\\\",\\\"#000000\\\"]}",
        "{\\\"F\\\":[\\\"11111\\\",\\\"10000\\\",\\\"11110\\\",\\\"10000\\\",\\\"10000\\\",\\\"10000\\\",\\\"10000\\\"],\\\"I\\\":[\\\"11111\\\",\\\"00100\\\",\\\"00100\\\",\\\"00100\\\",\\\"00100\\\",\\\"00100\\\",\\\"11111\\\"],\\\"X\\\":[\\\"10001\\\",\\\"01010\\\",\\\"00100\\\",\\\"01010\\\",\\\"10001\\\",\\\"10001\\\",\\\"10001\\\"],\\\"E\\\":[\\\"11111\\\",\\\"10000\\\",\\\"10000\\\",\\\"11110\\\",\\\"10000\\\",\\\"10000\\\",\\\"11111\\\"],\\\"D\\\":[\\\"11110\\\",\\\"10001\\\",\\\"10001\\\",\\\"10001\\\",\\\"10001\\\",\\\"10001\\\",\\\"11110\\\"],\\\" \\\":[\\\"00000\\\",\\\"00000\\\",\\\"00000\\\",\\\"00000\\\",\\\"00000\\\",\\\"00000\\\",\\\"00000\\\"]}",
        "3",
        "2",
        "5",
        "19"
      ],
      "transaction": {
        "from": "0x7bc9427c8730b87ab3fad10da63f0c4b9e9e0a5f",
        "to": "0x892ef7a322c1aeec1325d24daad0c4ea4f941ae5",
        "gas": "0x2e2ead",
        "value": "0xe8d4a51000",
        "input": "0x0f495d0c000000000000000000000000000000000000000000000000000000000000014000000000000000000000000000000000000000000000000000000000292e86fa00000000000000000000000000000000000000000000000000000000000001c0000000000000000000000000000000000000000000000000000000000000020000000000000000000000000000000000000000000000000000000000000009e00000000000000000000000000000000000000000000000000000000000000a800000000000000000000000000000000000000000000000000000000000000003000000000000000000000000000000000000000000000000000000000000000200000000000000000000000000000000000000000000000000000000000000050000000000000000000000000000000000000000000000000000000000000013000000000000000000000000000000000000000000000000000000000000000100000000000000000000000000000000000000000000000000000000000000200000000000000000000000000000000000000000000000000000000000000007544553544e455400000000000000000000000000000000000000000000000000000000000000000000000000000000000000000000000000000000000000000a4d696e696d616c6973740000000000000000000000000000000000000000000000000000000000000000000000000000000000000000000000000000000007ad5b7b2279223a302c2268223a35362e3339333839393638343737313839352c227063223a2223434343434343222c227363223a6e756c6c2c227774223a227465787475726564222c227776223a302e32323130343332353339363934303131347d2c7b2279223a35362e3339333839393638343737313839352c2268223a35312e36373430363036353338393531342c227063223a2223463546354635222c227363223a6e756c6c2c227774223a226d69786564222c227776223a302e333133313234353337363534323231317d2c7b2279223a3130382e30363739363033333836363730342c2268223a35312e3534363630383134343431373430352c227063223a2223434343434343222c227363223a6e756c6c2c227774223a22736f6c6964222c227776223a302e33313232313939323334353532363831377d2c7b2279223a3135392e36313435363834383330383434342c2268223a37362e32353136353639333436313839352c227063223a2223363636363636222c227363223a6e756c6c2c227774223a22736f6c6964222c227776223a302e323931393233343637343432333933337d2c7b2279223a3233352e383636323235343137373033342c2268223a38302e34303731373338383530333235332c227063223a2223333333333333222c227363223a6e756c6c2c227774223a226d69786564222c227776223a302e33323633333737333037393134313937367d2c7b2279223a3331362e323733333939333032373335392c2268223a36302e35373732373737303837393836352c227063223a2223333333333333222c227363223a6e756c6c2c227774223a226d69786564222c227776223a302e31323732393831343430363438343336367d2c7b2279223a3337362e383530363737303131353334362c2268223a36332e37363736373233303232303133392c227063223a2223464646464646222c227363223a6e756c6c2c227774223a22736f6c6964222c227776223a302e343531383933313832313931393937387d2c7b2279223a3434302e36313833343933313337333539362c2268223a37392e33353135333234323230303631332c227063223a2223463546354635222c227363223a6e756c6c2c227774223a22736f6c6964222c227776223a302e34343736393032343639393932363337347d2c7b2279223a3531392e393639383831373335373432312c2268223a35302e32383133363338363533363036322c227063223a2223363636363636222c227363223a6e756c6c2c227774223a227465787475726564222c227776223a302e31323237353634313433393438323537317d2c7b2279223a3537302e323531323435363031313032372c2268223a38312e35303937373336333830393934332c227063223a2223434343434343222c227363223a6e756c6c2c227774223a227465787475726564222c227776223a302e34313038353934303639323537333738367d2c7b2279223a3635312e373631303139323339323032312c2268223a36342e38373430323532393435353732312c227063223a2223303030303030222c227363223a6e756c6c2c227774223a22736f6c6964222c227776223a302e33383934303630383834363032333638337d2c7b2279223a3731362e363335303434353333373539342c2268223a36362e33383231343634373736393932382c227063223a2223393939393939222c227363223a6e756c6c2c227774223a22736f6c6964222c227776223a302e31393237393038323930313737353833377d2c7b2279223a3738332e303137313931303131343538362c2268223a38342e39303937393733333837363838342c227063223a2223303030303030222c227363223a6e756c6c2c227774223a22736f6c6964222c227776223a302e34343531353038353538333535323731367d2c7b2279223a3836372e393236393838333530323237352c2268223a38322e32373336383230303139373831362c227063223a2223303030303030222c227363223a6e756c6c2c227774223a227465787475726564222c227776223a302e33303238353431333639333633363635347d2c7b2279223a3935302e323030363730333532323035362c2268223a37372e36373131313934363832383636332c227063223a2223303030303030222c227363223a6e756c6c2c227774223a22736f6c6964222c227776223a302e31353632313433343938313030333430347d2c7b2279223a313032372e383731373839383230343932332c2268223a37382e35303434373336303432363138382c227063223a2223434343434343222c227363223a6e756c6c2c227774223a22736f6c6964222c227776223a302e31373037373030373831353234313831337d2c7b2279223a313130362e333736323633343234373534312c2268223a37352e38373633383432393336363035322c227063223a2223434343434343222c227363223a6e756c6c2c227774223a22736f6c6964222c227776223a302e31333234353132383034383538333836357d2c7b2279223a313138322e323532363437373138343134372c2268223a31372e3734373335323238313538353333362c227063223a2223363636363636222c227363223a6e756c6c2c227774223a22736f6c6964222c227776223a302e323234373639383536323231393733397d5d0000000000000000000000000000000000000000000000000000000000000000000000000000000000000000000000000000707b226e616d65223a224d696e696d616c697374222c22636f6c6f7273223a5b2223464646464646222c2223463546354635222c2223453045304530222c2223434343434343222c2223393939393939222c2223363636363636222c2223333333333333222c2223303030303030225d7d0000000000000000000000000000000000000000000000000000000000000000000000000000000000000000000001757b2246223a5b223131313131222c223130303030222c223131313130222c223130303030222c223130303030222c223130303030222c223130303030225d2c2249223a5b223131313131222c223030313030222c223030313030222c223030313030222c223030313030222c223030313030222c223131313131225d2c2258223a5b223130303031222c223031303130222c223030313030222c223031303130222c223130303031222c223130303031222c223130303031225d2c2245223a5b223131313131222c223130303030222c223130303030222c223131313130222c223130303030222c223130303030222c223131313131225d2c2244223a5b223131313130222c223130303031222c223130303031222c223130303031222c223130303031222c223130303031222c223131313130225d2c2220223a5b223030303030222c223030303030222c223030303030222c223030303030222c223030303030222c223030303030222c223030303030225d7d0000000000000000000000",
        "nonce": "0x70",
        "chainId": "0x2b03"
      },
      "additionalContracts": [],
      "isFixedGasLimit": false
    }
  ],
  "receipts": [
    {
      "status": "0x1",
      "cumulativeGasUsed": "0x226ca3",
      "logs": [
        {
          "address": "0x892ef7a322c1aeec1325d24daad0c4ea4f941ae5",
          "topics": [
            "0xddf252ad1be2c89b69c2b068fc378daa952ba7f163c4a11628f55a4df523b3ef",
            "0x0000000000000000000000000000000000000000000000000000000000000000",
            "0x0000000000000000000000007bc9427c8730b87ab3fad10da63f0c4b9e9e0a5f",
            "0x0000000000000000000000000000000000000000000000000000000000000001"
          ],
          "data": "0x",
          "blockHash": "0xfcc41d66cedb39a5039a53731544f968b20b2b7cee4d9f4b7ca85b906f4a0dde",
          "blockNumber": "0x12a9022",
          "transactionHash": "0xd7c615c11b6b4e652b812d1307e4dcd2cde3190a9cda965f4f6a86286c1a2474",
          "transactionIndex": "0x2",
          "logIndex": "0x0",
          "removed": false
        },
        {
          "address": "0x892ef7a322c1aeec1325d24daad0c4ea4f941ae5",
          "topics": [
            "0x3180a95ebb1c45d97d28fabb74799fba191bba22c5303030187343603c821c9f",
            "0x0000000000000000000000000000000000000000000000000000000000000001",
            "0x0000000000000000000000007bc9427c8730b87ab3fad10da63f0c4b9e9e0a5f"
          ],
          "data": "0x000000000000000000000000000000000000000000000000000000000000004000000000000000000000000000000000000000000000000000000000292e86fa000000000000000000000000000000000000000000000000000000000000000100000000000000000000000000000000000000000000000000000000000000200000000000000000000000000000000000000000000000000000000000000007544553544e455400000000000000000000000000000000000000000000000000",
          "blockHash": "0xfcc41d66cedb39a5039a53731544f968b20b2b7cee4d9f4b7ca85b906f4a0dde",
          "blockNumber": "0x12a9022",
          "transactionHash": "0xd7c615c11b6b4e652b812d1307e4dcd2cde3190a9cda965f4f6a86286c1a2474",
          "transactionIndex": "0x2",
          "logIndex": "0x1",
          "removed": false
        }
      ],
      "logsBloom": "0x00000000000000000000000000000000000000000000000000000000000000000000000000000000080000000000000000000000000000000000000000040000000000000000000000000008000000000001000000040000000002000000000002000000020000000000000000000800000000000000000000000010000000000000000100000000000000000000000000000000000000000000000000000000000000000004000000000000000000000000000000000000000000000000000000000002000000000002000000000000000010000000000000000000000060000000000000000000000000000000004000000000000000000000000000000000",
      "type": "0x2",
      "transactionHash": "0xd7c615c11b6b4e652b812d1307e4dcd2cde3190a9cda965f4f6a86286c1a2474",
      "transactionIndex": "0x2",
      "blockHash": "0xfcc41d66cedb39a5039a53731544f968b20b2b7cee4d9f4b7ca85b906f4a0dde",
      "blockNumber": "0x12a9022",
      "gasUsed": "0x216f68",
      "effectiveGasPrice": "0xfd",
      "from": "0x7bc9427c8730b87ab3fad10da63f0c4b9e9e0a5f",
      "to": "0x892ef7a322c1aeec1325d24daad0c4ea4f941ae5",
      "contractAddress": null,
      "l1BaseFeeScalar": "0x558",
      "l1BlobBaseFee": "0xb41d35f3",
      "l1BlobBaseFeeScalar": "0xc5fc5",
      "l1Fee": "0x2e7a2a52829",
      "l1GasPrice": "0x19be",
      "l1GasUsed": "0x5175"
    }
  ],
  "libraries": [],
  "pending": [],
  "returns": {},
  "timestamp": 1758069413225,
  "chain": 11011,
  "commit": "0864ec4"
}