{
  "transactions": [
    {
      "hash": "0xc0a48501e001a108e21c374648836cdf42db11fd6def2fedc095d7885751e901",
      "transactionType": "CALL",
      "contractName": null,
      "contractAddress": "0x2ab6ad4761307cfaf229c75f6b4a909b73175146",
      "function": "setScriptyContracts(address,address,address)",
      "arguments": [
        "0xeB7Ef4a24a6972dDb3CaFBA3e0E899935eE3ccF6",
        "0xB40F968c837C3097ba498B0dA70ec1A509a441Be",
        "0x67950cC17cB9a0080b16A0243A4eCa1cC80861B4"
      ],
      "transaction": {
        "from": "0x7bc9427c8730b87ab3fad10da63f0c4b9e9e0a5f",
        "to": "0x2ab6ad4761307cfaf229c75f6b4a909b73175146",
        "gas": "0xf320",
        "value": "0x0",
        "input": "0xf16cb6ba000000000000000000000000eb7ef4a24a6972ddb3cafba3e0e899935ee3ccf6000000000000000000000000b40f968c837c3097ba498b0da70ec1a509a441be00000000000000000000000067950cc17cb9a0080b16a0243a4eca1cc80861b4",
        "nonce": "0x768",
        "chainId": "0x2b03"
      },
      "additionalContracts": [],
      "isFixedGasLimit": false
    }
  ],
  "receipts": [
    {
      "status": "0x1",
      "cumulativeGasUsed": "0x15b14",
      "logs": [],
      "logsBloom": "0x00000000000000000000000000000000000000000000000000000000000000000000000000000000000000000000000000000000000000000000000000000000000000000000000000000000000000000000000000000000000000000000000000000000000000000000000000000000000000000000000000000000000000000000000000000000000000000000000000000000000000000000000000000000000000000000000000000000000000000000000000000000000000000000000000000000000000000000000000000000000000000000000000000000000000000000000000000000000000000000000000000000000000000000000000000000",
      "type": "0x2",
      "transactionHash": "0xc0a48501e001a108e21c374648836cdf42db11fd6def2fedc095d7885751e901",
      "transactionIndex": "0x1",
      "blockHash": "0x07cd01a255fe62432da0df8a587d301914d0973726978be6dda620b415003464",
      "blockNumber": "0x13cdaf7",
      "gasUsed": "0xb005",
      "effectiveGasPrice": "0xfd",
      "from": "0x7bc9427c8730b87ab3fad10da63f0c4b9e9e0a5f",
      "to": "0x2ab6ad4761307cfaf229c75f6b4a909b73175146",
      "contractAddress": null,
      "l1BaseFeeScalar": "0x558",
      "l1BlobBaseFee": "0x1",
      "l1BlobBaseFeeScalar": "0xc5fc5",
      "l1Fee": "0x74",
      "l1GasPrice": "0x8",
      "l1GasUsed": "0x760"
    }
  ],
  "libraries": [],
  "pending": [],
  "returns": {},
  "timestamp": 1760467022828,
  "chain": 11011,
  "commit": "b387602"
}