{
  "transactions": [
    {
      "hash": "0xa72083f44e7be8bdf09bffd49ec2e69f92cd7df838e0d4688a4e2132b044e87a",
      "transactionType": "CALL",
      "contractName": null,
      "contractAddress": "0x3d6670ac0a881dcc742c17d687f5dfe05af81cff",
      "function": "diamondCut((address,uint8,bytes4[])[],address,bytes)",
      "arguments": [
        "[(0xC59f679B309D8E5b843bcDE2d87a17855Fd2f095, 0, [0xa53bb4e4, 0x92c40344, 0xd4917c75, 0xc3c5a547])]",
        "0x0000000000000000000000000000000000000000",
        "0x"
      ],
      "transaction": {
        "from": "0x7bc9427c8730b87ab3fad10da63f0c4b9e9e0a5f",
        "to": "0x3d6670ac0a881dcc742c17d687f5dfe05af81cff",
        "gas": "0x3b9c9",
        "value": "0x0",
        "input": "0x1f931c1c0000000000000000000000000000000000000000000000000000000000000060000000000000000000000000000000000000000000000000000000000000000000000000000000000000000000000000000000000000000000000000000001a000000000000000000000000000000000000000000000000000000000000000010000000000000000000000000000000000000000000000000000000000000020000000000000000000000000c59f679b309d8e5b843bcde2d87a17855fd2f095000000000000000000000000000000000000000000000000000000000000000000000000000000000000000000000000000000000000000000000000000000600000000000000000000000000000000000000000000000000000000000000004a53bb4e40000000000000000000000000000000000000000000000000000000092c4034400000000000000000000000000000000000000000000000000000000d4917c7500000000000000000000000000000000000000000000000000000000c3c5a547000000000000000000000000000000000000000000000000000000000000000000000000000000000000000000000000000000000000000000000000",
        "nonce": "0x326",
        "chainId": "0x14a34"
      },
      "additionalContracts": [],
      "isFixedGasLimit": false
    }
  ],
  "receipts": [
    {
      "status": "0x1",
      "cumulativeGasUsed": "0xdaffc",
      "logs": [
        {
          "address": "0x3d6670ac0a881dcc742c17d687f5dfe05af81cff",
          "topics": [
            "0x8faa70878671ccd212d20771b795c50af8fd3ff6cf27f4bde57e5d4de0aeb673"
          ],
          "data": "0x0000000000000000000000000000000000000000000000000000000000000060000000000000000000000000000000000000000000000000000000000000000000000000000000000000000000000000000000000000000000000000000001a000000000000000000000000000000000000000000000000000000000000000010000000000000000000000000000000000000000000000000000000000000020000000000000000000000000c59f679b309d8e5b843bcde2d87a17855fd2f095000000000000000000000000000000000000000000000000000000000000000000000000000000000000000000000000000000000000000000000000000000600000000000000000000000000000000000000000000000000000000000000004a53bb4e40000000000000000000000000000000000000000000000000000000092c4034400000000000000000000000000000000000000000000000000000000d4917c7500000000000000000000000000000000000000000000000000000000c3c5a547000000000000000000000000000000000000000000000000000000000000000000000000000000000000000000000000000000000000000000000000",
          "blockHash": "0x698745cd6873afb92085d83900721d03d2dbba07e3fc3fca0d036a18757ff577",
          "blockNumber": "0x22e01ed",
          "blockTimestamp": "0x696f62ba",
          "transactionHash": "0xa72083f44e7be8bdf09bffd49ec2e69f92cd7df838e0d4688a4e2132b044e87a",
          "transactionIndex": "0x9",
          "logIndex": "0xb",
          "removed": false
        }
      ],
      "logsBloom": "0x00000000000000000000000000000000000000000000000000000000000000000000000000000000000000000000000000000000000000000000000000000000000000000000000000000000000000000000000001000000000800000000000000000000000000000000000000000000000040000000000000000000000000000020000000000000000000000000000000000000000000000000000000000000000000000000000000000000000000000000000000000000000000000000000010000000040000000000000000000000000000000000000000000000000000000000000000000000000000000000000000000000000000000000000000000000",
      "type": "0x2",
      "transactionHash": "0xa72083f44e7be8bdf09bffd49ec2e69f92cd7df838e0d4688a4e2132b044e87a",
      "transactionIndex": "0x9",
      "blockHash": "0x698745cd6873afb92085d83900721d03d2dbba07e3fc3fca0d036a18757ff577",
      "blockNumber": "0x22e01ed",
      "gasUsed": "0x28c2a",
      "effectiveGasPrice": "0x124f80",
      "blobGasUsed": "0xaaa0",
      "from": "0x7bc9427c8730b87ab3fad10da63f0c4b9e9e0a5f",
      "to": "0x3d6670ac0a881dcc742c17d687f5dfe05af81cff",
      "contractAddress": null,
      "daFootprintGasScalar": "0x138",
      "l1BaseFeeScalar": "0x44d",
      "l1BlobBaseFee": "0x2491b6cf",
      "l1BlobBaseFeeScalar": "0xa118b",
      "l1Fee": "0xd420566ff",
      "l1GasPrice": "0x22ce12c2b",
      "l1GasUsed": "0x8c9"
    }
  ],
  "libraries": [],
  "pending": [],
  "returns": {},
  "timestamp": 1768907448880,
  "chain": 84532,
  "commit": "76ddd88"
}