{
  "transactions": [
    {
      "hash": "0xfa0b41655cfff4414054e83742dcaf9c81f99628b3a3f9750f847e591ccefb23",
      "transactionType": "CALL",
      "contractName": null,
      "contractAddress": "0xe68e28d6450b909738c4980eecddd973273f38f2",
      "function": "mintWithText(string[],uint256,string,string,string,uint256,bool,uint8,bool,uint8)",
      "arguments": [
        "[Hello, World]",
        "12345",
        "{\\\"colors\\\":[\\\"#FF0000\\\",\\\"#00FF00\\\",\\\"#0000FF\\\"]}",
        "[{\\\"y\\\":0,\\\"height\\\":100,\\\"primaryColor\\\":\\\"#FF0000\\\",\\\"secondaryColor\\\":\\\"#00FF00\\\",\\\"weaveType\\\":\\\"mixed\\\"}]",
        "{\\\"H\\\":[[1,1,1],[1,0,1],[1,1,1]],\\\"e\\\":[[1,1,1],[1,0,0],[1,1,1]],\\\"l\\\":[[1,0,0],[1,0,0],[1,1,1]],\\\"o\\\":[[1,1,1],[1,0,1],[1,1,1]],\\\"W\\\":[[1,0,1],[1,0,1],[1,1,1]],\\\"r\\\":[[1,1,1],[1,0,0],[1,0,0]],\\\"d\\\":[[1,1,1],[1,0,1],[1,1,1]]}",
        "2",
        "false",
        "0",
        "false",
        "0"
      ],
      "transaction": {
        "from": "0x7bc9427c8730b87ab3fad10da63f0c4b9e9e0a5f",
        "to": "0xe68e28d6450b909738c4980eecddd973273f38f2",
        "gas": "0xd6e4d",
        "value": "0x44c7d142da000",
        "input": "0xe2dde7ed0000000000000000000000000000000000000000000000000000000000000140000000000000000000000000000000000000000000000000000000000000303900000000000000000000000000000000000000000000000000000000000002200000000000000000000000000000000000000000000000000000000000000280000000000000000000000000000000000000000000000000000000000000030000000000000000000000000000000000000000000000000000000000000000020000000000000000000000000000000000000000000000000000000000000000000000000000000000000000000000000000000000000000000000000000000000000000000000000000000000000000000000000000000000000000000000000000000000000000000000000000000000000000000000000000000000000000000000000000000000000000000000000000000000000000000000000000000200000000000000000000000000000000000000000000000000000000000000400000000000000000000000000000000000000000000000000000000000000080000000000000000000000000000000000000000000000000000000000000000548656c6c6f0000000000000000000000000000000000000000000000000000000000000000000000000000000000000000000000000000000000000000000005576f726c64000000000000000000000000000000000000000000000000000000000000000000000000000000000000000000000000000000000000000000002a7b22636f6c6f7273223a5b2223464630303030222c2223303046463030222c2223303030304646225d7d00000000000000000000000000000000000000000000000000000000000000000000000000000000000000000000000000000000005e5b7b2279223a302c22686569676874223a3130302c227072696d617279436f6c6f72223a2223464630303030222c227365636f6e64617279436f6c6f72223a2223303046463030222c22776561766554797065223a226d69786564227d5d000000000000000000000000000000000000000000000000000000000000000000d37b2248223a5b5b312c312c315d2c5b312c302c315d2c5b312c312c315d5d2c2265223a5b5b312c312c315d2c5b312c302c305d2c5b312c312c315d5d2c226c223a5b5b312c302c305d2c5b312c302c305d2c5b312c312c315d5d2c226f223a5b5b312c312c315d2c5b312c302c315d2c5b312c312c315d5d2c2257223a5b5b312c302c315d2c5b312c302c315d2c5b312c312c315d5d2c2272223a5b5b312c312c315d2c5b312c302c305d2c5b312c302c305d5d2c2264223a5b5b312c312c315d2c5b312c302c315d2c5b312c312c315d5d7d00000000000000000000000000",
        "nonce": "0xc",
        "chainId": "0x2b03"
      },
      "additionalContracts": [],
      "isFixedGasLimit": false
    }
  ],
  "receipts": [
    {
      "status": "0x1",
      "cumulativeGasUsed": "0xa9044",
      "logs": [
        {
          "address": "0xe68e28d6450b909738c4980eecddd973273f38f2",
          "topics": [
            "0x0b7c78052b656c8aae78f28b965ff644d0b6da86e1af20d94517b9774fa93c59",
            "0xa6b6590724cf5d2ac7491533fdb0ea870352c55546ef780680e5e74182520612"
          ],
          "data": "0x",
          "blockHash": "0xce77c5569511bf74a7ba957f42cc4964ac8efe2b286fefa1e4225546f920c63c",
          "blockNumber": "0x126d280",
          "transactionHash": "0xfa0b41655cfff4414054e83742dcaf9c81f99628b3a3f9750f847e591ccefb23",
          "transactionIndex": "0x1",
          "logIndex": "0x0",
          "removed": false
        },
        {
          "address": "0xe68e28d6450b909738c4980eecddd973273f38f2",
          "topics": [
            "0xddf252ad1be2c89b69c2b068fc378daa952ba7f163c4a11628f55a4df523b3ef",
            "0x0000000000000000000000000000000000000000000000000000000000000000",
            "0x0000000000000000000000007bc9427c8730b87ab3fad10da63f0c4b9e9e0a5f",
            "0x0000000000000000000000000000000000000000000000000000000000000000"
          ],
          "data": "0x",
          "blockHash": "0xce77c5569511bf74a7ba957f42cc4964ac8efe2b286fefa1e4225546f920c63c",
          "blockNumber": "0x126d280",
          "transactionHash": "0xfa0b41655cfff4414054e83742dcaf9c81f99628b3a3f9750f847e591ccefb23",
          "transactionIndex": "0x1",
          "logIndex": "0x1",
          "removed": false
        },
        {
          "address": "0xe68e28d6450b909738c4980eecddd973273f38f2",
          "topics": [
            "0xe8fee9393295e19bc8c100d4948a1e62b2d6c23bd4a2853b7f0c9eb68cabef84",
            "0x0000000000000000000000000000000000000000000000000000000000000000"
          ],
          "data": "0x00000000000000000000000000000000000000000000000000000000000030390000000000000000000000000000000000000000000000000000000000000040000000000000000000000000000000000000000000000000000000000000000200000000000000000000000000000000000000000000000000000000000000400000000000000000000000000000000000000000000000000000000000000080000000000000000000000000000000000000000000000000000000000000000548656c6c6f0000000000000000000000000000000000000000000000000000000000000000000000000000000000000000000000000000000000000000000005576f726c64000000000000000000000000000000000000000000000000000000",
          "blockHash": "0xce77c5569511bf74a7ba957f42cc4964ac8efe2b286fefa1e4225546f920c63c",
          "blockNumber": "0x126d280",
          "transactionHash": "0xfa0b41655cfff4414054e83742dcaf9c81f99628b3a3f9750f847e591ccefb23",
          "transactionIndex": "0x1",
          "logIndex": "0x2",
          "removed": false
        }
      ],
      "logsBloom": "0x00000000000000000000080000000000000000000000008000000000000000000000000000000800000000000000000000000000000000000000000000000000000000020000000000000008000000000001000000000000000002000000000000000000020000000000000000000800100000000000000000000010000000000000000100000000000000020000000000000000000000000000000000000000000000000000000000000000000000000000000000000000000000000000000000000002000000000000000000000000000000000000000040000000000020000000008000000080000000000000000000000100000000000040000000000100",
      "type": "0x2",
      "transactionHash": "0xfa0b41655cfff4414054e83742dcaf9c81f99628b3a3f9750f847e591ccefb23",
      "transactionIndex": "0x1",
      "blockHash": "0xce77c5569511bf74a7ba957f42cc4964ac8efe2b286fefa1e4225546f920c63c",
      "blockNumber": "0x126d280",
      "gasUsed": "0x9b945",
      "effectiveGasPrice": "0xfd",
      "from": "0x7bc9427c8730b87ab3fad10da63f0c4b9e9e0a5f",
      "to": "0xe68e28d6450b909738c4980eecddd973273f38f2",
      "contractAddress": null,
      "l1BaseFeeScalar": "0x558",
      "l1BlobBaseFee": "0xea6fddc7c",
      "l1BlobBaseFeeScalar": "0xc5fc5",
      "l1Fee": "0xeb7fb5669e9",
      "l1GasPrice": "0x6668",
      "l1GasUsed": "0x13d1"
    }
  ],
  "libraries": [],
  "pending": [],
  "returns": {},
  "timestamp": 1757579105513,
  "chain": 11011,
  "commit": "fee17fa"
}