{
  "transactions": [
    {
      "hash": "0x1539d53d0d751356e3ae15a0a3192f120278e481f42534aaab18f529459894e6",
      "transactionType": "CALL",
      "contractName": null,
      "contractAddress": "0x346f34b9c0c17e48e9687034b8ff49375de4638a",
      "function": "mintRug(string[],uint256,string,string,string,string,uint8,uint8,uint256,uint256)",
      "arguments": [
        "[TEST_RUG_2025]",
        "8463",
        "Royal Stewart",
        "[{\\\"y\\\":0,\\\"h\\\":72.2,\\\"pc\\\":\\\"#000000\\\",\\\"sc\\\":null,\\\"wt\\\":\\\"s\\\",\\\"wv\\\":0.406},{\\\"y\\\":72.2,\\\"h\\\":71.922,\\\"pc\\\":\\\"#ffffff\\\",\\\"sc\\\":null,\\\"wt\\\":\\\"s\\\",\\\"wv\\\":0.234},{\\\"y\\\":144.123,\\\"h\\\":37.037,\\\"pc\\\":\\\"#007a3d\\\",\\\"sc\\\":null,\\\"wt\\\":\\\"s\\\",\\\"wv\\\":0.178},{\\\"y\\\":181.159,\\\"h\\\":69.49,\\\"pc\\\":\\\"#e10600\\\",\\\"sc\\\":null,\\\"wt\\\":\\\"s\\\",\\\"wv\\\":0.135},{\\\"y\\\":250.649,\\\"h\\\":42.179,\\\"pc\\\":\\\"#000000\\\",\\\"sc\\\":null,\\\"wt\\\":\\\"m\\\",\\\"wv\\\":0.454},{\\\"y\\\":292.828,\\\"h\\\":39.344,\\\"pc\\\":\\\"#007a3d\\\",\\\"sc\\\":null,\\\"wt\\\":\\\"t\\\",\\\"wv\\\":0.313},{\\\"y\\\":332.172,\\\"h\\\":46.537,\\\"pc\\\":\\\"#e10600\\\",\\\"sc\\\":null,\\\"wt\\\":\\\"s\\\",\\\"wv\\\":0.164},{\\\"y\\\":378.709,\\\"h\\\":75.408,\\\"pc\\\":\\\"#000000\\\",\\\"sc\\\":\\\"#e10600\\\",\\\"wt\\\":\\\"t\\\",\\\"wv\\\":0.447},{\\\"y\\\":454.116,\\\"h\\\":66.138,\\\"pc\\\":\\\"#e10600\\\",\\\"sc\\\":\\\"#ffd700\\\",\\\"wt\\\":\\\"s\\\",\\\"wv\\\":0.318},{\\\"y\\\":520.254,\\\"h\\\":56.996,\\\"pc\\\":\\\"#e10600\\\",\\\"sc\\\":null,\\\"wt\\\":\\\"s\\\",\\\"wv\\\":0.332},{\\\"y\\\":577.25,\\\"h\\\":26.414,\\\"pc\\\":\\\"#000000\\\",\\\"sc\\\":null,\\\"wt\\\":\\\"s\\\",\\\"wv\\\":0.452},{\\\"y\\\":603.664,\\\"h\\\":57.912,\\\"pc\\\":\\\"#007a3d\\\",\\\"sc\\\":null,\\\"wt\\\":\\\"t\\\",\\\"wv\\\":0.225},{\\\"y\\\":661.576,\\\"h\\\":55.544,\\\"pc\\\":\\\"#e10600\\\",\\\"sc\\\":null,\\\"wt\\\":\\\"s\\\",\\\"wv\\\":0.155},{\\\"y\\\":717.12,\\\"h\\\":31.582,\\\"pc\\\":\\\"#e10600\\\",\\\"sc\\\":null,\\\"wt\\\":\\\"s\\\",\\\"wv\\\":0.353},{\\\"y\\\":748.702,\\\"h\\\":23.152,\\\"pc\\\":\\\"#ffd700\\\",\\\"sc\\\":null,\\\"wt\\\":\\\"t\\\",\\\"wv\\\":0.232},{\\\"y\\\":771.854,\\\"h\\\":77.692,\\\"pc\\\":\\\"#000000\\\",\\\"sc\\\":null,\\\"wt\\\":\\\"t\\\",\\\"wv\\\":0.113},{\\\"y\\\":849.546,\\\"h\\\":29.627,\\\"pc\\\":\\\"#007a3d\\\",\\\"sc\\\":\\\"#ffffff\\\",\\\"wt\\\":\\\"m\\\",\\\"wv\\\":0.203},{\\\"y\\\":879.173,\\\"h\\\":62.08,\\\"pc\\\":\\\"#ffffff\\\",\\\"sc\\\":null,\\\"wt\\\":\\\"s\\\",\\\"wv\\\":0.477},{\\\"y\\\":941.253,\\\"h\\\":59.431,\\\"pc\\\":\\\"#ffd700\\\",\\\"sc\\\":null,\\\"wt\\\":\\\"s\\\",\\\"wv\\\":0.311},{\\\"y\\\":1000.683,\\\"h\\\":23.506,\\\"pc\\\":\\\"#007a3d\\\",\\\"sc\\\":\\\"#ffffff\\\",\\\"wt\\\":\\\"s\\\",\\\"wv\\\":0.272},{\\\"y\\\":1024.19,\\\"h\\\":22.586,\\\"pc\\\":\\\"#ffd700\\\",\\\"sc\\\":null,\\\"wt\\\":\\\"s\\\",\\\"wv\\\":0.45},{\\\"y\\\":1046.775,\\\"h\\\":77.096,\\\"pc\\\":\\\"#007a3d\\\",\\\"sc\\\":null,\\\"wt\\\":\\\"s\\\",\\\"wv\\\":0.234},{\\\"y\\\":1123.871,\\\"h\\\":22.971,\\\"pc\\\":\\\"#007a3d\\\",\\\"sc\\\":null,\\\"wt\\\":\\\"s\\\",\\\"wv\\\":0.101},{\\\"y\\\":1146.842,\\\"h\\\":53.158,\\\"pc\\\":\\\"#e10600\\\",\\\"sc\\\":null,\\\"wt\\\":\\\"s\\\",\\\"wv\\\":0.319}]",
        "{\\\"name\\\":\\\"Royal Stewart\\\",\\\"colors\\\":[\\\"#e10600\\\",\\\"#ffffff\\\",\\\"#000000\\\",\\\"#ffd700\\\",\\\"#007a3d\\\"]}",
        "{\\\"V\\\":[\\\"10001\\\",\\\"10001\\\",\\\"10001\\\",\\\"10001\\\",\\\"10001\\\",\\\"01010\\\",\\\"00100\\\"],\\\"A\\\":[\\\"01110\\\",\\\"10001\\\",\\\"10001\\\",\\\"11111\\\",\\\"10001\\\",\\\"10001\\\",\\\"10001\\\"],\\\"L\\\":[\\\"10000\\\",\\\"10000\\\",\\\"10000\\\",\\\"10000\\\",\\\"10000\\\",\\\"10000\\\",\\\"11111\\\"],\\\"I\\\":[\\\"11111\\\",\\\"00100\\\",\\\"00100\\\",\\\"00100\\\",\\\"00100\\\",\\\"00100\\\",\\\"11111\\\"],\\\"P\\\":[\\\"11110\\\",\\\"10001\\\",\\\"10001\\\",\\\"11110\\\",\\\"10000\\\",\\\"10000\\\",\\\"10000\\\"],\\\"O\\\":[\\\"01110\\\",\\\"10001\\\",\\\"10001\\\",\\\"10001\\\",\\\"10001\\\",\\\"10001\\\",\\\"01110\\\"],\\\"K\\\":[\\\"10001\\\",\\\"10010\\\",\\\"10100\\\",\\\"11000\\\",\\\"10100\\\",\\\"10010\\\",\\\"10001\\\"],\\\"N\\\":[\\\"10001\\\",\\\"11001\\\",\\\"10101\\\",\\\"10011\\\",\\\"10001\\\",\\\"10001\\\",\\\"10001\\\"],\\\" \\\":[\\\"00000\\\",\\\"00000\\\",\\\"00000\\\",\\\"00000\\\",\\\"00000\\\",\\\"00000\\\",\\\"00000\\\"]}",
        "3",
        "2",
        "10",
        "24"
      ],
      "transaction": {
        "from": "0x7bc9427c8730b87ab3fad10da63f0c4b9e9e0a5f",
        "to": "0x346f34b9c0c17e48e9687034b8ff49375de4638a",
        "gas": "0x2c4537",
        "value": "0xe8d4a51000",
        "input": "0x0f495d0c0000000000000000000000000000000000000000000000000000000000000140000000000000000000000000000000000000000000000000000000000000210f00000000000000000000000000000000000000000000000000000000000001c0000000000000000000000000000000000000000000000000000000000000020000000000000000000000000000000000000000000000000000000000000008c0000000000000000000000000000000000000000000000000000000000000094000000000000000000000000000000000000000000000000000000000000000030000000000000000000000000000000000000000000000000000000000000002000000000000000000000000000000000000000000000000000000000000000a000000000000000000000000000000000000000000000000000000000000001800000000000000000000000000000000000000000000000000000000000000010000000000000000000000000000000000000000000000000000000000000020000000000000000000000000000000000000000000000000000000000000000d544553545f5255475f3230323500000000000000000000000000000000000000000000000000000000000000000000000000000000000000000000000000000d526f79616c20537465776172740000000000000000000000000000000000000000000000000000000000000000000000000000000000000000000000000006995b7b2279223a302c2268223a37322e322c227063223a2223303030303030222c227363223a6e756c6c2c227774223a2273222c227776223a302e3430367d2c7b2279223a37322e322c2268223a37312e3932322c227063223a2223666666666666222c227363223a6e756c6c2c227774223a2273222c227776223a302e3233347d2c7b2279223a3134342e3132332c2268223a33372e3033372c227063223a2223303037613364222c227363223a6e756c6c2c227774223a2273222c227776223a302e3137387d2c7b2279223a3138312e3135392c2268223a36392e34392c227063223a2223653130363030222c227363223a6e756c6c2c227774223a2273222c227776223a302e3133357d2c7b2279223a3235302e3634392c2268223a34322e3137392c227063223a2223303030303030222c227363223a6e756c6c2c227774223a226d222c227776223a302e3435347d2c7b2279223a3239322e3832382c2268223a33392e3334342c227063223a2223303037613364222c227363223a6e756c6c2c227774223a2274222c227776223a302e3331337d2c7b2279223a3333322e3137322c2268223a34362e3533372c227063223a2223653130363030222c227363223a6e756c6c2c227774223a2273222c227776223a302e3136347d2c7b2279223a3337382e3730392c2268223a37352e3430382c227063223a2223303030303030222c227363223a2223653130363030222c227774223a2274222c227776223a302e3434377d2c7b2279223a3435342e3131362c2268223a36362e3133382c227063223a2223653130363030222c227363223a2223666664373030222c227774223a2273222c227776223a302e3331387d2c7b2279223a3532302e3235342c2268223a35362e3939362c227063223a2223653130363030222c227363223a6e756c6c2c227774223a2273222c227776223a302e3333327d2c7b2279223a3537372e32352c2268223a32362e3431342c227063223a2223303030303030222c227363223a6e756c6c2c227774223a2273222c227776223a302e3435327d2c7b2279223a3630332e3636342c2268223a35372e3931322c227063223a2223303037613364222c227363223a6e756c6c2c227774223a2274222c227776223a302e3232357d2c7b2279223a3636312e3537362c2268223a35352e3534342c227063223a2223653130363030222c227363223a6e756c6c2c227774223a2273222c227776223a302e3135357d2c7b2279223a3731372e31322c2268223a33312e3538322c227063223a2223653130363030222c227363223a6e756c6c2c227774223a2273222c227776223a302e3335337d2c7b2279223a3734382e3730322c2268223a32332e3135322c227063223a2223666664373030222c227363223a6e756c6c2c227774223a2274222c227776223a302e3233327d2c7b2279223a3737312e3835342c2268223a37372e3639322c227063223a2223303030303030222c227363223a6e756c6c2c227774223a2274222c227776223a302e3131337d2c7b2279223a3834392e3534362c2268223a32392e3632372c227063223a2223303037613364222c227363223a2223666666666666222c227774223a226d222c227776223a302e3230337d2c7b2279223a3837392e3137332c2268223a36322e30382c227063223a2223666666666666222c227363223a6e756c6c2c227774223a2273222c227776223a302e3437377d2c7b2279223a3934312e3235332c2268223a35392e3433312c227063223a2223666664373030222c227363223a6e756c6c2c227774223a2273222c227776223a302e3331317d2c7b2279223a313030302e3638332c2268223a32332e3530362c227063223a2223303037613364222c227363223a2223666666666666222c227774223a2273222c227776223a302e3237327d2c7b2279223a313032342e31392c2268223a32322e3538362c227063223a2223666664373030222c227363223a6e756c6c2c227774223a2273222c227776223a302e34357d2c7b2279223a313034362e3737352c2268223a37372e3039362c227063223a2223303037613364222c227363223a6e756c6c2c227774223a2273222c227776223a302e3233347d2c7b2279223a313132332e3837312c2268223a32322e3937312c227063223a2223303037613364222c227363223a6e756c6c2c227774223a2273222c227776223a302e3130317d2c7b2279223a313134362e3834322c2268223a35332e3135382c227063223a2223653130363030222c227363223a6e756c6c2c227774223a2273222c227776223a302e3331397d5d0000000000000000000000000000000000000000000000000000000000000000000000000000557b226e616d65223a22526f79616c2053746577617274222c22636f6c6f7273223a5b2223653130363030222c2223666666666666222c2223303030303030222c2223666664373030222c2223303037613364225d7d0000000000000000000000000000000000000000000000000000000000000000000000000000000000022f7b2256223a5b223130303031222c223130303031222c223130303031222c223130303031222c223130303031222c223031303130222c223030313030225d2c2241223a5b223031313130222c223130303031222c223130303031222c223131313131222c223130303031222c223130303031222c223130303031225d2c224c223a5b223130303030222c223130303030222c223130303030222c223130303030222c223130303030222c223130303030222c223131313131225d2c2249223a5b223131313131222c223030313030222c223030313030222c223030313030222c223030313030222c223030313030222c223131313131225d2c2250223a5b223131313130222c223130303031222c223130303031222c223131313130222c223130303030222c223130303030222c223130303030225d2c224f223a5b223031313130222c223130303031222c223130303031222c223130303031222c223130303031222c223130303031222c223031313130225d2c224b223a5b223130303031222c223130303130222c223130313030222c223131303030222c223130313030222c223130303130222c223130303031225d2c224e223a5b223130303031222c223131303031222c223130313031222c223130303131222c223130303031222c223130303031222c223130303031225d2c2220223a5b223030303030222c223030303030222c223030303030222c223030303030222c223030303030222c223030303030222c223030303030225d7d0000000000000000000000000000000000",
        "nonce": "0x192",
        "chainId": "0x2b03"
      },
      "additionalContracts": [],
      "isFixedGasLimit": false
    }
  ],
  "receipts": [
    {
      "status": "0x1",
      "cumulativeGasUsed": "0x20b827",
      "logs": [
        {
          "address": "0x346f34b9c0c17e48e9687034b8ff49375de4638a",
          "topics": [
            "0xddf252ad1be2c89b69c2b068fc378daa952ba7f163c4a11628f55a4df523b3ef",
            "0x0000000000000000000000000000000000000000000000000000000000000000",
            "0x0000000000000000000000007bc9427c8730b87ab3fad10da63f0c4b9e9e0a5f",
            "0x0000000000000000000000000000000000000000000000000000000000000001"
          ],
          "data": "0x",
          "blockHash": "0x106f91c6e5b1bd77904a73e854aa0e63b1b2b72d07414c76196fa200d2bbf9cd",
          "blockNumber": "0x12d13a4",
          "transactionHash": "0x1539d53d0d751356e3ae15a0a3192f120278e481f42534aaab18f529459894e6",
          "transactionIndex": "0x1",
          "logIndex": "0x0",
          "removed": false
        },
        {
          "address": "0x346f34b9c0c17e48e9687034b8ff49375de4638a",
          "topics": [
            "0x3180a95ebb1c45d97d28fabb74799fba191bba22c5303030187343603c821c9f",
            "0x0000000000000000000000000000000000000000000000000000000000000001",
            "0x0000000000000000000000007bc9427c8730b87ab3fad10da63f0c4b9e9e0a5f"
          ],
          "data": "0x0000000000000000000000000000000000000000000000000000000000000040000000000000000000000000000000000000000000000000000000000000210f00000000000000000000000000000000000000000000000000000000000000010000000000000000000000000000000000000000000000000000000000000020000000000000000000000000000000000000000000000000000000000000000d544553545f5255475f3230323500000000000000000000000000000000000000",
          "blockHash": "0x106f91c6e5b1bd77904a73e854aa0e63b1b2b72d07414c76196fa200d2bbf9cd",
          "blockNumber": "0x12d13a4",
          "transactionHash": "0x1539d53d0d751356e3ae15a0a3192f120278e481f42534aaab18f529459894e6",
          "transactionIndex": "0x1",
          "logIndex": "0x1",
          "removed": false
        }
      ],
      "logsBloom": "0x00000000000000000000000000000000000000000000000000000000000000000000000000000000080000000000000000000000000200000000000000040000000000000000000000000008000000000001000000040000000002000000000002000000020000000000000000000800000000000000000000000010000000000000000100000000000000000000000000010000000000000000000000000000000000000000000000000000000000000000000000000000000000000000000000000002000000000200000000000000000000000000000000000000000060000000000000000000000000000000004000000000000000000000000000000000",
      "type": "0x2",
      "transactionHash": "0x1539d53d0d751356e3ae15a0a3192f120278e481f42534aaab18f529459894e6",
      "transactionIndex": "0x1",
      "blockHash": "0x106f91c6e5b1bd77904a73e854aa0e63b1b2b72d07414c76196fa200d2bbf9cd",
      "blockNumber": "0x12d13a4",
      "gasUsed": "0x200d0c",
      "effectiveGasPrice": "0xfd",
      "from": "0x7bc9427c8730b87ab3fad10da63f0c4b9e9e0a5f",
      "to": "0x346f34b9c0c17e48e9687034b8ff49375de4638a",
      "contractAddress": null,
      "l1BaseFeeScalar": "0x558",
      "l1BlobBaseFee": "0x23",
      "l1BlobBaseFeeScalar": "0xc5fc5",
      "l1Fee": "0x13a1b",
      "l1GasPrice": "0x8f6",
      "l1GasUsed": "0x3ff1"
    }
  ],
  "libraries": [],
  "pending": [],
  "returns": {},
  "timestamp": 1758398890002,
  "chain": 11011,
  "commit": "3554d8a"
}