{
  "transactions": [
    {
      "hash": "0xf085b86bb1d346da8cee689dc77576138734b7701d45b49705be1e4d6fc219a8",
      "transactionType": "CALL",
      "contractName": null,
      "contractAddress": "0x8b68c94c4ddfa604ffcd7e32aa70987586dab222",
      "function": "diamondCut((address,uint8,bytes4[])[],address,bytes)",
      "arguments": [
        "[(0x0353e6665eDE612CB59BEF5EfdCd8F4A76b20e99, 1, [0x70a08231, 0x6352211e, 0x42842e0e, 0x23b872dd, 0x095ea7b3, 0xa22cb465, 0x081812fc, 0xe985e9c5, 0x06fdde03, 0x95d89b41, 0xc87b56dd, 0x18160ddd, 0xb88d4fde, 0x91af3155, 0x42966c68, 0x2e99fe3f, 0xa8accc46, 0x559e775b, 0xc2ba4744, 0xfdd9d9e8, 0xd5abeb01, 0xf0293fd3, 0x2d2bf633, 0x098144d4, 0xbe537f43, 0x495c8bf9, 0xd007af5c, 0x1b25b077, 0x01ffc9a7])]",
        "0x0000000000000000000000000000000000000000",
        "0x"
      ],
      "transaction": {
        "from": "0x7bc9427c8730b87ab3fad10da63f0c4b9e9e0a5f",
        "to": "0x8b68c94c4ddfa604ffcd7e32aa70987586dab222",
        "gas": "0xa1598",
        "value": "0x0",
        "input": "0x1f931c1c0000000000000000000000000000000000000000000000000000000000000060000000000000000000000000000000000000000000000000000000000000000000000000000000000000000000000000000000000000000000000000000004c0000000000000000000000000000000000000000000000000000000000000000100000000000000000000000000000000000000000000000000000000000000200000000000000000000000000353e6665ede612cb59bef5efdcd8f4a76b20e9900000000000000000000000000000000000000000000000000000000000000010000000000000000000000000000000000000000000000000000000000000060000000000000000000000000000000000000000000000000000000000000001d70a08231000000000000000000000000000000000000000000000000000000006352211e0000000000000000000000000000000000000000000000000000000042842e0e0000000000000000000000000000000000000000000000000000000023b872dd00000000000000000000000000000000000000000000000000000000095ea7b300000000000000000000000000000000000000000000000000000000a22cb46500000000000000000000000000000000000000000000000000000000081812fc00000000000000000000000000000000000000000000000000000000e985e9c50000000000000000000000000000000000000000000000000000000006fdde030000000000000000000000000000000000000000000000000000000095d89b4100000000000000000000000000000000000000000000000000000000c87b56dd0000000000000000000000000000000000000000000000000000000018160ddd00000000000000000000000000000000000000000000000000000000b88d4fde0000000000000000000000000000000000000000000000000000000091af31550000000000000000000000000000000000000000000000000000000042966c68000000000000000000000000000000000000000000000000000000002e99fe3f00000000000000000000000000000000000000000000000000000000a8accc4600000000000000000000000000000000000000000000000000000000559e775b00000000000000000000000000000000000000000000000000000000c2ba474400000000000000000000000000000000000000000000000000000000fdd9d9e800000000000000000000000000000000000000000000000000000000d5abeb0100000000000000000000000000000000000000000000000000000000f0293fd3000000000000000000000000000000000000000000000000000000002d2bf63300000000000000000000000000000000000000000000000000000000098144d400000000000000000000000000000000000000000000000000000000be537f4300000000000000000000000000000000000000000000000000000000495c8bf900000000000000000000000000000000000000000000000000000000d007af5c000000000000000000000000000000000000000000000000000000001b25b0770000000000000000000000000000000000000000000000000000000001ffc9a7000000000000000000000000000000000000000000000000000000000000000000000000000000000000000000000000000000000000000000000000",
        "nonce": "0x72c",
        "chainId": "0x2b03"
      },
      "additionalContracts": [],
      "isFixedGasLimit": false
    }
  ],
  "receipts": [
    {
      "status": "0x1",
      "cumulativeGasUsed": "0x7f817",
      "logs": [
        {
          "address": "0x8b68c94c4ddfa604ffcd7e32aa70987586dab222",
          "topics": [
            "0x8faa70878671ccd212d20771b795c50af8fd3ff6cf27f4bde57e5d4de0aeb673"
          ],
          "data": "0x0000000000000000000000000000000000000000000000000000000000000060000000000000000000000000000000000000000000000000000000000000000000000000000000000000000000000000000000000000000000000000000004c0000000000000000000000000000000000000000000000000000000000000000100000000000000000000000000000000000000000000000000000000000000200000000000000000000000000353e6665ede612cb59bef5efdcd8f4a76b20e9900000000000000000000000000000000000000000000000000000000000000010000000000000000000000000000000000000000000000000000000000000060000000000000000000000000000000000000000000000000000000000000001d70a08231000000000000000000000000000000000000000000000000000000006352211e0000000000000000000000000000000000000000000000000000000042842e0e0000000000000000000000000000000000000000000000000000000023b872dd00000000000000000000000000000000000000000000000000000000095ea7b300000000000000000000000000000000000000000000000000000000a22cb46500000000000000000000000000000000000000000000000000000000081812fc00000000000000000000000000000000000000000000000000000000e985e9c50000000000000000000000000000000000000000000000000000000006fdde030000000000000000000000000000000000000000000000000000000095d89b4100000000000000000000000000000000000000000000000000000000c87b56dd0000000000000000000000000000000000000000000000000000000018160ddd00000000000000000000000000000000000000000000000000000000b88d4fde0000000000000000000000000000000000000000000000000000000091af31550000000000000000000000000000000000000000000000000000000042966c68000000000000000000000000000000000000000000000000000000002e99fe3f00000000000000000000000000000000000000000000000000000000a8accc4600000000000000000000000000000000000000000000000000000000559e775b00000000000000000000000000000000000000000000000000000000c2ba474400000000000000000000000000000000000000000000000000000000fdd9d9e800000000000000000000000000000000000000000000000000000000d5abeb0100000000000000000000000000000000000000000000000000000000f0293fd3000000000000000000000000000000000000000000000000000000002d2bf63300000000000000000000000000000000000000000000000000000000098144d400000000000000000000000000000000000000000000000000000000be537f4300000000000000000000000000000000000000000000000000000000495c8bf900000000000000000000000000000000000000000000000000000000d007af5c000000000000000000000000000000000000000000000000000000001b25b0770000000000000000000000000000000000000000000000000000000001ffc9a7000000000000000000000000000000000000000000000000000000000000000000000000000000000000000000000000000000000000000000000000",
          "blockHash": "0x4f3e77cd85a39c3e13f931908df36b66dc85be67d19a3164a73812a3193cb0cc",
          "blockNumber": "0x13ccc6c",
          "blockTimestamp": "0x68ee7b38",
          "transactionHash": "0xf085b86bb1d346da8cee689dc77576138734b7701d45b49705be1e4d6fc219a8",
          "transactionIndex": "0x1",
          "logIndex": "0x0",
          "removed": false
        }
      ],
      "logsBloom": "0x00000000000000008000000000000000000000000000000000000000000000000000000000000000000000000000000000000000000000000000000000000000000000000002000000000000000000000000000001020000000800000000000000000000000000000000000000000000000000000000000000000000000000000020000000000000000000000000000000000000000000000000000000000000000000000000000000000000000000000000000000000000000000000000000000000000000000000000000000000000000000000000000000000000000000000000000000000000000000000000000000000000000000000000000000000000",
      "type": "0x2",
      "transactionHash": "0xf085b86bb1d346da8cee689dc77576138734b7701d45b49705be1e4d6fc219a8",
      "transactionIndex": "0x1",
      "blockHash": "0x4f3e77cd85a39c3e13f931908df36b66dc85be67d19a3164a73812a3193cb0cc",
      "blockNumber": "0x13ccc6c",
      "gasUsed": "0x74d08",
      "effectiveGasPrice": "0xfd",
      "from": "0x7bc9427c8730b87ab3fad10da63f0c4b9e9e0a5f",
      "to": "0x8b68c94c4ddfa604ffcd7e32aa70987586dab222",
      "contractAddress": null,
      "l1BaseFeeScalar": "0x558",
      "l1BlobBaseFee": "0x1",
      "l1BlobBaseFeeScalar": "0xc5fc5",
      "l1Fee": "0x179",
      "l1GasPrice": "0xa",
      "l1GasUsed": "0x16e7"
    }
  ],
  "libraries": [],
  "pending": [],
  "returns": {},
  "timestamp": 1760459576815,
  "chain": 11011,
  "commit": "d8276a2"
}