{
  "transactions": [
    {
      "hash": "0xbb5ee8d51c6caf0d5961d2d86b0aa6c1fbc5d371109c273306b638a0bfb6c5a1",
      "transactionType": "CALL",
      "contractName": null,
      "contractAddress": "0x5e63d07bda3987da3a0cacd69d829b9e11c1f325",
      "function": "configureRoyalties(uint256,address[],uint256[])",
      "arguments": [
        "1000",
        "[0x7Bc9427C8730b87Ab3faD10DA63F0C4b9e9E0A5F]",
        "[1000]"
      ],
      "transaction": {
        "from": "0x7bc9427c8730b87ab3fad10da63f0c4b9e9e0a5f",
        "to": "0x5e63d07bda3987da3a0cacd69d829b9e11c1f325",
        "gas": "0x30da2",
        "value": "0x0",
        "input": "0xa246abca00000000000000000000000000000000000000000000000000000000000003e8000000000000000000000000000000000000000000000000000000000000006000000000000000000000000000000000000000000000000000000000000000a000000000000000000000000000000000000000000000000000000000000000010000000000000000000000007bc9427c8730b87ab3fad10da63f0c4b9e9e0a5f000000000000000000000000000000000000000000000000000000000000000100000000000000000000000000000000000000000000000000000000000003e8",
        "nonce": "0xadb",
        "chainId": "0x2b03"
      },
      "additionalContracts": [],
      "isFixedGasLimit": false
    }
  ],
  "receipts": [
    {
      "status": "0x1",
      "cumulativeGasUsed": "0x2e0ff",
      "logs": [
        {
          "address": "0x5e63d07bda3987da3a0cacd69d829b9e11c1f325",
          "topics": [
            "0xe6fbb35a33cfe2ab7318ee53b95254a4aae22e50225dbf7e0f6078e30e3893f0"
          ],
          "data": "0x00000000000000000000000000000000000000000000000000000000000003e8000000000000000000000000000000000000000000000000000000000000006000000000000000000000000000000000000000000000000000000000000000a000000000000000000000000000000000000000000000000000000000000000010000000000000000000000007bc9427c8730b87ab3fad10da63f0c4b9e9e0a5f000000000000000000000000000000000000000000000000000000000000000100000000000000000000000000000000000000000000000000000000000003e8",
          "blockHash": "0x2a5e7249f3b76caf8022d94218b18aa25675f1207c4d3fe9ab41d1fe5076e484",
          "blockNumber": "0x14619c4",
          "blockTimestamp": "0x690115e8",
          "transactionHash": "0xbb5ee8d51c6caf0d5961d2d86b0aa6c1fbc5d371109c273306b638a0bfb6c5a1",
          "transactionIndex": "0x1",
          "logIndex": "0x0",
          "removed": false
        }
      ],
      "logsBloom": "0x00000000100000000000000000000000000000000000000000000000000000000000000000000000000000000000000000000000000000000000000000000000000000000000000000000000000000000100000000100000000000000000000000000000000000000000000000000000000000000000000000000000000000000000000000000000000000000800000000000000000000000000000000000000000000001000000000000000000000000000000000000000000000000000000000000000000000000000000000000000000000000000000000000000000000000000000000000000000000000000000000000000000000000000000008000000",
      "type": "0x2",
      "transactionHash": "0xbb5ee8d51c6caf0d5961d2d86b0aa6c1fbc5d371109c273306b638a0bfb6c5a1",
      "transactionIndex": "0x1",
      "blockHash": "0x2a5e7249f3b76caf8022d94218b18aa25675f1207c4d3fe9ab41d1fe5076e484",
      "blockNumber": "0x14619c4",
      "gasUsed": "0x235e4",
      "effectiveGasPrice": "0xfd",
      "from": "0x7bc9427c8730b87ab3fad10da63f0c4b9e9e0a5f",
      "to": "0x5e63d07bda3987da3a0cacd69d829b9e11c1f325",
      "contractAddress": null,
      "l1BaseFeeScalar": "0x558",
      "l1BlobBaseFee": "0xac38",
      "l1BlobBaseFeeScalar": "0xc5fc5",
      "l1Fee": "0x3e1b0c",
      "l1GasPrice": "0xa",
      "l1GasUsed": "0x71d"
    }
  ],
  "libraries": [],
  "pending": [],
  "returns": {},
  "timestamp": 1761678824137,
  "chain": 11011,
  "commit": "6dc56e5"
}