{
  "transactions": [
    {
      "hash": "0x79d1db1e05d9270c1d3ca66b1ed889f9832350c5f2ccac6eab1076d58c3999c1",
      "transactionType": "CALL",
      "contractName": null,
      "contractAddress": "0x6f7d033f046ee9c41a73713fe5620d8f64c3bbad",
      "function": "facetAddress(bytes4)",
      "arguments": [
        "0xc87b56dd"
      ],
      "transaction": {
        "from": "0x7bc9427c8730b87ab3fad10da63f0c4b9e9e0a5f",
        "to": "0x6f7d033f046ee9c41a73713fe5620d8f64c3bbad",
        "gas": "0xa3ad",
        "value": "0x0",
        "input": "0xcdffacc6c87b56dd00000000000000000000000000000000000000000000000000000000",
        "nonce": "0x30f",
        "chainId": "0x2b03"
      },
      "additionalContracts": [],
      "isFixedGasLimit": false
    },
    {
      "hash": "0x62ea2eb5eb8390da50c45dea7f86c30c09de5ed3b13ea9ff4018100c8cee30f4",
      "transactionType": "CALL",
      "contractName": null,
      "contractAddress": "0x6f7d033f046ee9c41a73713fe5620d8f64c3bbad",
      "function": "diamondCut((address,uint8,bytes4[])[],address,bytes)",
      "arguments": [
        "[(0x52C6f2d6Fd21958aaB9cd0A3325068AbbB18D871, 0, [0x650def5b])]",
        "0x0000000000000000000000000000000000000000",
        "0x"
      ],
      "transaction": {
        "from": "0x7bc9427c8730b87ab3fad10da63f0c4b9e9e0a5f",
        "to": "0x6f7d033f046ee9c41a73713fe5620d8f64c3bbad",
        "gas": "0x17e07",
        "value": "0x0",
        "input": "0x1f931c1c0000000000000000000000000000000000000000000000000000000000000060000000000000000000000000000000000000000000000000000000000000000000000000000000000000000000000000000000000000000000000000000001400000000000000000000000000000000000000000000000000000000000000001000000000000000000000000000000000000000000000000000000000000002000000000000000000000000052c6f2d6fd21958aab9cd0a3325068abbb18d871000000000000000000000000000000000000000000000000000000000000000000000000000000000000000000000000000000000000000000000000000000600000000000000000000000000000000000000000000000000000000000000001650def5b000000000000000000000000000000000000000000000000000000000000000000000000000000000000000000000000000000000000000000000000",
        "nonce": "0x310",
        "chainId": "0x2b03"
      },
      "additionalContracts": [],
      "isFixedGasLimit": false
    }
  ],
  "receipts": [
    {
      "status": "0x1",
      "cumulativeGasUsed": "0x25606",
      "logs": [],
      "logsBloom": "0x00000000000000000000000000000000000000000000000000000000000000000000000000000000000000000000000000000000000000000000000000000000000000000000000000000000000000000000000000000000000000000000000000000000000000000000000000000000000000000000000000000000000000000000000000000000000000000000000000000000000000000000000000000000000000000000000000000000000000000000000000000000000000000000000000000000000000000000000000000000000000000000000000000000000000000000000000000000000000000000000000000000000000000000000000000000",
      "type": "0x2",
      "transactionHash": "0x79d1db1e05d9270c1d3ca66b1ed889f9832350c5f2ccac6eab1076d58c3999c1",
      "transactionIndex": "0x3",
      "blockHash": "0x00b8e6c8f6c8fc18ad9b0ecd31062bc337910de039cd10ec7de2d497cd3e4b1a",
      "blockNumber": "0x132a663",
      "gasUsed": "0x6feb",
      "effectiveGasPrice": "0xfd",
      "from": "0x7bc9427c8730b87ab3fad10da63f0c4b9e9e0a5f",
      "to": "0x6f7d033f046ee9c41a73713fe5620d8f64c3bbad",
      "contractAddress": null,
      "l1BaseFeeScalar": "0x558",
      "l1BlobBaseFee": "0x1",
      "l1BlobBaseFeeScalar": "0xc5fc5",
      "l1Fee": "0x66",
      "l1GasPrice": "0xa",
      "l1GasUsed": "0x640"
    },
    {
      "status": "0x1",
      "cumulativeGasUsed": "0x1d56c",
      "logs": [
        {
          "address": "0x6f7d033f046ee9c41a73713fe5620d8f64c3bbad",
          "topics": [
            "0x8faa70878671ccd212d20771b795c50af8fd3ff6cf27f4bde57e5d4de0aeb673"
          ],
          "data": "0x0000000000000000000000000000000000000000000000000000000000000060000000000000000000000000000000000000000000000000000000000000000000000000000000000000000000000000000000000000000000000000000001400000000000000000000000000000000000000000000000000000000000000001000000000000000000000000000000000000000000000000000000000000002000000000000000000000000052c6f2d6fd21958aab9cd0a3325068abbb18d871000000000000000000000000000000000000000000000000000000000000000000000000000000000000000000000000000000000000000000000000000000600000000000000000000000000000000000000000000000000000000000000001650def5b000000000000000000000000000000000000000000000000000000000000000000000000000000000000000000000000000000000000000000000000",
          "blockHash": "0xcf37f0383c61c48d92a071596204aee16aef66729b54592ff56b812778dfdf39",
          "blockNumber": "0x132a664",
          "transactionHash": "0x62ea2eb5eb8390da50c45dea7f86c30c09de5ed3b13ea9ff4018100c8cee30f4",
          "transactionIndex": "0x1",
          "logIndex": "0x0",
          "removed": false
        }
      ],
      "logsBloom": "0x00008000000000000000000000000000000000000000000000000000000000000000000000000000000000000000000000000000000000000000000000000000000000000000000000000000000000000000000001000000000800000000000000000000000000000000000000000000000000000000000000000000000000000020000000000000000000000000000000000000000000000000000000000000000000000000000000000000000000000000000000000000000000000040000000000000000000000000000000000000000000000000000008000000000000000000000000000000000000000000000000000000000000000000000000000000",
      "type": "0x2",
      "transactionHash": "0x62ea2eb5eb8390da50c45dea7f86c30c09de5ed3b13ea9ff4018100c8cee30f4",
      "transactionIndex": "0x1",
      "blockHash": "0xcf37f0383c61c48d92a071596204aee16aef66729b54592ff56b812778dfdf39",
      "blockNumber": "0x132a664",
      "gasUsed": "0x11495",
      "effectiveGasPrice": "0xfd",
      "from": "0x7bc9427c8730b87ab3fad10da63f0c4b9e9e0a5f",
      "to": "0x6f7d033f046ee9c41a73713fe5620d8f64c3bbad",
      "contractAddress": null,
      "l1BaseFeeScalar": "0x558",
      "l1BlobBaseFee": "0x1",
      "l1BlobBaseFeeScalar": "0xc5fc5",
      "l1Fee": "0x77",
      "l1GasPrice": "0xa",
      "l1GasUsed": "0x745"
    }
  ],
  "libraries": [],
  "pending": [],
  "returns": {},
  "timestamp": 1759129384769,
  "chain": 11011,
  "commit": "8381511"
}