{
  "transactions": [
    {
      "hash": "0x529d22e5b0cf86b22d3b42b516e8e8a91a0adee7ffc29f1469f9f9d65fa2e1ef",
      "transactionType": "CALL",
      "contractName": null,
      "contractAddress": "0xcf7ed3acca5a467e9e704c703e8d87f634fb0fc9",
      "function": "mintRug(string[],uint256,string,string,string,string,uint8,uint8,uint256,uint256)",
      "arguments": [
        "[VALIPOKKAN]",
        "8463",
        "Royal Stewart",
        "[{\\\"y\\\":0,\\\"h\\\":72.2,\\\"pc\\\":\\\"#000000\\\",\\\"sc\\\":null,\\\"wt\\\":\\\"s\\\",\\\"wv\\\":0.406},{\\\"y\\\":72.2,\\\"h\\\":71.922,\\\"pc\\\":\\\"#ffffff\\\",\\\"sc\\\":null,\\\"wt\\\":\\\"s\\\",\\\"wv\\\":0.234}]",
        "{\\\"name\\\":\\\"Royal Stewart\\\",\\\"colors\\\":[\\\"#e10600\\\",\\\"#ffffff\\\",\\\"#000000\\\",\\\"#ffd700\\\",\\\"#007a3d\\\"]}",
        "{\\\"V\\\":[\\\"10001\\\",\\\"10001\\\",\\\"10001\\\",\\\"10001\\\",\\\"10001\\\",\\\"01010\\\",\\\"00100\\\"],\\\"A\\\":[\\\"01110\\\",\\\"10001\\\",\\\"10001\\\",\\\"11111\\\",\\\"10001\\\",\\\"10001\\\",\\\"10001\\\"],\\\"L\\\":[\\\"10000\\\",\\\"10000\\\",\\\"10000\\\",\\\"10000\\\",\\\"10000\\\",\\\"10000\\\",\\\"11111\\\"],\\\"I\\\":[\\\"11111\\\",\\\"00100\\\",\\\"00100\\\",\\\"00100\\\",\\\"00100\\\",\\\"00100\\\",\\\"11111\\\"],\\\"P\\\":[\\\"11110\\\",\\\"10001\\\",\\\"10001\\\",\\\"11110\\\",\\\"10000\\\",\\\"10000\\\",\\\"10000\\\"],\\\"O\\\":[\\\"01110\\\",\\\"10001\\\",\\\"10001\\\",\\\"10001\\\",\\\"10001\\\",\\\"10001\\\",\\\"01110\\\"],\\\"K\\\":[\\\"10001\\\",\\\"10010\\\",\\\"10100\\\",\\\"11000\\\",\\\"10100\\\",\\\"10010\\\",\\\"10001\\\"],\\\"N\\\":[\\\"10001\\\",\\\"11001\\\",\\\"10101\\\",\\\"10011\\\",\\\"10001\\\",\\\"10001\\\",\\\"10001\\\"],\\\" \\\":[\\\"00000\\\",\\\"00000\\\",\\\"00000\\\",\\\"00000\\\",\\\"00000\\\",\\\"00000\\\",\\\"00000\\\"]}",
        "3",
        "2",
        "10",
        "24"
      ],
      "transaction": {
        "from": "0xf39fd6e51aad88f6f4ce6ab8827279cfffb92266",
        "to": "0xcf7ed3acca5a467e9e704c703e8d87f634fb0fc9",
        "gas": "0x154783",
        "value": "0xde0b6b3a7640000",
        "input": "0x0f495d0c0000000000000000000000000000000000000000000000000000000000000140000000000000000000000000000000000000000000000000000000000000210f00000000000000000000000000000000000000000000000000000000000001c0000000000000000000000000000000000000000000000000000000000000020000000000000000000000000000000000000000000000000000000000000002c0000000000000000000000000000000000000000000000000000000000000034000000000000000000000000000000000000000000000000000000000000000030000000000000000000000000000000000000000000000000000000000000002000000000000000000000000000000000000000000000000000000000000000a000000000000000000000000000000000000000000000000000000000000001800000000000000000000000000000000000000000000000000000000000000010000000000000000000000000000000000000000000000000000000000000020000000000000000000000000000000000000000000000000000000000000000a56414c49504f4b4b414e00000000000000000000000000000000000000000000000000000000000000000000000000000000000000000000000000000000000d526f79616c20537465776172740000000000000000000000000000000000000000000000000000000000000000000000000000000000000000000000000000825b7b2279223a302c2268223a37322e322c227063223a2223303030303030222c227363223a6e756c6c2c227774223a2273222c227776223a302e3430367d2c7b2279223a37322e322c2268223a37312e3932322c227063223a2223666666666666222c227363223a6e756c6c2c227774223a2273222c227776223a302e3233347d5d00000000000000000000000000000000000000000000000000000000000000000000000000000000000000000000000000000000000000000000000000557b226e616d65223a22526f79616c2053746577617274222c22636f6c6f7273223a5b2223653130363030222c2223666666666666222c2223303030303030222c2223666664373030222c2223303037613364225d7d0000000000000000000000000000000000000000000000000000000000000000000000000000000000022f7b2256223a5b223130303031222c223130303031222c223130303031222c223130303031222c223130303031222c223031303130222c223030313030225d2c2241223a5b223031313130222c223130303031222c223130303031222c223131313131222c223130303031222c223130303031222c223130303031225d2c224c223a5b223130303030222c223130303030222c223130303030222c223130303030222c223130303030222c223130303030222c223131313131225d2c2249223a5b223131313131222c223030313030222c223030313030222c223030313030222c223030313030222c223030313030222c223131313131225d2c2250223a5b223131313130222c223130303031222c223130303031222c223131313130222c223130303030222c223130303030222c223130303030225d2c224f223a5b223031313130222c223130303031222c223130303031222c223130303031222c223130303031222c223130303031222c223031313130225d2c224b223a5b223130303031222c223130303130222c223130313030222c223131303030222c223130313030222c223130303130222c223130303031225d2c224e223a5b223130303031222c223131303031222c223130313031222c223130303131222c223130303031222c223130303031222c223130303031225d2c2220223a5b223030303030222c223030303030222c223030303030222c223030303030222c223030303030222c223030303030222c223030303030225d7d0000000000000000000000000000000000",
        "nonce": "0x9",
        "chainId": "0x7a69"
      },
      "additionalContracts": [],
      "isFixedGasLimit": false
    }
  ],
  "receipts": [
    {
      "status": "0x1",
      "cumulativeGasUsed": "0xf67e7",
      "logs": [
        {
          "address": "0xcf7ed3acca5a467e9e704c703e8d87f634fb0fc9",
          "topics": [
            "0xddf252ad1be2c89b69c2b068fc378daa952ba7f163c4a11628f55a4df523b3ef",
            "0x0000000000000000000000000000000000000000000000000000000000000000",
            "0x000000000000000000000000f39fd6e51aad88f6f4ce6ab8827279cfffb92266",
            "0x0000000000000000000000000000000000000000000000000000000000000001"
          ],
          "data": "0x",
          "blockHash": "0xf160a51434e013534750555c473b853eff8e54f824930b463bf9c0180e0f7b60",
          "blockNumber": "0x6",
          "blockTimestamp": "0x68cd4998",
          "transactionHash": "0x529d22e5b0cf86b22d3b42b516e8e8a91a0adee7ffc29f1469f9f9d65fa2e1ef",
          "transactionIndex": "0x0",
          "logIndex": "0x0",
          "removed": false
        },
        {
          "address": "0xcf7ed3acca5a467e9e704c703e8d87f634fb0fc9",
          "topics": [
            "0x3180a95ebb1c45d97d28fabb74799fba191bba22c5303030187343603c821c9f",
            "0x0000000000000000000000000000000000000000000000000000000000000001",
            "0x000000000000000000000000f39fd6e51aad88f6f4ce6ab8827279cfffb92266"
          ],
          "data": "0x0000000000000000000000000000000000000000000000000000000000000040000000000000000000000000000000000000000000000000000000000000210f00000000000000000000000000000000000000000000000000000000000000010000000000000000000000000000000000000000000000000000000000000020000000000000000000000000000000000000000000000000000000000000000a56414c49504f4b4b414e00000000000000000000000000000000000000000000",
          "blockHash": "0xf160a51434e013534750555c473b853eff8e54f824930b463bf9c0180e0f7b60",
          "blockNumber": "0x6",
          "blockTimestamp": "0x68cd4998",
          "transactionHash": "0x529d22e5b0cf86b22d3b42b516e8e8a91a0adee7ffc29f1469f9f9d65fa2e1ef",
          "transactionIndex": "0x0",
          "logIndex": "0x1",
          "removed": false
        }
      ],
      "logsBloom": "0x00000000000000000000000000000000000000000000000000000000000000000000000000000000080000000000080000000000000000000000000000040001000000000000000000000008000000000000000000040000000000000000000002000000020000000000000100000800000000000000000000000010000000000000000008000000000000000000000000000000000000000000000000000000000000000000000000000000000000000000000000000000000000000000000000000002000000200000000000000000000000002000000000000000000060000000000000000000000000000000004000000000000000000000000000000000",
      "type": "0x2",
      "transactionHash": "0x529d22e5b0cf86b22d3b42b516e8e8a91a0adee7ffc29f1469f9f9d65fa2e1ef",
      "transactionIndex": "0x0",
      "blockHash": "0xf160a51434e013534750555c473b853eff8e54f824930b463bf9c0180e0f7b60",
      "blockNumber": "0x6",
      "gasUsed": "0xf67e7",
      "effectiveGasPrice": "0x24e6c5a6",
      "blobGasPrice": "0x1",
      "from": "0xf39fd6e51aad88f6f4ce6ab8827279cfffb92266",
      "to": "0xcf7ed3acca5a467e9e704c703e8d87f634fb0fc9",
      "contractAddress": null
    }
  ],
  "libraries": [],
  "pending": [],
  "returns": {},
  "timestamp": 1758284184479,
  "chain": 31337,
  "commit": "e18f12c"
}